:100000000C9420040C943D040C943D040C943D0489
:100010000C943D040C943D040C943D040C943D045C
:100020000C943D040C943D040C94E2370C94B438C9
:100030000C9493320C943D040C943D040C943D04B8
:100040000C943D040C943D040C943D040C943D042C
:100050000C943D040C9437330C943D040C943D04F3
:100060000C943D040C943D040C943D040C943D040C
:100070000C943D040C943D040C943D040C943D04FC
:100080000C943D040C943D040C943D040C943D04EC
:100090000C943D040C943D040C943D040C943D04DC
:1000A0000C943D040C943D040C943D0499049C0470
:1000B0009F04A204A504A804AB048C0D8C0DBA0DFA
:1000C000BA0D1E0E3C0E580F580F470EE20EF50EDD
:1000D000F50E21394839403A4839403A9439B73910
:1000E000403A0E3A1D3A004434540074648400557A
:1000F000456500857595003626460066567600965D
:1001000086A6003727470077678700382848008889
:1001100078980039294900695979009989A9003AE4
:100120002A4A006A5A7A003B2B4B006B5B7B004CDF
:100130003C5C007C6C8C005D4D6D008D7D9D003EB7
:100140002E4E006E5E7E0144345401746484015569
:1001500045650185759501362646016656760196F8
:1001600086A6013727470177678701382848018825
:1001700078980139294901695979019989A9013A80
:100180002A4A016A5A7A013B2B4B016B5B7B014C7B
:100190003C5C017C6C8C015D4D6D018D7D9D013E53
:1001A0002E4E016E5E7E2E002B002A61E100015171
:1001B00000001E00140004001D00350029641F000B
:1001C0001A0016001B0034002C0020000800070055
:1001D00006005000E00021001500090019004F0042
:1001E0004A00220017000A000500000065002900EF
:1001F0004C0000002F0000004D0029002A000000E4
:10020000300000004B0023001C000B001100000018
:10021000E000240018000D00100052004E002500E0
:100220000C000E0036005100E500260012000F0001
:1002300037002F0028002700130033423800300019
:100240004C002D0031003468E50001510000290008
:10025000010001000100010000003A001E0220021E
:100260002202000001003B001F022102230205536D
:10027000CA5C3C002F0226022F000100CB5C3D002F
:10028000300227023000045301003E0031023500E5
:1002900035020000C45C0100010000000100000004
:1002A000010001000100000001000000C35C3F00EC
:1002B0005200510024020000A95D400024002100EA
:1002C0001E000453A85D4100250022001F003700D6
:1002D000C65C42002600230020002700C75C4300C4
:1002E00025022E0231002E000100440045000100CD
:1002F000010001000000A600010001000100010052
:10030000000001000100010001000100AC5D0100DE
:10031000FB00EF0001000100AE5D0100ED00EE000A
:100320000100F20001000100FC00F0000100F100FA
:10033000AB5D01000100035301000000AD5D010051
:100340000100000001000000AA5D010001000000A2
:100350000100000001000100F900FA00F3000000B4
:1003600001000100A900FD00AE00F1000100010044
:10037000AA00FE00AC00F200B7000100A800FF00D8
:10038000AB00A800B600010046000100010001001A
:100390000100005C4602AE00010001000000010007
:1003A0000100E00001000100000001000100010067
:1003B000010001002900010001000100010001000D
:1003C000E200010001000100010001002C00010019
:1003D0000100010001000100010001000100010015
:1003E0000100000001000100010000000100000008
:1003F00001000100010000000100000001000100F7
:1004000001000100010000000100010001000100E5
:1004100001000100010001000100010001000100D4
:10042000280001000100010001000100010001009D
:1004300001000100010001000100010001000100B4
:100440000100010000002D0031003468E500045374
:10045000000023001C000B4211002F004C00240060
:1004600018000D0010003000E40025000C000E0004
:10047000360051002800260012000F0037005200FD
:100480004E0027001300330038000000E000290070
:100490002A000000300000004B0029004C00000042
:1004A0002F0000004D001E00140004001D0000007D
:1004B00065001F001A0016001B0050004A002000B3
:1004C0000800070006004F002C002100150009005D
:1004D000190035002964220017000A0005003400C5
:1004E000E3002E002B002A61E1000453000001000C
:1004F00001000100010001000000010001000100F5
:1005000001000100010001000100010001000100E3
:1005100001000100010001000100010001000100D3
:1005200001000100010001000100010001000100C3
:1005300001000000010001000100000001000000B6
:1005400001000100010000000100000001000100A5
:100550000100010001000000010001000100010094
:100560000100010001000100010001000100010083
:100570000100010001000100010001000100010073
:100580000100010001000100010001000100010063
:100590000100010000000001010101010101010150
:1005A0000202020202020202020303030303030324
:1005B00003040404040404040505050505060606F1
:1005C0000606070707070708080808090909090AAE
:1005D0000A0A0B0B0B0C0C0C0D0D0D0E0E0E0F0F53
:1005E0000F101011111112121313141415151616E1
:1005F0001717181819191A1A1B1B1C1D1D1E1E1F50
:100600002020212222232424252626272829292A9E
:100610002B2C2D2D2E2F30313232333435363738C6
:10062000393A3B3C3D3E3F404142434445464748C2
:10063000494A4C4D4E4F50515354555658595A5B98
:100640005D5E5F616264656668696B6C6D6F707238
:10065000737577787A7B7D7E8082838587888A8CA4
:100660008E8F91939596989A9C9EA0A2A3A5A7A9D8
:10067000ABADAFB1B3B5B7BABCBEC0C2C4C6C9CBCF
:10068000CDCFD1D4D6D8DBDDDFE2E4E7E9EBEEF085
:10069000F3F5F8FAFDFF20034500720067006F00D4
:1006A00044006F007800200045005A0020004700F9
:1006B0006C006F007700000028035A0053004100CF
:1006C000200054006500630068006E006F006C003D
:1006D0006F006700790020004C0061006200730029
:1006E00000000403090409025400030100A0FA09F0
:1006F0000400000103010100092111010001224051
:10070000000705810308000109040100010301023B
:10071000000921110100012247000705820308009A
:100720000109040200010300000009211101000178
:10073000226D000705830320000112010002000062
:100740000008973276490100010200010501098085
:10075000A101850319012AB700150126B7009501EB
:1007600075108100C0050C0901A101850419012A39
:10077000A002150126A002950175108100C0050197
:100780000906A1018506050719E029E715002501DD
:100790009508750181020507190029EF150025014B
:1007A00095F0750181020508190129059505750166
:1007B0009102950175039101C005010902A101098A
:1007C00001A10005091901290815002501950875E1
:1007D0000181020501093009311581257F950275D6
:1007E00008810609381581257F9501750881060560
:1007F0000C0A38021581257F950175088106C0C055
:1008000005010906A101050719E029E715002501E1
:100810009508750181029501750881010507190088
:1008200029FF150026FF00950675088100050819A7
:10083000012905950575019102950175039101C086
:1008400011241FBECFEFDAE0DEBFCDBF12E0A0E083
:10085000B1E0E4EEF9E702C005900D92A23DB107C8
:10086000D9F726E0A2EDB2E001C01D92AB3BB20782
:10087000E1F70E949F1A0C94F03C0C9400008098C1
:10088000889A8198899A84988C9A85988D9A869866
:100890008E9A87988F9A0895209828982198299859
:1008A00022982A9823982B9852985A9853985B9894
:1008B0003E9846980895CF93E82F873080F5809131
:1008C000EE019091EF01892B09F047C0CE2F64E62D
:1008D00070E080E40E9435309093EF018093EE0148
:1008E000892BD1F464E670E082E10E94B6309093E7
:1008F000EF018093EE01892B79F481E090E001C053
:10090000880FCA95EAF764E670E080950E94B630D9
:100910009093EF018093EE01CF910C94323190E0EF
:10092000FC013797E730F105C0F4EA5AFF4F0C9409
:10093000BE3A209A289811C0219A29980EC0229A6E
:100940002A980BC0239A2B9808C0529A5A9805C02F
:10095000539A5B9802C03E9A4698CF910895CF93E0
:10096000873040F58091EE019091EF01892B59F588
:1009700064E670E081E40E9435309093EF0180934B
:10098000EE01892B11F0C0E011C084E690E00E94D6
:10099000E63097FF05C09093EF018093EE01F3CF0F
:1009A000C82FC0951092EF011092EE010E943231D3
:1009B0008C2F0AC09FB18FB1807F869586959370EA
:1009C000892B809501C080E0CF9108950E94F105A8
:1009D00090E09093EF018093EE010E944C040C9400
:1009E0003F04EF92FF920F931F93CF93DF93809179
:1009F000EE019091EF01892BA1F08091D4028F5FDD
:100A00008093D40281110DC00E94F10590E0909373
:100A1000EF018093EE01892B21F40E945A050E9478
:100A2000CA290CE415E0C0E0F12C87E0E82EEC0EBA
:100A30008C2F0E945B048E2D0E945B048C2F0E94E1
:100A4000AF048F73F8019081891719F08083D1E08A
:100A500001C0D0E08E2D0E94AF048F73F801978102
:100A6000891719F0878381E001C080E0D82BFD2A27
:100A70000E944C04CF5F0F5F1F4FC730B1F68F2D20
:100A8000DF91CF911F910F91FF90EF9008950E94F9
:100A9000F10590E09093EF018093EE010E944C04E9
:100AA0000E943F04EAE5F5E0119285E0E836F80798
:100AB000D9F7089556985E9825982D9826982E98DF
:100AC00027982F988FEF90E090938900809388006B
:100AD00090938B0080938A0090938D0080938C007C
:100AE000259A2D9A2FEF80E792E021508040904088
:100AF000E1F700C00000269A2E9A2FEF80E792E0DF
:100B0000215080409040E1F700C00000279A2F9AC2
:100B10002FEF80E792E0215080409040E1F700C045
:100B2000000025982D982FEF80E792E0215080401B
:100B30009040E1F700C0000026982E982FEF80E744
:100B400092E0215080409040E1F700C000002798DB
:100B50002F9856985E9825982D9826982E98279825
:100B60002F98089589EA8093800089E0809381001E
:100B700024982C983F988AB18F7C8AB96E98479AAE
:100B80008BB180638BB9769A0E94361660934605C6
:100B900070934705809348059093490567708FEFE0
:100BA000689FB001112475956795759567957727AE
:100BB000709389006093880070938B0060938A0023
:100BC00070938D0060938C008091460584FF02C075
:100BD0008FEF01C080E00E94FF2A0E945A050C940A
:100BE000D41980E290E09093EF018093EE01809120
:100BF000D50281110EC00E942F3081E08093D50272
:100C00002FEF83ED90E3215080409040E1F700C04A
:100C1000000064E670E080E40E9435309093EF01BC
:100C20008093EE01892B09F04EC064E670E080E00D
:100C30000E94B6309093EF018093EE01892B09F06A
:100C400042C064E670E080E00E94B6309093EF010D
:100C50008093EE01892BB9F564E670E08FE30E9482
:100C6000B6309093EF018093EE01892B61F50E94DD
:100C7000323164E670E080E40E9435309093EF01F9
:100C80008093EE01892BF9F464E670E08CE00E9419
:100C9000B6309093EF018093EE01892BA1F464E6C6
:100CA00070E080E00E94B6309093EF018093EE01F7
:100CB000892B49F464E670E08FE30E94B63090938C
:100CC000EF018093EE010E9432318091EE01089590
:100CD000109246051092470510924805109249055A
:100CE00084E08061809346056091460570914705D8
:100CF00080914805909149050E943A160C94461639
:100D00000C94D2190C94202A2F923F924F925F920A
:100D10006F927F928F929F92AF92BF92CF92DF920B
:100D2000EF92FF920F931F93CF93DF93809146052D
:100D300083FD51C3E0910703F09108033196F093CE
:100D40000803E09307032091F001622F70E0CF01C8
:100D50000E94883A892B29F4809106038F5F809343
:100D600006032695622F70E0CF010E94883A332453
:100D70003394892B09F0312C512CF0E82F2E45E1CA
:100D8000842E42E0942E5DE2A52E52E0B52E65E45D
:100D9000C62E62E0D62E71E2E72E72E0F72EE9E36E
:100DA0006E2EE2E07E2E442443948AEF840D82303E
:100DB000E8F182E0581681F0851520F0E1E05E163A
:100DC00049F006C0F3E05F1649F084E0581641F0A0
:100DD000F60107C0F30105C0F50103C0F70101C02A
:100DE000F401C081D0E0CF3FD10501F18E010A525C
:100DF0001D4FF8018081882311F083198083652DB0
:100E0000842D0E94B519882311F0F8012082609189
:100E10000603F8018081681B7FEF8FEF0E94C41DDD
:100E2000462F282F672FCE010E94CC204394FFEF3E
:100E30008F1A9F0A8FEFA81AB80AEFEFCE1ADE0AB0
:100E4000FFEFEF1AFF0A8FEF681A780AEDE04E12F3
:100E5000ACCF5394F5E05F1292CF80910D038823BD
:100E600009F4B9C24091090341704195242F6FEFF5
:100E700083E090E00E94CC204091090350910A0346
:100E800060910B0370910C03769567955795479584
:100E900041704195242F6FEF82E090E00E94CC20BA
:100EA0004091090350910A0360910B0370910C0368
:100EB00092E076956795579547959A95D1F7417049
:100EC0004195242F6FEF81E090E00E94CC2040916B
:100ED000090350910A0360910B0370910C0323E006
:100EE00076956795579547952A95D1F74170419525
:100EF000242F6FEF80E090E00E94CC204091090306
:100F000050910A0360910B0370910C0334E07695C5
:100F10006795579547953A95D1F741704195242F9C
:100F20006FEF89E190E00E94CC204091090350913D
:100F30000A0360910B0370910C03E5E076956795C9
:100F400057954795EA95D1F741704195242F6FEF5A
:100F50008AE190E00E94CC204091090350910A035D
:100F600060910B0370910C03F6E0769567955795A9
:100F70004795FA95D1F741704195242F6FEF8BE19A
:100F800090E00E94CC204091090350910A036091A7
:100F90000B0370910C03A7E07695679557954795DD
:100FA000AA95D1F741704195242F6FEF8CE190E025
:100FB0000E94CC2040910A0341704195242F6FEF8D
:100FC00088E090E00E94CC204091090350910A03F0
:100FD00060910B0370910C03B9E076956795579576
:100FE0004795BA95D1F741704195242F6FEF87E06F
:100FF00090E00E94CC204091090350910A03609137
:101000000B0370910C03CAE0769567955795479549
:10101000CA95D1F741704195242F6FEF86E090E09B
:101020000E94CC204091090350910A0360910B0368
:1010300070910C03DBE07695679557954795DA95A7
:10104000D1F741704195242F6FEF85E090E00E9429
:10105000CC204091090350910A0360910B037091D9
:101060000C031CE076956795579547951A95D1F72F
:1010700041704195242F6FEF8EE190E00E94CC20CB
:101080004091090350910A0360910B0370910C0386
:101090000DE076956795579547950A95D1F741707C
:1010A0004195242F6FEF8FE190E00E94CC2040917A
:1010B000090350910A0360910B0370910C038EE0B9
:1010C00076956795579547958A95D1F741704195E3
:1010D000242F6FEF80E290E00E94CC204091090322
:1010E00050910A0360910B0370910C039FE0769579
:1010F0006795579547959A95D1F741704195242F5B
:101100006FEF81E290E00E94CC2040910B03417090
:101110004195242F6FEF8DE090E00E94CC2040910C
:10112000090350910A0360910B0370910C0321E1B4
:1011300076956795579547952A95D1F741704195D2
:10114000242F6FEF8CE090E00E94CC2040910903A7
:1011500050910A0360910B0370910C0332E1769574
:101160006795579547953A95D1F741704195242F4A
:101170006FEF8BE090E00E94CC20409109035091EA
:101180000A0360910B0370910C03E3E17695679578
:1011900057954795EA95D1F741704195242F6FEF08
:1011A0008AE090E00E94CC204091090350910A030C
:1011B00060910B0370910C03F4E176956795579558
:1011C0004795FA95D1F741704195242F6FEF83E24F
:1011D00090E00E94CC204091090350910A03609155
:1011E0000B0370910C03A5E176956795579547958C
:1011F000AA95D1F741704195242F6FEF84E290E0DA
:101200000E94CC204091090350910A0360910B0386
:1012100070910C03B6E17695679557954795BA9509
:10122000D1F741704195242F6FEF85E290E00E9445
:10123000CC204091090350910A0360910B037091F7
:101240000C03C7E17695679557954795CA95D1F7F1
:1012500041704195242F6FEF86E290E00E94CC20F0
:1012600040910C0341704195242F6FEF82E190E093
:101270000E94CC204091090350910A0360910B0316
:1012800070910C03D9E17695679557954795DA9556
:10129000D1F741704195242F6FEF81E190E00E94DA
:1012A000CC204091090350910A0360910B03709187
:1012B0000C031AE176956795579547951A95D1F7DE
:1012C00041704195242F6FEF80E190E00E94CC2087
:1012D0004091090350910A0360910B0370910C0334
:1012E0000BE176956795579547950A95D1F741702B
:1012F0004195242F6FEF8FE090E00E94CC20409129
:10130000090350910A0360910B0370910C038CE167
:1013100076956795579547958A95D1F74170419590
:10132000242F6FEF88E290E00E94CC2040910903C7
:1013300050910A0360910B0370910C039DE1769527
:101340006795579547959A95D1F741704195242F08
:101350006FEF89E290E00E94CC2040910903509108
:101360000A0360910B0370910C032EE1769567954B
:10137000579547952A95D1F741704195242F6FEFE6
:101380008AE290E00E94CC204091090350910A0328
:1013900060910B0370910C03442777FD439555270B
:1013A000662777274195242F6FEF8BE290E0DF913E
:1013B000CF911F910F91FF90EF90DF90CF90BF9052
:1013C000AF909F908F907F906F905F904F903F90E5
:1013D0002F900C94CC20DF91CF911F910F91FF9013
:1013E000EF90DF90CF90BF90AF909F908F907F90C5
:1013F0006F905F904F903F902F900895FB018B3A34
:101400002DE5920759F148F4893A2DE5920771F0DC
:10141000F0F4843C9C4589F03EC08D3A2DE592075E
:1014200049F118F18E3A9D4569F135C082818823D2
:1014300099F181E00E94412A2CC08281882361F1C8
:1014400090910D0381E0891B80930D0322C082815E
:10145000882311F18091F0018F5F19C08281882368
:10146000D9F08091F001815012C082818823A1F0CF
:1014700084E00DC08281882379F08091F00180930F
:10148000F10107C08281882339F08091F1018093B6
:10149000F00180E0089581E008950F931F938B0180
:1014A0009C011160226033600093090310930A03CA
:1014B00020930B0330930C0356985E9825982D9833
:1014C00026982E9827982F9861FF02C0259A2D9A6A
:1014D00062FF02C0269A2E9A63FF02C0279A2F9AB3
:1014E0001F910F91089581E008950C94FE090895CD
:1014F0000C94770A1F93CF93DF9300D000D01F92F4
:10150000CDB7DEB749835A836B8330910F0389814E
:101510009A81311114C0662359F0222349F00E94A8
:101520007C11182F682F89819A810E94231103C092
:101530000E944F11182F69817A81812F04C00E9467
:101540007C1169817A810F900F900F900F900F900E
:10155000DF91CF911F910C949F18FC01262F4081A1
:1015600051816281738184810C947A0A81E00895AB
:10157000CF93DF93EC0160E00E94AD0ABE01DF91E2
:10158000CF910C94780A0C94B2050C9480060895BF
:101590000E94260D0E94C70A2FEF84E39CE0215091
:1015A00080409040E1F700C000000C945D330F9341
:1015B0001F93CF93DF938C0161E00E94AD0AEC0191
:1015C000B8010E94750A882309F444C0B801CE010D
:1015D0000E94DD2F8823F1F1B801CE010E94F12D88
:1015E0008823C1F1B801CE010E94392F882391F1DF
:1015F000B801CE010E94542D882361F1F801828147
:10160000882309F1CB358DE5D807C1F050F4C11519
:10161000FCE5DF0781F0CF3DDC45A9F40E94AA1666
:1016200019C0CC35EDE5DE0761F0CD35DD4559F467
:101630000E94F61508C00E94C80A0CC00E94FF153F
:1016400002C00E940216C801DF91CF911F910F9135
:101650000C94730A80E0DF91CF911F910F91089550
:101660000E9478320E9462290E94510B81E00C9402
:10167000E8290E94540B80E00E94E8290C947C32F7
:1016800008950C94400B81E008950C94430B089549
:10169000CF93C82F0E94410B8C2F0E94450BCF91F6
:1016A000089580E00C94480B0E9440310C94480B44
:1016B0000E94403190910E03891721F080930E0310
:1016C0000C94480B0895CF93DF93CDB7DEB72B97DB
:1016D0000FB6F894DEBF0FBECDBF942F4F83252FDA
:1016E000588769877A878B874A855B85452B31F0D8
:1016F0002F3F31F481E09F3F19F403C081E001C026
:1017000080E080FD09C08091100390911103019643
:101710009093110380931003898581110E944215D3
:101720009E012F5F3F4F86E0F90111928A95E9F7FC
:1017300085E0FE013796D90101900D928A95E1F777
:1017400089819A814C815D81452B31F09F3F31F435
:1017500091E08F3F19F403C091E001C090E090FF49
:1017600009C049815A816B817C818D819E810E9453
:10177000631405C0C9010E94B60A8111F2CF2B96ED
:101780000FB6F894DEBF0FBECDBFDF91CF910895A5
:10179000FC01808191810E94BE110895CF9388231E
:1017A00009F4A4C0C82F8238C1F40E94403181FDE1
:1017B0009DC069E38091F4019091F5010E9433325C
:1017C0000E9464152FEF81EE94E0215080409040FC
:1017D000E1F700C0000069E319C0833801F50E94F9
:1017E000403180FD83C063E58091F4019091F50163
:1017F0000E9433320E9464152FEF81EE94E0215055
:1018000080409040E1F700C0000063E58091F40162
:101810009091F5010E943E32CF910C94641584386A
:10182000C1F40E94403182FD61C067E48091F401FF
:101830009091F5010E9433320E9464152FEF81EEE2
:1018400094E0215080409040E1F700C0000067E440
:10185000DDCF8CEF8C0F813AD0F46C2F8091F401A6
:101860009091F5010E94B331882349F06C2F80914B
:10187000F4019091F5010E943E320E9464156C2F94
:101880008091F4019091F5010E943332C5CF80E23E
:101890008C0F883048F4C77081E001C0880FCA956A
:1018A000EAF70E942515B8CFEBE5EC0FE33040F4E2
:1018B000F0E0E158FD4F808190E0CF910C947131C0
:1018C000E8E5EC0FE73150F4F0E0EE0FFF1FEF5AC0
:1018D000FD4F80819181CF910C948731CD3E30F0C6
:1018E0008C2F0E94241BCF910C94F61BCF9108954E
:1018F000882309F464C0823879F40E94403181FF62
:101900005EC069E38091F4019091F5010E94333249
:101910000E94641569E310C08338B1F40E9440311D
:1019200080FF4DC063E58091F4019091F5010E9424
:1019300033320E94641563E58091F4019091F501C2
:101940000E943E320C946415843879F40E94403130
:1019500082FF35C067E48091F4019091F5010E9407
:1019600033320E94641567E4E7CF9CEF980F913AF9
:1019700010F4682FE1CF90E2980F983050F4877000
:1019800091E001C0990F8A95EAF7892F0E942B15E3
:10199000D9CF9BE5980F933020F480E090E00C9431
:1019A000713198E5980F973120F480E090E00C9425
:1019B00087318D3E20F00E947F1B0C94F61B08950A
:1019C0001F93CF93DF93182FEB010E94CE0B20972C
:1019D00041F08FE99FE00197F1F700C000002197E7
:1019E000F6CF812FDF91CF911F910C94780C893322
:1019F00019F060E070E002C060E570E00C94E00C6B
:101A0000882321F00E9425150C94641508958823DD
:101A100021F00E942B150C946415089580E090E04D
:101A20000E94713180E090E00E9487310E9442154F
:101A30000E9464150E94261D0C94F61B8091F401EF
:101A40009091F5010E9449320C940E0D0E943215BE
:101A50000C941E0D92959F70963079F010F4925070
:101A600001C09A50923068F4803F69F018F4883EC3
:101A700040F409C0843F29F406C0883E20F0813F2D
:101A800011F080E0089581E00895FC01808191814A
:101A90000E94BE110E942A0D08958F929F92AF92CC
:101AA000BF92CF92DF92EF92FF920F931F93CF934B
:101AB000DF936C01C62F172FFC01D281058102959F
:101AC0000F700E941B158823B9F0DD23A9F0812F28
:101AD000807F803421F080E28C0F883068F0809124
:101AE0004B0582FD09C082E00E94C4150E941B15AF
:101AF00091E0E82EE92601C0E12CB12EB2942FE04E
:101B0000B2228B2D90E08C30910508F0D1C1FC0100
:101B1000E35AFF4F0C94BE3A912F9F70812F807F24
:101B2000F92E19F0F29490EFF922DD2399F0FF20BD
:101B300009F4AAC180E28C0F883010F0C11104C0F2
:101B40008F2D0E94251503C08F2D0E9435150E94F0
:101B500064159AC18C2F0E94780CFF2009F4A8C14B
:101B600080E28C0F883050F1CC2341F18F2D0E9400
:101B70003B1527C0912F9F70812F807FF92E8032D7
:101B800019F0F29480EFF822CC2319F0C130A1F1C2
:101B90003FC080914B0582FF17C0DD2349F0FF2035
:101BA00029F08F2D0E9425150E94641580E06DC1DB
:101BB00080E00E94780CFF2009F47AC18F2D0E94EA
:101BC0002B150E94641574C1DD2371F0002341F0D0
:101BD000013031F40E9445158F290E944D1568C1CE
:101BE0000E9445158F290EC0002319F0013009F419
:101BF0005FC10E945A151EC0DD2339F0023008F083
:101C000057C18F2D0E94000D53C1011151C112C047
:101C1000DD2319F00023A9F337C1002359F0C9339C
:101C200009F043C1FFEF27EE83E0F15020408040F0
:101C3000E1F739C18F2D0E94070D3AC1812F86959A
:101C40008695837019F0813061F032C1DD2321F077
:101C50008C2F912F937002C080E090E00E94713130
:101C60002FC1DD2321F08C2F912F937002C080E0D3
:101C700090E00E94873124C18C2FDD2319F00E944F
:101C8000241B02C00E947F1B0E94F61B19C1812FDA
:101C9000837009F048C0D1110FC12C2F22952695D1
:101CA0002770220F220F6C2F6F70862F90E0A0E01C
:101CB000B0E0022E04C0880F991FAA1FBB1F0A9410
:101CC000D2F7C4FF10C04FE050E060E070E004C005
:101CD000440F551F661F771F2A95D2F740955095E0
:101CE0006095709503C040E050E0BA01212F269521
:101CF000269523704A015B01882A992AAA2ABB2AC1
:101D0000C501B401223049F058F4213019F00E9485
:101D10003910D2C00E942710CFC00E944B10CCC0F7
:101D20000E942510C9C0DD2319F0812F817001C0E8
:101D30008695882309F4C0C02C2F229526952770FC
:101D4000220F220F6C2F6F70862F90E0A0E0B0E082
:101D5000022E04C0880F991FAA1FBB1F0A94D2F736
:101D6000C4FF10C04FE050E060E070E004C0440FDA
:101D7000551F661F771F2A95D2F74095509560959D
:101D8000709503C040E050E0BA01212F26952695BA
:101D900023704A015B01882A992AAA2ABB2AC50115
:101DA000B401223049F058F4213019F00E94FE109D
:101DB00083C00E94EC1080C00E9410117DC00E9460
:101DC0005F107AC0212F2F70F22EDD2339F0822F81
:101DD0000E9485108C2F0E94000D6EC08C2F0E94D7
:101DE000070D8F2D0E94A61067C0C23F19F128F47D
:101DF000C03F41F0C13FB9F043C0C33F11F1C43F00
:101E000071F03EC0DD2339F0011152C0812F8F7176
:101E10000E94CB104DC0023008F04AC0F7CF80912D
:101E20004B0582FF18C0DD2339F0812F8F710E948E
:101E300085103EC0DD23C9F3812F8F710E94A6104B
:101E400037C0DD2329F0812F8F710E94701030C0C0
:101E50000E946B102DC0DD2351F0812F8F71F82E61
:101E60000E94851063E08F2D0E94A91521C081E09A
:101E70000E94C4150230E0F082E00E94C41518C030
:101E8000DD2331F0002389F28C2F0E94CE0B10C08D
:101E9000002391F2C93349F49FEFE7EEF3E091504C
:101EA000E040F040E1F700C000008C2F0E94780C69
:101EB00088EF8B0D843020F40E9440310E94480B43
:101EC0008C2F912F0E942A0D811105C010921103B1
:101ED0001092100311C0DD2319F00111F7CF0CC0CF
:101EE0000111F4CF8091100390911103029771F7C3
:101EF0008C2F0E94F70CEACFEE20E9F00E94171514
:101F000080FD19C0F60112820E9411150E948510F1
:101F1000C6010E94C00F0E941115DF91CF911F9141
:101F20000F91FF90EF90DF90CF90BF90AF909F9078
:101F30008F900C94A610DF91CF911F910F91FF907D
:101F4000EF90DF90CF90BF90AF909F908F900895CB
:101F50000F931F93CF93DF93EC01688179818A817E
:101F60000E94C9118C010E9422110E941310B80115
:101F7000CE010E944D0DDF91CF911F910F910895D9
:101F8000CF93DF93EC01988189812B813C81232BB6
:101F900031F08F3F31F481E09F3F19F403C081E0BD
:101FA00001C080E080FD1DC0CE010E94D70A8111D2
:101FB00010C00E941B158823A1F08A81882389F014
:101FC00080914B0582FD0DC082E0DF91CF910C9492
:101FD000C415CE010E94A80FCE01DF91CF910C94C1
:101FE000B80ADF91CF910895CF93DF9300D000D04E
:101FF0001F92CDB7DEB70F900F900F900F900F90FC
:10200000DF91CF910895CF93DF9300D000D000D01F
:10201000CDB7DEB726960FB6F894DEBF0FBECDBFA4
:10202000DF91CF910895089508950C9414100C94A5
:1020300015100E94171060934D0370934E03809308
:102040004F03909350030C940E0D0C9419100F93A2
:102050001F9300914D0310914E0320914F03309137
:102060005003602B712B822B932B1F910F910C949B
:1020700019100F931F9300914D0310914E0320915F
:102080004F033091500360237123822393231F91C8
:102090000F910C9419100F931F9300914D03109101
:1020A0004E0320914F033091500360277127822700
:1020B00093271F910F910C9419100C944D0A0E94B4
:1020C0005D106093490370934A0380934B03909390
:1020D0004C030C940E0D60E070E0CB010C945F108B
:1020E0000F931F9341E050E060E070E08A019B0194
:1020F00004C0000F111F221F331F8A95D2F7C90198
:10210000B8011F910F910C945F100F931F9341E042
:1021100050E060E070E004C0440F551F661F771F59
:102120008A95D2F78091490390914A03A0914B037D
:10213000B0914C038A019B01082B192B2A2B3B2BB6
:10214000C901B8011F910F910C945F100F931F9359
:1021500041E050E060E070E004C0440F551F661F8E
:10216000771F8A95D2F7409550956095709580912C
:10217000490390914A03A0914B03B0914C038A010B
:102180009B01082319232A233B23C901B8011F916E
:102190000F910C945F100F931F9341E050E060E0AB
:1021A00070E004C0440F551F661F771F8A95D2F751
:1021B0008091490390914A03A0914B03B0914C0345
:1021C0008A019B01082719272A273B27C901B80143
:1021D0001F910F910C945F100F931F93009149036F
:1021E00010914A0320914B0330914C03602B712BCB
:1021F000822B932B1F910F910C945F100F931F93C1
:102200000091490310914A0320914B0330914C03F4
:1022100060237123822393231F910F910C945F10ED
:102220000F931F930091490310914A0320914B0390
:1022300030914C0360277127822793271F910F91BC
:102240000C945F100895292F220F920F990F890F78
:10225000E82FE695E695E695877051E001C0550FA9
:102260008A95EAF785E0E89FF0011124EE5EFC4FC5
:1022700020E030E070E04081CB01022E02C0969554
:1022800087950A94E2F781708195842785238427B6
:1022900081932F5F3F4F2530310569F70895292F2E
:1022A000220F920F990F890F682F66956695669594
:1022B000982F977085E0689FB001112440E050E0AE
:1022C00080E0FB01E40FF51FEE5EFC4F208130E063
:1022D000092E02C0369527950A94E2F7217033271C
:1022E000042E01C0220F0A94EAF7822B4F5F5F4F42
:1022F0004530510531F70895BF92CF92DF92EF92AA
:10230000FF920F931F93CF93DF938C01C0904903EB
:10231000D0904A03E0904B03F0904C0380914D0322
:1023200090914E03A0914F03B0915003C82AD92A2F
:10233000EA2AFB2ACFE1D0E0D701C6010C2E04C067
:10234000B695A795979587950A94D2F780FD04C016
:10235000219790F7B12C07C0BC2EB8018C2F0E949A
:10236000B2180197A9F38B2DDF91CF911F910F9197
:10237000FF90EF90DF90CF90BF900895CF93DF93C1
:10238000EC010E947C11BE010E94B218DF91CF9136
:1023900008951F93CF93DF93EB0190910F0399233F
:1023A00021F0CB010E94BE1113C0882349F0CB015C
:1023B0000E947C11182F682FCE010E94231104C0A7
:1023C000CB010E944F11182FBE01812F0E94B2181D
:1023D000DF91CF911F9108951F93CF93DF93C09109
:1023E000510316E080915203C81799F0D0E01C9F6A
:1023F000F0011D9FF00D1124ED5AFC4F40815181D9
:1024000062817381848195810E9403102196C77037
:10241000E9CFDF91CF911F910895409183035091AF
:102420008403609185037091860380918703909166
:1024300088030C940310EF92FF920F931F93CF9396
:10244000DF938091880382958F7009F065C0809139
:102450008503882309F460C080915103F0905203F2
:102460001091830300918403609186037091870328
:1024700091E01F3F09F090E0C091F201D091F3018B
:10248000292F96E0E92E8F1509F446C061157105D4
:1024900021F00F3F21F030E003C031E001C0322FC6
:1024A00090E030FD36C0E89EF001E99EF00D112469
:1024B000DF01AD5ABC4F11963C911197301329C0E2
:1024C0003C91311326C012963C911297311121C0D4
:1024D00013964D915C911497461B570B4C175D0753
:1024E000C0F4809188038F70806180938803E85ADC
:1024F000FC4F80818F708061808383E893E00E942D
:10250000C00FDF91CF911F910F91FF90EF900C942E
:10251000EC1101968770B7CFDF91CF911F910F918A
:10252000FF90EF9008959F92AF92BF92CF92DF926B
:10253000EF92FF920F931F93CF93DF93CDB7DEB748
:1025400061970FB6F894DEBF0FBECDBF8C0185E05A
:10255000F801DE011D9601900D928A95E1F7D801F0
:102560001296EC9090918303E0918403209186036E
:10257000309187032115310531F0EF3F31F481E0CF
:102580009F3F19F403C081E001C080E0B82FB17013
:102590009B2E80FD47C1D8014C9111965C911197FB
:1025A0001396AD90BC90149783E8C82E83E0D82E84
:1025B000F0908503B501621B730B2091F2013091FD
:1025C000F301FF2009F4D9C08091880362177307D3
:1025D00008F095C0282F207F09F052C05E1313C069
:1025E000491311C0FE2CE1100EC08F7080618093E2
:1025F00088030E940D12C6010E94C00F80918803BB
:10260000F80185834DC1AB2831F05F3F31F481E0A3
:102610004F3F19F403C081E001C080E080FD03C09A
:1026200081E08E2502C080E090E0F82FF170FF2E4F
:1026300080FF1CC0809151032091520336E0821725
:1026400009F40BC190E0389FF001399FF00D11247F
:10265000ED5AFC4F6181561306C06081461303C0DA
:102660006281E61203C001968770E9CFFE2CEE204E
:1026700009F416C18091880381608093880354C057
:102680005E1306C0491304C0E11002C0F80199C0EE
:10269000C8010E94450D882361F1EE2051F120917F
:1026A0008803822F82958F7090E0029774F080915A
:1026B00083039091840398878F831986BB86AA86AB
:1026C0002C87CE0107960E94C00F86E0F801A3E890
:1026D000B3E001900D928A95E1F70E941B120E94CF
:1026E0000D120AC05E1711F1C8010E94450D81113B
:1026F0002CC0C8010E94C00FFF24F394D1C0282F22
:10270000207F81F77A2DB98AA88A6E2D89890E9447
:10271000F40F83E893E00E94C00F86E0D6011D927B
:102720008A95E9F70E940D12F12CBAC04913DCCF4B
:10273000E110DACFF8018583C8010E94C00F86E05E
:10274000D6011D928A95E9F7ABC0EE2091F2209157
:102750008803822F82958F7090E002970CF4B5CF9A
:1027600080918303909184039A8389831B82BD8225
:10277000AC822E83CE010196A6CF6217730708F0B4
:1027800044C0FE2CEE2009F4B4CF5E1330C04913D0
:102790002EC02091880320FD21C0822F82958F704A
:1027A000482F50E041155105C9F0F80125834F30FD
:1027B000510541F08F5F982F9295907F822F8F70F7
:1027C000892B8583C8010E94C00F86E0F801A3E829
:1027D000B3E001900D928A95E1F73CC086E0F801E4
:1027E000A3E8B3E001900D928A95E1F759C0C801C2
:1027F0000E94450D811169CF80918803816080938B
:102800008803C8010E94C00F4BC07A2DB98AA88ADC
:102810006E2D89890E94F40F86E0D6011D928A955B
:10282000E9F718C0EE2009F464CFC8010E94450DF5
:10283000F82E882309F45DCF86E0F801A3E8B3E021
:1028400001900D928A95E1F783E893E00E94C80B0E
:102850000E941B120E940D1223C04D875E878D853A
:102860009E850E94BE11292F22952F70223028F4B8
:102870009F7039F0811105C00BC0243028F49F707F
:1028800049F4805E883020F0C8010E94C00F9F2C60
:10289000F92C06C0D80115969C91907F91F7F8CF3E
:1028A0008F2D61960FB6F894DEBF0FBECDBFDF91BE
:1028B000CF911F910F91FF90EF90DF90CF90BF903D
:1028C000AF909F9008951F93CF93DF93CDB7DEB75E
:1028D0002C970FB6F894DEBF0FBECDBF4F8358873D
:1028E00069877A878B879C87CE0107960E9493120F
:1028F0008823D1F09F8188852A853B85232B31F061
:102900008F3F31F481E09F3F19F403C081E001C0A3
:1029100080E080FD47C04F81588569857A858B8529
:102920009C850E9403103EC086E0FE013796DE01C2
:10293000119601900D928A95E1F7FF81E8856A85ED
:102940007B856115710531F0EF3F31F481E0FF3F88
:1029500019F403C081E001C080E080FD23C0209114
:10296000520330E0C90101968770992740915103C5
:1029700050E084179507F1F1F983EA837D836C8336
:1029800096E0929FD001939FB00D1124AD5ABC4F99
:10299000FE01319601900D929A95E1F780935203D2
:1029A0000E94EC1116E08091510390915203891717
:1029B00071F1189FC00111248D5A9C4F0E949312EF
:1029C000882329F1E09151031E9FF0011124ED5A53
:1029D000FC4F4081518162817381848195810E9485
:1029E00003108091510390E001968770992780939E
:1029F0005103D9CF0E94260D109252031092510319
:102A0000E3E8F3E086E0DF011D928A95E9F72C9672
:102A10000FB6F894DEBF0FBECDBFDF91CF911F91EF
:102A200008958091A9038595859585950895809150
:102A3000A903877008959091A903977081E009F424
:102A400080E008958091CC0308959091CC03892B68
:102A50008093CC03089580959091CC038923809333
:102A6000CC0308951092CC0308959091CB03892B49
:102A70008093CB03089580959091CB038923809315
:102A8000CB0308951092CB0308958091AA03089573
:102A900008950C9448150C94491590914B0592FD9E
:102AA00008C09091AA03981721F08093AA030C9470
:102AB0004B1508958091AA03882329F01092AA0348
:102AC00080E00C944B150895CF93DF93E091F401CF
:102AD000F091F5018091CC038083E091F401F091B5
:102AE000F50190818091CB03892B80838091AA038B
:102AF000882381F0E091F401F091F5019081892B18
:102B000080838091F4019091F5010E949D318111A3
:102B10000E945A15C091F401D091F50140E250E0B5
:102B200069E873E0CE010E944A3C892B69F080E29B
:102B3000FE01A9E8B3E001900D928A95E1F7CE017C
:102B4000DF91CF910C944C31DF91CF9108950C948B
:102B5000481590914B0592FD10C098E0899F900117
:102B60001124262B2093A9030E9485108091A9038C
:102B70008595859585950C94A7150C9485101092D4
:102B8000A90380E00C94A7152091A90380958223C6
:102B90008093A903982F977099F430E0482F082E5E
:102BA000000C550B2417350759F090914B0592FDF9
:102BB00007C08595859585950E94A6100C94BF1534
:102BC000089590914B0592FB222720F9281769F070
:102BD00080FB92F990934B0580914A0590914B05AB
:102BE0000E94291682E00C94C415089580914B052B
:102BF00082FB882780F991E089270C94E11581E018
:102C00000C94E11580E00C94E11580E090E00E94C6
:102C1000753C21E0893E9E4F09F020E0822F089507
:102C200082E090E00C94673C83E090E00C94673C79
:102C3000CF9384E090E00E94673CC82F82E290E04E
:102C40000E94673C2C2F30E0A901582BCA01CF917C
:102C50000895CF93C92F682F84E090E00E948B3CA9
:102C60006C2F82E290E0CF910C948B3C8FE090E04F
:102C70000C946F3CAB01BC018FE090E00C949D3C48
:102C8000AB01BC0183E190E00C949D3C60E070E0FE
:102C9000CB010C94401669EE7EEF80E090E00E943C
:102CA000A93C60E082E090E00E948B3C60E083E021
:102CB00090E00E948B3C10924D0310924E031092B4
:102CC0004F031092500360E084E090E00E948B3C40
:102CD00060E082E290E00E948B3C60E085E090E062
:102CE0000E948B3C60E086E090E00E948B3C6FEF9E
:102CF00087E090E00E948B3C40E050E0BA0188E021
:102D000090E00E949D3C60E08DE090E00E948B3C52
:102D100040E050E0BA0188E190E00E949D3C60E014
:102D200087E190E00E948B3C40E050E0BA018CE1EA
:102D300090E00E949D3C60E070E080E290E00E94A4
:102D4000A93C40E050E0BA0188E190E00E949D3C3F
:102D50000C9468060C944B16682F8EE090E00C944F
:102D60008B3C0E9400336093DF037093E0038093F9
:102D7000E1039093E2036093DB037093DC038093A1
:102D8000DD039093DE03089585B7806885BF85B71E
:102D9000806885BF089581E008950C94CB1608954E
:102DA0000C94CF160C9482060C94CF160C94D41667
:102DB0000C94CF160E94C4168EE899E10E94363119
:102DC0000E94D8160C94D6160E94D0160C94CF16DA
:102DD0000E9491190E94470B0C94CA290E94EB3261
:102DE0000E94D6190E94E8160C94D2168F929F92D8
:102DF000AF92BF92CF92DF92EF92FF920F931F9309
:102E0000CF93DF93CDB7DEB72A970FB6F894DEBF26
:102E10000FBECDBF0E94E719982E81110E94B116F6
:102E20008DECA82E83E0B82E00E010E0802E802FDD
:102E30000E94CA19D82EF501C1905F01C826B1F4CD
:102E40000F5F1F4F0E30110589F78FEF89838A833B
:102E50001B820E94F4328160782F9D838C8349818C
:102E60005A816B818D810E94630B38C08091E3038E
:102E700081FD0E94D019F12CEE24E3948C2D8E213B
:102E800039F10E94CD16DE20882399F0FE828F82D0
:102E900081E0D11001C080E088870E94F432816017
:102EA000782F9A8789874E815F8168858A850E94FD
:102EB000630BF801E353FC4F8081E826E08241E098
:102EC000D11001C040E06F2D882D0E94C02506C0A2
:102ED000F394EE0CF6E0FF12D1CFB2CF81E0911067
:102EE00001C080E02A960FB6F894DEBF0FBECDBFBA
:102EF000DF91CF911F910F91FF90EF90DF90CF90D6
:102F0000BF90AF909F908F9008950E94F6160E94F8
:102F100062290E94141C0C94580BCF93DF930E94DB
:102F2000B718EC01811521E5920708F045C081151D
:102F300030E5930708F094C0883E910528F5803E5F
:102F4000910508F0F8C0883A910570F4853A91052A
:102F500008F07CC08130910509F475C008F4E8C020
:102F6000049708F0E8C0E4C08F3B910508F0E0C08A
:102F7000C85AD0E0CC0FDD1FCE57DD4F0990D88165
:102F8000C02DCE019464D8C0811540E2940758F456
:102F9000811551E0950708F0CEC08D3E910508F4EB
:102FA000C7C09065C9C0C11580E4D80708F4C0C087
:102FB000DF70CE01906AC0C0811525E59207A8F4A4
:102FC000811534E5930708F095C0811543E5940712
:102FD00008F07BC0811552E5950708F061C0D82F35
:102FE000CC27CE01816F906AA7C0C11589E5D807AB
:102FF000A0F4C11528E5D20708F082C0C11536E556
:10300000D30708F095C08C2F0E944B198F7190E068
:10301000D82FCC27CE0190628FC0C1154AE5D407C6
:1030200008F474C0CE0190568115904208F080C01B
:103030008D2F8F710E944B19DD27D0628F71AE01E9
:10304000582BCA0179C081E090E076C0C55AD0E023
:10305000C055DD4F8881C82FD0E0CE0190646CC090
:1030600074E0969587957A95E1F7282F23703C2F89
:10307000337081E090E002C0880F991F3A95E2F723
:103080009C68AC01522B9A019C2F9F709695969547
:1030900050E2959FE0011124C9018C2B9D2B4CC05F
:1030A0008370992721E030E002C0220F331F8A95F8
:1030B000E2F79C2F9695969580E2989FE001112467
:1030C000C22BD32BCE019C6837C08370992721E097
:1030D00030E002C0220F331F8A95E2F79C2F9695AD
:1030E000969540E2949FE0011124C22BD32BCE0190
:1030F0009A6822C0D82FCC27CE01846F906A1CC05A
:10310000DC2FCC27CE01806F906A16C08C2F8F7079
:103110000E944B1994E0D695C7959A95E1F7CF7028
:10312000D0E0DC2FCC27D0699E01282BC90104C038
:1031300080E090E001C0CE01DF91CF91089524E5B9
:10314000829FC0011124FC0126E0729FE00DF11D59
:103150001124E60FF11DEE0FFF1FEA55FE4F85917A
:10316000949108950E949F180E948D1708958238A7
:10317000910569F1B0F48133910509F46DC048F40B
:103180008932910509F463C08A32910509F469C056
:1031900008958533910509F455C089339105B9F037
:1031A0000895833E910569F138F4803E9105B1F0B0
:1031B000823E910509F10895863E9105A9F1873E69
:1031C0009105B9F1843E910509F064C023C02091B6
:1031D0004A0520FD4FC021FD4DC0089580914A054C
:1031E00080FD44C080914B0580FF44C080914A051A
:1031F00084FD42C083EE4DC080914A0582FF38C0F5
:10320000F5CF80914A0582FD33C080914B0580FD4A
:1032100031C0ECCF80914B0581FF32C080914A05CF
:1032200084FD2AC087EE35C080914A0583FF26C001
:10323000F5CF80914A0583FD21C080914B0581FD2A
:103240001FC0ECCF80914A0585FD1CC01DC0809138
:103250004A0585FD19C016C080914A0586FD16C035
:1032600017C080914A0586FD13C010C089E311C0C4
:1032700082EE0FC080EE0DC080E00BC086EE09C06C
:1032800084EE07C089E205C085E303C08AE201C07D
:1032900081E390E0089590914A0592FF0DC0282F98
:1032A0002871283019F4877F846006C0282F247184
:1032B000243011F48B7F886093FF0DC0282F287174
:1032C000283119F4877E846106C0282F24712431A7
:1032D00011F48B7E886120914B0520FF0DC0382FA3
:1032E0003871383019F4877F816006C0382F31710A
:1032F000313011F48E7F886021FF0DC0282F287196
:10330000283119F4877E816106C0282F217121316F
:1033100011F48E7E886194FD877E089580E0089583
:1033200008950E940516811102C00E94AA160E94EB
:1033300010168093E3030E94181690934B05809318
:103340004A050E9490190E941416682F70E080E0D0
:1033500090E00E9425106091490370914A0380918A
:103360004B0390914C030C945D10E82FF0E0E65A6B
:10337000FA4F2081822F90E021E030E002C0220F3E
:10338000331F6A95E2F72823392381E0232B09F4C0
:1033900080E00895E82FF0E0E65AFA4F8081089522
:1033A000089508950C94D1190C94D1190E94E60443
:1033B000ECE4F5E0AAE5B5E011921D9285E0EA356E
:1033C000F807D1F78EE00E94FA190C94C30ACF9344
:1033D0008CE495E00E94F104C82F282F4EE06AE5A6
:1033E00075E08CE495E00E940D1A0E94C50A8C2FAE
:1033F000CF910895CF93C82F90E00E94C43A809354
:10340000E7039093E803282FFC018E2F821B8C1773
:1034100010F41192FACFCF910895DF92EF92FF92BC
:103420000F931F93CF93DF93082FF92EE62ED72EFD
:10343000142FD22FC091E403CC23C9F10E94F4329F
:103440002091E5033091E603AC01421B530B9A0136
:103450009093E6038093E5034F3F510509F020F474
:10346000452B09F454C002C02FEF30E01092E40362
:103470001092E9034091E703E42FF091E80390E014
:1034800030E08E2F841B811768F48081882341F0FF
:10349000281718F010829C2F03C0821B80833C2FBA
:1034A0003196EFCF3093E4039093E90330C02223A9
:1034B00031F10E94F4329093E6038093E5039091FA
:1034C000E7038091E403AE2DBD2DC02FDF2DE92F42
:1034D000F091E8033EE12E2F291B211768F4299172
:1034E0004C91421731F04081411103C030832C933D
:1034F00081E031961196EFCF8093E4030CC080E019
:103500009091E903992339F08111D9CFD2CFD1110C
:10351000D6CF81E0F5CFDF91CF911F910F91FF9032
:10352000EF90DF9008950E943D350E94EE160C94B6
:1035300049350E944D350E9485170C9467350E94CD
:1035400092320E9424350E94DA160E94931A0E9439
:10355000991A0E94E416FBCF8091F10380FF06C008
:103560006091FB0170E0660F771F26C081FF04C0E9
:103570006091FB0184E005C082FF07C06091FB0100
:1035800088E0689FB001112417C09091F00399233F
:10359000D1F06091FA01961788F72091FB0188E03D
:1035A000289F90011124929FA001939F500D1124F8
:1035B00070E0CA010E94883A6038710540F46115D4
:1035C000710519F406C068E070E0862F08958FE752
:1035D000089581E008958091F10380FF08C0609113
:1035E000F70170E0759567957595679521C081FF26
:1035F00006C06091F70170E07595679519C082FF6C
:1036000004C06091F70170E010C09091EF0399231E
:1036100099F06091F6019617A0F78091F701899FC4
:10362000C001112470E00E94883A6038710540F4AE
:103630006115710519F406C061E070E0862F0895E8
:103640008FE7089581E008958D3E21F40E94AC1A21
:10365000819504C08E3E29F40E94AC1A8093F40335
:1036600008958F3E21F40E94AC1A819504C0803FDA
:1036700029F40E94AC1A8093F3030895893F19F44A
:103680000E94EB1A05C08A3F31F40E94EB1A819523
:103690008093F50308958B3F21F40E94EB1A8195E6
:1036A00004C08C3F29F40E94EB1A8093F60308951E
:1036B0009FE0980F983078F421E030E0A90102C033
:1036C000440F551F9A95E2F7CA019091F203892B96
:1036D0008093F20308958D3F21F48091F10381607E
:1036E0000BC08E3F21F48091F103826005C08F3FB3
:1036F00029F48091F10384608093F10308958D3E55
:1037000039F49091F40397FF35C01092F40359C037
:103710008E3E29F49091F4031916BCF32BC09091BE
:10372000F3038F3E29F497FF25C01092F30349C09D
:10373000803F19F41916CCF31DC09091F503893F11
:1037400029F41916BCF41092F5033BC08A3F19F412
:1037500097FF10C0F8CF8B3F39F49091F60397FF95
:1037600009C01092F6032DC08C3F21F49091F6030E
:103770001916BCF39FE0980F983080F421E030E0F8
:10378000A90102C0440F551F9A95E2F7CA0180951E
:103790009091F20389238093F20313C08D3F21F4AB
:1037A0008091F1038E7F0BC08E3F21F48091F10355
:1037B0008D7F05C08F3F29F48091F1038B7F80932B
:1037C000F1038091F303811106C08091F40381110C
:1037D00002C01092F0038091F503811106C0809120
:1037E000F603811102C01092EF0308950E94F43293
:1037F0002091F303211104C02091F403222321F02E
:103800009093EE038093ED032091F503211104C002
:103810002091F603222321F09093EC038093EB0395
:1038200082EF93E00C946631EF92FF920F931F9317
:10383000CF93DF9300D000D01F92CDB7DEB785E0E5
:10384000E2EFF3E0DE01119601900D928A95E1F727
:10385000E090F303F090F4030091F5031091F60368
:103860001092F3031092F4031092F5031092F603F2
:10387000E11003C0FF2009F45DC08091ED03909139
:10388000EE030E940C33AC019091F003992339F0C0
:103890002091FC0130E02417350758F04BC02091EF
:1038A000EA038AE0289F900111242417350718F0B5
:1038B00041C09F3F19F09F5F9093F003EE2061F0AD
:1038C0000E94AC1A1E1414F09FEF01C091E0989F63
:1038D000902D11249093F303FF2061F00E94AC1A05
:1038E0001F1414F09FEF01C091E0989F902D1124B8
:1038F0009093F4033091F3033323E1F02091F40328
:103900002223C1F045EB3403C0011124992319F09F
:103910009093F30303C081E08093F30335EB23031B
:10392000C0011124992319F09093F40303C081E09E
:103930008093F403011103C0112309F45DC0809149
:10394000EB039091EC030E940C33AC019091EF03D8
:10395000992339F02091F80130E02417350758F009
:103960004BC02091F9018AE0289F9001112424176F
:10397000350718F041C09F3F19F09F5F9093EF0308
:10398000002361F00E94EB1A101614F09FEF01C0A3
:1039900091E0989F902D11249093F503112361F0ED
:1039A0000E94EB1A111614F09FEF01C091E0989F4E
:1039B000902D11249093F6033091F5033323E1F019
:1039C0002091F6032223C1F045EB3403C0011124FA
:1039D000992319F09093F50303C081E08093F503D8
:1039E00035EB2303C0011124992319F09093F603BA
:1039F00003C081E08093F6038091F30381110BC033
:103A00008091F403811107C08091F503811103C0F7
:103A10008091F60381110E94F61BEA82FB820C83DF
:103A20001D8385E0FE013196A2EFB3E001900D9277
:103A30008A95E1F70F900F900F900F900F90DF9104
:103A4000CF911F910F91FF90EF900895E2EFF3E077
:103A500085E0DF011D928A95E9F71092F00310923C
:103A6000EF031092F1030895EF92FF920F931F93CB
:103A7000CF93DF938B01682F11110AC0442329F0E3
:103A8000E82FF0E0EA56FA4F6491762F862F75C042
:103A9000212F30E0E82FF0E0442321F0EA56FA4FDE
:103AA000E491F0E046E0049FC0011124CFEFD0E0A4
:103AB000BE010E94743A4BEA4603C001479F900D35
:103AC0001124800F911D800F911D982F990F890F40
:103AD000AE01421B530B4E9FD0014F9FB00D5E9F16
:103AE000B00D11249B2F189FA0011124452F55279D
:103AF0008E01041B150B0E9FA0010F9F500D1E9FE2
:103B0000500D11247E01E81AF108E29E8001E39E27
:103B1000100DF29E100D1124212F3327C21BD30B41
:103B2000CE9F9001CF9F300DDE9F300D112462306B
:103B30007105A9F048F46115710569F061307105EE
:103B4000C9F48B2F752F0DC06430710581F058F0CA
:103B50006630710579F47E2F8B2F932F0DC0832F44
:103B60007B2F9E2F09C08E2F7B2F952F05C08E2F68
:103B7000732F02C07E2F852F692FDF91CF911F9168
:103B80000F91FF90EF90089541E00E94341D089539
:103B900020E030E0869F212D969F200D311D1124BD
:103BA000C9010895BC018230910508F40895613E71
:103BB0008EE1780748F49B0195E0369527959A9514
:103BC000E1F748E0420F01C04FEF91E0242F30E0D1
:103BD000290F311D35952795229FF001239FF00D68
:103BE000F00D11246E177F0718F44FEF420F04C039
:103BF0002F3F39F091E0920F491740F78FEF890F6F
:103C000008958FEF0895409103025091040225E03A
:103C100038E0429FC001439F900D529F900D1124A8
:103C2000875E994C9093040280930302890F089554
:103C3000482F982F46FD9095E92FEF739F7046FD12
:103C40009F5FE295EF70EE0FF0E0ED54FD4F2181A4
:103C5000299F802D212D112482958F702295207F00
:103C6000822B3081982F930F892F47FD81958058A3
:103C70000895E42FF0E0EE0FFF1FE25AFE4F40815F
:103C800034EE439F412D1124E72FF0E050E0445ED5
:103C90005F4FDA01A21BB1099D01B7FF03C0319547
:103CA0002195310993E0220F331F9A95E1F7AF0177
:103CB000421B530B9A0157FF02C020E030E0279FC0
:103CC000212D1124722F0895E42FF0E0EE0FFF1F35
:103CD000E25AFE4F408134EE439F412D1124E82FDC
:103CE000F0E050E0445E5F4FDA01A21BB1099D0194
:103CF000B7FF03C031952195310993E0220F331F9F
:103D00009A95E1F7AF01421B530B9A0157FF02C08E
:103D100020E030E0582F259F212D1124822F089577
:103D2000622F0895E42FF0E0EE0FFF1FE25AFE4FDE
:103D30006081621B0895E42FF0E0EE0FFF1FE15A4F
:103D4000FE4F6081621B0895A22F50E0FA01EE0F32
:103D5000FF1FE15AFE4F9081905297FD9195440FBD
:103D6000551FFA01E25AFE4F3081232F30E02A1B03
:103D70003109290F311D97FD3A95620F0895EF9291
:103D80000F931F9393E0099F8001112415950795C8
:103D90006E2D600F1F910F91EF9008950F93CF93A9
:103DA000DF93D72FC82F47FD4195E8E3F0E0CF011F
:103DB000841B910947FD9395889FB001899F700DE1
:103DC000700D1124229FC001239F900D900D11248E
:103DD000860F971F0E94D21D682F660F860F682FCF
:103DE000600F7D2F8C2FDF91CF910F9108950F934E
:103DF0001F93522F10E0F801EE0FFF1FE15AFE4F04
:103E0000E081F0E0B0979F015203D001539FB00DC5
:103E10001124000F111FF801E25AFE4F008110E03B
:103E20000057110940039001419F300D11242A0FC2
:103E30003B1F37FF02C021583F4F220F232F221F65
:103E4000330B620F1F910F9108950F931F93522F01
:103E500010E0F801EE0FFF1FE15AFE4FE081F0E0A5
:103E6000B097EE0FFF1F9F015203D001539FB00D7B
:103E70001124000F111FF801E25AFE4F008110E0DB
:103E800000571109000F111F40039001419F300D91
:103E900011242A0F3B1F37FF02C021583F4F220F2A
:103EA000232F221F330B620F1F910F9108950F9341
:103EB0001F9310E0F801EE0FFF1FE25AFE4F9081B2
:103EC000905797FD9195000F111FF801E15AFE4F91
:103ED000E081F0E0B097DF01AA0FBB1F8D010E0F4C
:103EE0001F1F2003D001219FB00D1124E8E3F0E053
:103EF000E91BF10997FDF3959F01220F331F8901FB
:103F00000E0F1F1F40039001419F300D11242A0FF7
:103F10003B1F37FF02C021583F4F220F232F221F84
:103F2000330B620F1F910F9108950F931F93CF933F
:103F3000DF93D62F072F182FC42F822F0E94181E11
:103F4000EC2FF0E0EE0FFF1FE25AFE4F90819058E9
:103F5000890F87FD8195880F682F2CE0629F612D66
:103F600011246D0F702F812FDF91CF911F910F9131
:103F70000895E42FF0E0EE0FFF1FE25AFE4F90810C
:103F8000921B97FD9195292F38E1239F212D112414
:103F9000620F089520916C0530E1230F08F42FEF94
:103FA00060E1822F90E00E94C81DBC0188EB9BE07D
:103FB0000E94743A80E090E00895FC019B01009714
:103FC00021F477FF2BC080E80895AC0197FF04C06F
:103FD00044275527481B590BB901640F751F37FD3E
:103FE0000CC0241B350BC901A5E0880F991FAA95A9
:103FF000E1F70E94883A80E20CC0CB0165E0880FAF
:10400000991F6A95E1F7BA01621B730B0E94883A07
:1040100080E6861BF7FF03C08195089580E0089530
:10402000FF920F931F93CF93DF93F62E172FD82F66
:10403000C901C72FC01BBA010E94DD1F982F990F1D
:10404000890F7C2F781B719F712D11246F2D8D2F5F
:10405000DF91CF911F910F91FF900895FF920F93E1
:104060001F93CF93DF93F62ED72F182FC901C12F9F
:10407000C01BBA010E94DD1F982F990F890FC81B22
:104080002C2F219F212D1124822F6F2D7D2FDF9129
:10409000CF911F910F91FF900895EF920F931F936F
:1040A000CF93DF93D62F172FC82FC9010E19070FF3
:1040B000BA010E94DD1F702F781B719F712D112492
:1040C0006D2F8C2FDF91CF911F910F91EF9008955D
:1040D000EF920F931F93CF93DF93D62FC72F182FF5
:1040E000C9010E19010FBA010E94DD1F081B202F04
:1040F000219F212D1124822F6D2F7C2FDF91CF91B5
:104100001F910F91EF9008950F93CF93DF93D72FC7
:10411000C82FC901BA010E94DD1F682F600F7D2FD3
:104120008C2FDF91CF910F910895EF920F93CF9342
:10413000DF93D72FC82FC9010E19BA010E94DD1FC6
:10414000602F681B7D2F8C2FDF91CF910F91EF9007
:1041500008950E94C41D0895E8E6F5E085E3808394
:104160008091120290911302A09114028183928394
:10417000A3838FE784838FEF858346E050E06CE173
:1041800070E0CF010E947B3C1092E7040895E0911B
:10419000C102F091C2020994E091BD02F091BE0209
:1041A00009944F925F926F927F928F929F92AF92FB
:1041B000BF92CF92DF92EF920F931F93CF93DF9333
:1041C0002C013B01FC018081C82FCC0FCC0FC80F04
:1041D000D5E0DC0FD13308F0D0E360916C05669533
:1041E00080916E0590916F050E94C81D182FCD1704
:1041F00008F044C08C2E912CF401E254FE4F9081C3
:10420000F20181818923C1F1F401EE0FFF1FE25A0F
:10421000FE4FC080D12CF0E7CF1AD108F401EE0F89
:10422000FF1FE15AFE4FA080B12C80E2A81AB1080E
:10423000CC9C9001CD9C300D300D1124AA9CC00166
:10424000AB9C900D900D1124820F931F0E94D21DE4
:10425000082F6091690570916A0580916B05E12EC8
:104260009501A601F30109950E94A920462F282F48
:10427000672FC4010E94CC20CF5FB9CF81E0D0333B
:1042800008F080E0DF91CF911F910F91EF90DF90C8
:10429000CF90BF90AF909F908F907F906F905F90E6
:1042A0004F9008956DE470E20C94D12068E670E2BE
:1042B0000C94D1206FEB7EE10C94D12065E970E283
:1042C0000C94D120AF92BF92CF92DF92EF92FF92E7
:1042D0000F931F93CF93DF936C015B01FC018081EF
:1042E000C82FCC0FCC0FC80FD5E0DC0FD13308F0AE
:1042F000D0E360916C05669580916E0590916F0595
:104300000E94C81D182FCD1778F5EC2EF12CF7015F
:10431000E254FE4F9081F6018181892319F1F70162
:10432000EE0FFF1FE15AFE4F208130E0205231098D
:10433000F701EE0FFF1FE25AFE4F408150E0405759
:1043400051096091690570916A0580916B05012F93
:10435000F50109950E94A920462F282F672FC70134
:104360000E94CC20CF5FCFCF81E0D03308F080E037
:10437000DF91CF911F910F91FF90EF90DF90CF9041
:10438000BF90AF90089560E170E20C9462216EE2FC
:1043900070E20C9462216EEC7EE10C94622164E880
:1043A00070E20C946221BF92CF92DF92EF92FF9263
:1043B0000F931F93CF93DF938C017B01FC018081CE
:1043C000C82FCC0FCC0FC80FD5E0DC0FD13308F0CD
:1043D000D0E360916C056695669521E0620F08F464
:1043E0006FEF80916E0590916F050E94C81DB82EE9
:1043F000CD17F0F4CC2ED12CF601E254FE4F908173
:10440000F8018181892391F06091690570916A05B5
:1044100080916B052B2D4C2FF70109950E94A92047
:10442000462F282F672FC6010E94CC20CF5FE0CFF8
:1044300081E0D03308F080E0DF91CF911F910F91A0
:10444000FF90EF90DF90CF90BF90089569E37EE1F9
:104450000C94D32164E67EE10C94D32160E97EE1E3
:104460000C94D32162E97EE10C94D3216BE97EE1C7
:104470000C94D32164EA7EE10C94D32165E97FE1B9
:104480000C94D32169EB7FE10C94D3217F928F921E
:104490009F92AF92BF92CF92DF92EF92FF920F93D3
:1044A0001F93CF93DF936C015B01FC018081C82FC8
:1044B000CC0FCC0FC80F15E01C0F113308F010E320
:1044C00060916C056695669580916E0590916F057B
:1044D0000E94C81DD82F80E48D0F0E94181E90E8FE
:1044E000F92EF80E8D2F0E94181E20E8722E780EDD
:1044F000C11700F58C2E912CF401E254FE4F9081EF
:10450000F60181818923A1F06091690570916A05A6
:1045100080916B05ED2E0C2F272D4F2DF501099560
:104520000E94A920462F282F672FC4010E94CC206B
:10453000CF5FDECF81E0103308F080E0DF91CF91D4
:104540001F910F91FF90EF90DF90CF90BF90AF90B1
:104550009F908F907F90089567EF7EE10C944622A4
:1045600065E27FE10C94462267E57FE10C944622E8
:10457000DF92EF92FF920F931F93CF93DF938C0103
:10458000DC018C91C82FCC0FCC0FC80FD5E0DC0F0D
:10459000D13308F0D0E36091690570916A0580918C
:1045A0006B050E94A920F62EE72ED82ECD1798F481
:1045B000EC2FF0E0DF01A254BE4F8C91D801119690
:1045C0009C91982331F02D2D4F2D6E2DCF010E94FF
:1045D000CC20CF5FEBCF81E0D03308F080E0DF91DB
:1045E000CF911F910F91FF90EF90DF900895AF92C0
:1045F000BF92CF92DF92EF92FF920F931F93CF93D0
:10460000DF938C01FC018081C82FCC0FCC0FC80F29
:1046100095E0D92EDC0EF0E3FD1510F480E3D82EE2
:10462000F0906A05D0916B05E0906905B7018D2F78
:104630000E94A920C62EB72EA82E60916C056E0D83
:104640007F2D8D2F0E94A920D62FF72EE82ECD1575
:10465000B8F48C2F90E0FC01E254FE4F3081F80159
:104660002181232359F030FF04C02E2D4D2F6F2DB3
:1046700003C02A2D4C2D6B2D0E94CC20CF5FE7CF9D
:1046800081E0FFE2FD1508F480E0DF91CF911F91FA
:104690000F91FF90EF90DF90CF90BF90AF90089573
:1046A000BF92CF92DF92EF92FF920F931F93CF931F
:1046B000DF936C01FC018081C82FCC0FCC0FC80F99
:1046C000D5E0DC0FD13308F0D0E300916A05B0905B
:1046D0006B0520916C0510E4129F112D1124CD174C
:1046E00018F5EC2EF12CF701E254FE4F9081F60103
:1046F00081818923B9F0F701EE0FFF1FE15AFE4FC8
:10470000808182958F7060916905819F600D112471
:10471000702F8B2D0E94A920462F282F672FC701AD
:104720000E94CC20CF5FDBCF81E0D03308F080E067
:10473000DF91CF911F910F91FF90EF90DF90CF907D
:10474000BF900895BF92CF92DF92EF92FF920F93A6
:104750001F93CF93DF937C01FC018081C82FCC0F86
:10476000CC0FC80FD5E0DC0FD13308F0D0E3C090F8
:104770006A05B0906B0520916C0530E4D32E3D2D79
:10478000329F312D1124D32ECD1738F50C2F10E088
:10479000F801E254FE4F9081F70181818923D9F01D
:1047A000F801EE0FFF1FE25AFE4F6081D69EB00166
:1047B000112495E0759567959A95E1F780916905C3
:1047C000680F7C2D8B2D0E94A920462F282F672F44
:1047D000C8010E94CC20CF5FD7CF81E0D03308F052
:1047E00080E0DF91CF911F910F91FF90EF90DF90CC
:1047F000CF90BF900895DF92EF92FF920F931F9397
:10480000CF93DF938C01DC018C91C82FCC0FCC0FA0
:10481000C80FD5E0DC0FD13308F0D0E3E090690594
:10482000F0906A05D0906B0560916C056695669571
:10483000669580916E0590916F050E94C81D0E943B
:10484000181E805887FD8195880F282F3D2D239FA6
:10485000212D1124822FB7010E94A920F62EE72EC8
:10486000D82ECD1798F4EC2FF0E0DF01A254BE4F04
:104870008C91D80111969C91982331F02D2D4F2DBC
:104880006E2DCF010E94CC20CF5FEBCF81E0D033E3
:1048900008F080E0DF91CF911F910F91FF90EF9092
:1048A000DF900895DF92EF92FF920F931F93CF93C3
:1048B000DF93EC01FC01E254FE4F9081692381F10A
:1048C000D0906A0500916B0510916905E12EF12CDD
:1048D0000E94313C282FC7018C549F4F68E671E03D
:1048E0000E94883A8E199F0997FD039695958795A2
:1048F000959587952370612F289F600D11247D2D3C
:10490000802F0E94A920462F282F672FCE01DF91EC
:10491000CF911F910F91FF90EF90DF900C94CC20DE
:10492000DF91CF911F910F91FF90EF90DF9008954D
:10493000CF92DF92FF920F931F93CF93DF938C015F
:10494000FC01C281C1111DC060916C0520E1620FA4
:1049500008F46FEF80916E0590916F050E94C81D5D
:104960006AE070E00E94743A892B59F50E94313C4C
:1049700060E370E00E94883AF80161810E9452244D
:1049800020C0FC018081C82FCC0FCC0FC80F95E050
:10499000F92EFC0EF0E3FF1510F480E3F82ED0E0C2
:1049A000CF2CD12CCC15DD053CF4F8016181CE0172
:1049B0000E9452242196F6CFC1E0FFE2FF1508F4D1
:1049C000C0E08C2FDF91CF911F910F91FF90DF906E
:1049D000CF9008951F93CF93DF93FC01E254FE4FD5
:1049E00020816223D1F0EC010E94313C182F0E94FB
:1049F000313C8F77782F20E8720F08F47FEF612F1A
:104A000080916B050E94A920462F282F672FCE0189
:104A1000DF91CF911F910C94CC20DF91CF911F910A
:104A20000895CF92DF92FF920F931F93CF93DF935E
:104A30008C01FC01C281C1111DC060916C0520E197
:104A4000620F08F46FEF80916E0590916F050E94E0
:104A5000C81D65E070E00E94743A892B59F50E94E8
:104A6000313C60E370E00E94883AF80161810E9465
:104A7000EA2420C0FC018081C82FCC0FCC0FC80FC6
:104A800095E0F92EFC0EF0E3FF1510F480E3F82E0C
:104A9000D0E0CF2CD12CCC15DD053CF4F8016181A0
:104AA000CE010E94EA242196F6CFC1E0FFE2FF1575
:104AB00008F4C0E08C2FDF91CF911F910F91FF90F0
:104AC000DF90CF900895DF92EF92FF920F931F93A4
:104AD000CF93DF938C01DC018C91C82FCC0FCC0FCE
:104AE000C80FD5E0DC0FD13308F0D0E3E0906A05C1
:104AF000F0906B05D090690560916C0566956695A0
:104B0000669580916E0590916F050E94C81D0E9468
:104B1000181E805887FD8195880F682F2CE0629FB2
:104B2000612D11246D0D7E2D8F2D0E94C41DF62E3A
:104B3000E72ED82ECD1798F4EC2FF0E0DF01A25429
:104B4000BE4F8C91D80111969C91982331F02D2D58
:104B50004F2D6E2DCF010E94CC20CF5FEBCF81E097
:104B6000D03308F080E0DF91CF911F910F91FF903B
:104B7000EF90DF900895E091BF02F091C002099498
:104B80000C94CB1680916E0590916F05A0917005E5
:104B9000B091710588279C70AA27BB272AE0B6959B
:104BA000A795979587952A95D1F782309105A1050C
:104BB000B10571F083309105A105B10569F040E0C0
:104BC0000197A105B10511F060E008C064E102C0E1
:104BD00044E160E080E003C044E164E184E10C94DE
:104BE000BB255F926F927F928F929F92AF92BF92FE
:104BF000CF92DF92EF92FF920F931F93CF93DF93A9
:104C0000D82F809101028D130DC02091680523706B
:104C100030E04091020250E081E02417350719F49A
:104C200080E001C081E081708093000280916D0579
:104C30009091FF01981739F08093FF0140E060E008
:104C400080E00E94BB25DF3009F041C08EEF91E08B
:104C50000E943A22C82F27C00E94031E7801EE0C42
:104C6000FF1C81FFBCC10E0D1F1DF801E15BFB4F56
:104C70001082118212820E94CA1F00916E0510914B
:104C80006F052091700530917105DC01CB01800F1B
:104C9000911FA21FB31F8093DF049093E004A093A1
:104CA000E104B093E2048091FE018F5F8093FE01E6
:104CB000C111D6C282E08093FD0180910002811172
:104CC000CFC2D111CDC283E08093FD01C9C2D031E2
:104CD00008F08DC0D73029F48EEF91E00E942A228F
:104CE000B9CFD83008F054C0D33029F48EEF91E01A
:104CF0000E945023AFCFD430C0F5D13029F48EEFCD
:104D000091E00E94B822A6CFD23050F480910002E8
:104D1000882349F140E060E080E00E94BB2523C089
:104D20008EEF91E00E94F72295CFDC3108F49FC00E
:104D3000DD3109F4AFC008F0C2C14091E3045091E5
:104D4000E4046091E5047091E60480916E05909111
:104D50006F05A0917005B091710584179507A6079E
:104D6000B70708F055C1C0E09ECFD53029F48EEFCB
:104D700091E00E94FB236ECFD63028F48EEF91E0B5
:104D80000E94A22367CF8EEF91E00E94262262CF7D
:104D9000DB3029F48EEF91E00E9456215BCFDC30AE
:104DA00098F4D93029F48EEF91E00E94C72152CFB8
:104DB000DA3028F48EEF91E00E94C3214BCF8EEFC2
:104DC00091E00E94522146CFDD3029F48EEF91E030
:104DD0000E9432223FCFDE3028F48EEF91E00E9415
:104DE0002E2238CF8EEF91E00E94362233CFD7317A
:104DF00029F48EEF91E00E9498242CCFD83178F5D9
:104E0000D33129F48EEF91E00E945E2123CFD4317B
:104E100098F4D13129F48EEF91E00E94CB211ACF82
:104E2000D23128F48EEF91E00E945A2113CF8EEFF9
:104E300091E00E94CF210ECFD53129F48EEF91E081
:104E40000E94B02207CFD63128F48EEF91E00E9465
:104E5000AC2200CF8EEF91E00E94B422FBCEDB317A
:104E600009F063CF8EEF91E00E944222F3CED93158
:104E700029F48EEF91E00E946325ECCEDA3128F41C
:104E80008EEF91E00E941125E5CE8EEF91E00E9419
:104E90003E22E0CE4091DF045091E0046091E104B5
:104EA0007091E20480916E0590916F05A09170055C
:104EB000B091710584179507A607B70708F453CF7B
:104EC0008091000281110DC08091FE01C82FCC0F8E
:104ED000CC0FC80F05E00C0F013308F454C000E3F9
:104EE00052C040E060E080E00E94BB25CFE4EC2EA1
:104EF000C4E0FC2E00E010E0CFE70E94031E81FF1B
:104F000005C0F7011082118212821DC00E94031E8B
:104F1000B82E0E94031E8695782F2C2F720F08F44E
:104F20007FEFC801880F991F800F911FFC01E15B83
:104F3000FB4F6F016B2D80916B050E94C41DF60124
:104F40006083718382830F5F1F4FF3E0EF0EF11CCC
:104F50000033110591F6B8CF8C2F90E0FC01E2549C
:104F6000FE4F30812091FF01232361F0FC01EE0F01
:104F7000FF1FE80FF91FE15BFB4F22814081618138
:104F80000E94CC20CF5FC01738F3C1E0003308F097
:104F9000C0E0003308F487CE20E010E00150110992
:104FA000822F90E0801791070CF056CEAC01440F91
:104FB000551F480F591F415B5B4F0196FC01EE0FD7
:104FC000FF1F8E0F9F1FFC01E15BFB4F80819181D2
:104FD000A281FA0180839183A2832F5FE1CF0E9497
:104FE000031ED82E0E94031E8695782F2FE7720F7E
:104FF00008F47FEF0E0D1F1D015B1B4F6D2D80917F
:105000006B050E94C41DF80160837183828333CED7
:105010000E94031EC82F0E94031E90E3891BF0F715
:10502000890F082F10E0F801E254FE4F9091FF0124
:105030008081892309F441C0C1FF04C020E040E021
:1050400060E013C00E94031EC82F0E94031E8695B5
:10505000782F2FE7720F08F47FEF6C2F80916B058C
:105060000E94A920462F282F672FC8010E94CC201C
:1050700020916C0530E1230F08F42FEF60E1822FBF
:1050800090E00E94C81DBC0184EF91E00E94743A38
:1050900080916E0590916F05A0917005B09171059A
:1050A000860F971FA11DB11D8093E3049093E40424
:1050B000A093E504B093E60456CEC1E0F4CDDE3112
:1050C00009F0C2C040914B0450914C0460914D04D2
:1050D00070914E0480916E0590916F05A0917005BE
:1050E000B091710584179507A607B70708F43BCE62
:1050F00080910002882329F040E060E080E00E9477
:10510000BB256091690570916A0580916B050E94CD
:10511000A920C62F772E682E07EF13E09AE0E92E1C
:1051200091E0F92E2BE4A22E24E0B22E4701680173
:10513000512CF6018081F401882329F08081262DED
:105140004C2F672D04C0808120E040E060E090E0BB
:105150000E94CC20F601818181936F015394FFEF6F
:105160008F1A9F0A22E05212E4CF4701680185E0BE
:10517000582EF6018581F401882329F08581262D9A
:105180004C2F672D04C0858120E040E060E090E076
:105190000E94CC20F601848185835A94F1E0CF1AD5
:1051A000D10821E0821A910833E05312E2CFF801CE
:1051B0008381F701882329F08381262D4C2F672DC9
:1051C00004C0838120E040E060E090E00E94CC20B9
:1051D000F8018281F701882329F08281262D4C2F46
:1051E000672D04C0828120E040E060E090E00E94F2
:1051F000CC200E94031E837091E009F090E0F8013A
:10520000928393830A5F1F4FF6E0EF0EF11CA01606
:10521000B10609F08BCF0E94CA1F00916E05109154
:105220006F052091700530917105DC01CB01800F75
:10523000911FA21FB31F80934B0490934C04A09323
:105240004D04B0934E048FCDDF3F21F40E94C22560
:1052500082E03ACD8091FE018F5F8093FE012ACDDE
:10526000DF91CF911F910F91FF90EF90DF90CF9042
:10527000BF90AF909F908F907F906F905F900895B8
:1052800008950C9440290E9441290C9484060895A5
:105290000C944729CF93DF93FC01C081F4E0CF9FAA
:1052A000C00D1124C550D5E0DC0FD13308F0D0E398
:1052B0006D2F8C2F0E9448296D2F8C2FDF91CF915D
:1052C0000C944729CF930E9400336093E8047093B5
:1052D000E9048093EA049093EB042091EC042111FB
:1052E00008C0C09168052C2F237019F0C695C6958B
:1052F00001C0C0E02091FD01213091F028F0223062
:10530000D9F0233031F144C01092FE0160936E0554
:1053100070936F05809370059093710581E016C0BE
:105320008C2F0E94F125CC2399F10E9443298EEF06
:1053300091E0CF910C944A29C093010280916805B5
:105340008370809302020E94C72083E08093FD0156
:105350001FC08091E704882351F046E050E06CE1E3
:1053600070E088E695E00E947B3C1092E704609133
:105370006E0570916F0580917005909171050E9486
:105380001B336A3171058105910510F01092FD0102
:10539000CF910895E091BB02F091BC0209950E9463
:1053A0000516811104C00E94AA160E94AC2046E096
:1053B00050E06CE170E088E695E00E94573C109266
:1053C000E704809168058C7F11F40C94AC2008955B
:1053D000CF93C82F882391F08091EC0481110EC0E7
:1053E0000E94F125109201028091680583708093DC
:1053F00002020E94C72083E08093FD01C093EC0469
:10540000CF910895E8E6F5E0208191E0922790831E
:105410001092FD019091E704892B8093E704089591
:1054200081E00C94022A80916805837011F4109237
:10543000FD01809168058C7F8160809368050895E7
:105440000E94132A8091E70481608093E704089505
:10545000909168059370A1F0811102C0946007C01B
:105460008F3110F0986703C0880F880F982B9093A6
:1054700068051092FD018091E704682B6093E704B2
:10548000089561E00C94282A682F909168059695FC
:1054900096959F5F9F3110F4892F01C081E00C9495
:1054A000282A81E00C94442A682F909168059695EB
:1054B0009695915011F0892F01C08EE10C94282A05
:1054C00081E00C94542A90916805937059F0809370
:1054D000690560936A0540936B058091E704282B6A
:1054E0002093E7040895A8E6B5E01196EC91119792
:1054F000F0E0282F13964C91139712966C91CF01E0
:1055000008960C94632A81E00C94732AA8E6B5E00F
:105510001196EC911197F0E0282F13964C91139768
:1055200012966C91CF0108970C94632A81E00C9439
:10553000862AE8E6F5E0628120E1620F08F46FEF69
:105540009181282F4381892F90E00C94632A81E078
:105550000C94992AE8E6F5E0628120E1621B08F4E8
:1055600060E09181282F4381892F90E00C94632A79
:1055700081E00C94AA2AE8E6F5E0438120E1420F9D
:1055800008F44FEF9181282F6281892F90E00C94CD
:10559000632A81E00C94BB2AE8E6F5E0438120E130
:1055A000421B08F440E09181282F6281892F90E00E
:1055B0000C94632A81E00C94CC2A80936C05809132
:1055C000E704682B6093E704089520916C0530E1AF
:1055D000230F08F42FEF682F822F0C94DD2A81E02F
:1055E0000C94E52A20916C0530E1231B08F420E09F
:1055F000682F822F0C94DD2A81E00C94F22A80938C
:105600006D05089560E084E70E94042D61E087E75E
:105610000C94042DCF930E942F3084E70E94572BC7
:1056200087E70E94572BC0E021E041E061E08C2F2A
:105630000E94082CCF5FC033B9F760E084E70E9476
:105640001C2D61E087E7CF910C941C2DE2E9F6E078
:105650006083418324E630E042E050E0BF01880FE0
:105660000C940B310F931F93CF93DF93082F000FF0
:10567000EB0114E210939206E3E9F6E0DE018D916E
:10568000819386E0E33AF807D1F724E630E041E180
:1056900050E062E976E0802F0E940B31105F609647
:1056A000143B41F7DF91CF911F910F910895CF9354
:1056B000DF93C82F4BE06DEF0E94262B40E06AE09D
:1056C0008C2F0E94262B8FE39CE90197F1F700C0F5
:1056D000000040E060E08C2F0E94262B40E061E05B
:1056E0008C2F0E94262B40E066E08C2F0E94262BF8
:1056F00040E06DEF8C2F0E94262BD0E040E06D2F14
:105700008C2F0E94262BDF5FD231C1F740E06D2F36
:105710008C2F0E94262BDF5FD432C1F740E06D2F23
:105720008C2F0E94262BDF5FD43BC1F74BE06DEF3F
:105730008C2F0E94262B41E06AE08C2F0E94262BA2
:1057400040E06DEF8C2FDF91CF910C94262BFF92D0
:105750000F931F93CF93DF9300D000D0CDB7DEB768
:105760008033910588F5122F042FF62EBC01660FA9
:10577000771F660F771F6A517F4F44E050E0CE01DC
:1057800001960E94413C898183704A81282F30E034
:1057900050E9859FC00111248E589A4FFC01E40FF7
:1057A000F11DB497F0824B81FC01E40FF11DB49719
:1057B00000834C81840F911DFC01B4971083F90183
:1057C000ED5EFA4F81E080830F900F900F900F9065
:1057D000DF91CF911F910F91FF900895FF920F934A
:1057E0001F93CF93DF93182F062FF42EC0E0D0E045
:1057F0002F2D402F612FCE010E94A72B2196C03361
:10580000D105B1F7DF91CF911F910F91FF900895CE
:105810005F926F927F928F929F92AF92BF92CF9240
:10582000DF92EF92FF920F931F93CF93DF9300D0FD
:1058300000D0CDB7DEB7862E942E522E24E0829F64
:10584000C0011124BC016A517F4F44E050E0CE01F9
:1058500001960E94413C2A8130E0C9018497FC01F5
:1058600097FD379673E0F595E7957A95E1F74B81CB
:1058700050E08A0104521109980117FF02C0295F04
:105880003F4F63E0359527956A95E1F74C8150E0ED
:105890005A0164E2A61AB1083501B7FE04C03A0104
:1058A0007DE1671A710843E0759467944A95E1F7C2
:1058B00058E0C52ED12CB6010E94883A7C01C8015F
:1058C000B6010E94883A8C01C501B6010E94883A4F
:1058D000FF274981FF24542F5370882081F062E113
:1058E000569FE00DF11D1124E151FB4F61E070E086
:1058F00001C0660FEA94EAF75081652B10C072E18F
:10590000579FE00DF11D1124E151FB4F61E070E064
:1059100001C0660FEA94EAF76095508165236083C1
:1059200033271127542F5370992089F062E1569F35
:10593000200D311D1124F901E151FB4F21E030E030
:1059400001C0220F0A95EAF73081232B11C072E1C2
:10595000579F200D311D1124F901E151FB4F21E02A
:1059600030E001C0220F0A95EAF720953081232309
:10597000208377249927942F937093015520A1F0C9
:1059800052E1959F200D311D1124F901E151FB4F8A
:1059900021E030E0B90102C0660F771F8A95E2F777
:1059A000CB019081892B14C072E1979F200D311D8E
:1059B0001124F901E151FB4F21E030E0B90102C0AF
:1059C000660F771F8A95E2F7CB0180959081892336
:1059D00080834370E42FF0E0E351FB4F81E080834C
:1059E0000F900F900F900F90DF91CF911F910F911B
:1059F000FF90EF90DF90CF90BF90AF909F908F90EF
:105A00007F906F905F900895CF93DF93262F30E0C3
:105A1000E901CD5EDA4F9881992351F090E9929F88
:105A2000B001939F700D11246E587A4F0E94322B53
:105A30001882DF91CF910895DF92EF92FF920F933A
:105A40001F93CF93DF93262F30E0A90143515B4F83
:105A50007A01FA01908191110AC0F7011082DF9159
:105A6000CF911F910F91FF90EF90DF900895D82E66
:105A7000F2E16F9FE001112400E010E0F801EC0F6B
:105A8000FD1FE151FB4F4081602F8D2D0E94262B81
:105A90000F5F1F4F0231110589F7DFCF882311F007
:105AA000FA0101C0FB0109941F93CF93DF93FB011F
:105AB0001281111191C0EC010E9422158272CB3C1F
:105AC000FCE5DF0709F472C010F5C63CECE5DE0723
:105AD00009F453C058F4C43C9CE5D90709F441C00B
