:100000000C9420040C943D040C943D040C943D0489
:100010000C943D040C943D040C943D040C943D045C
:100020000C943D040C943D040C94F6360C94C837A3
:100030000C949F310C943D040C943D040C943D04AD
:100040000C943D040C943D040C943D040C943D042C
:100050000C943D040C9444320C943D040C943D04E7
:100060000C943D040C943D040C943D040C943D040C
:100070000C943D040C943D040C943D040C943D04FC
:100080000C943D040C943D040C943D040C943D04EC
:100090000C943D040C943D040C943D040C943D04DC
:1000A0000C943D040C943D040C943D0499049C0470
:1000B0009F04A204A504A804AB048A0D8A0DB80D00
:1000C000B80D110E2F0E290F290F3A0EB20EC50EC4
:1000D000C50E303857384F3957384F39A338C638DE
:1000E0004F391D392C390044345400746484005550
:1000F000456500857595003626460066567600965D
:1001000086A6003727470077678700382848008889
:1001100078980039294900695979009989A9003AE4
:100120002A4A006A5A7A003B2B4B006B5B7B004CDF
:100130003C5C007C6C8C005D4D6D008D7D9D003EB7
:100140002E4E006E5E7E0144345401746484015569
:1001500045650185759501362646016656760196F8
:1001600086A6013727470177678701382848018825
:1001700078980139294901695979019989A9013A80
:100180002A4A016A5A7A013B2B4B016B5B7B014C7B
:100190003C5C017C6C8C015D4D6D018D7D9D013E53
:1001A0002E4E016E5E7E2E002B002A61E100015171
:1001B00000001E00140004001D00350029641F000B
:1001C0001A0016001B0034002C0020000800070055
:1001D00006005000E00021001500090019004F0042
:1001E0004A00220017000A000500000065002900EF
:1001F0004C000000015100004D0029002A000000C1
:10020000015100004B0023001C000B0011000000F6
:10021000E000240018000D00100052004E002500E0
:100220000C000E0036005100E500260012000F0001
:1002300037002F0028002700130033423800300019
:100240004C002D0031003468E500E2000000290078
:10025000010001000100010000003A001E0220021E
:100260002202000001003B001F022102230205536D
:10027000CA5C3C002F0226022F000100CB5C3D002F
:10028000300227023000045301003E0031023500E5
:1002900035020000C45C0100010000000100000004
:1002A000010001000100000001000000C35C3F00EC
:1002B0005200510024020000B45D400024002100DF
:1002C0001E000453B35D4100250022001F003700CB
:1002D000C65C42002600230020002700C75C4300C4
:1002E00025022E0231002E000100440045000100CD
:1002F000010001000000A600010001000100010052
:10030000000001000100010001000100B75D0100D3
:10031000FB00EF0001000100B95D0100ED00EE00FF
:100320000100F20001000100FC00F0000100F100FA
:10033000B65D01000100035301000000B85D01003B
:100340000100000001000000B55D01000100000097
:100350000100000001000100F900FA00F3000000B4
:1003600001000100A900FD00AE00F1000100010044
:10037000AA00FE00AC00F200B7000100A800FF00D8
:10038000AB00A800B600010046000100010001001A
:100390000100005C4602AE00010001000000010007
:1003A0000100E00001000100000001000100010067
:1003B000010001002900010001000100010001000D
:1003C000E200010001000100010001002C00010019
:1003D0000100010001000100010001000100010015
:1003E0000100000001000100010000000100000008
:1003F00001000100010000000100000001000100F7
:1004000001000100010000000100010001000100E5
:1004100001000100010001000100010001000100D4
:10042000280001000100010001000100010001009D
:1004300001000100010001000100010001000100B4
:100440000100010000002D0031003468E500045374
:10045000000023001C000B4211002F004C00240060
:1004600018000D0010003000E40025000C000E0004
:10047000360051002800260012000F0037005200FD
:100480004E0027001300330038000000E000290070
:100490002A000000300000004B0029004C00000042
:1004A0002F0000004D001E00140004001D0000007D
:1004B00065001F001A0016001B0050004A002000B3
:1004C0000800070006004F002C002100150009005D
:1004D000190035002964220017000A0005003400C5
:1004E000E3002E002B002A61E1000453000001000C
:1004F00001000100010001000000010001000100F5
:1005000001000100010001000100010001000100E3
:1005100001000100010001000100010001000100D3
:1005200001000100010001000100010001000100C3
:1005300001000000010001000100000001000000B6
:1005400001000100010000000100000001000100A5
:100550000100010001000000010001000100010094
:100560000100010001000100010001000100010083
:100570000100010001000100010001000100010073
:100580000100010001000100010001000100010063
:100590000100010000000001010101010101010150
:1005A0000202020202020202020303030303030324
:1005B00003040404040404040505050505060606F1
:1005C0000606070707070708080808090909090AAE
:1005D0000A0A0B0B0B0C0C0C0D0D0D0E0E0E0F0F53
:1005E0000F101011111112121313141415151616E1
:1005F0001717181819191A1A1B1B1C1D1D1E1E1F50
:100600002020212222232424252626272829292A9E
:100610002B2C2D2D2E2F30313232333435363738C6
:10062000393A3B3C3D3E3F404142434445464748C2
:10063000494A4C4D4E4F50515354555658595A5B98
:100640005D5E5F616264656668696B6C6D6F707238
:10065000737577787A7B7D7E8082838587888A8CA4
:100660008E8F91939596989A9C9EA0A2A3A5A7A9D8
:10067000ABADAFB1B3B5B7BABCBEC0C2C4C6C9CBCF
:10068000CDCFD1D4D6D8DBDDDFE2E4E7E9EBEEF085
:10069000F3F5F8FAFDFF20034500720067006F00D4
:1006A00044006F007800200045005A0020004700F9
:1006B0006C006F007700000028035A0053004100CF
:1006C000200054006500630068006E006F006C003D
:1006D0006F006700790020004C0061006200730029
:1006E00000000403090409025400030100A0FA09F0
:1006F0000400000103010100092111010001224051
:10070000000705810308000109040100010301023B
:10071000000921110100012247000705820308009A
:100720000109040200010300000009211101000178
:10073000226D000705830320000112010002000062
:100740000008973276490100010200010501098085
:10075000A101850319012AB700150126B7009501EB
:1007600075108100C0050C0901A101850419012A39
:10077000A002150126A002950175108100C0050197
:100780000906A1018506050719E029E715002501DD
:100790009508750181020507190029EF150025014B
:1007A00095F0750181020508190129059505750166
:1007B0009102950175039101C005010902A101098A
:1007C00001A10005091901290815002501950875E1
:1007D0000181020501093009311581257F950275D6
:1007E00008810609381581257F9501750881060560
:1007F0000C0A38021581257F950175088106C0C055
:1008000005010906A101050719E029E715002501E1
:100810009508750181029501750881010507190088
:1008200029FF150026FF00950675088100050819A7
:10083000012905950575019102950175039101C086
:1008400011241FBECFEFDAE0DEBFCDBF12E0A0E083
:10085000B1E0ECE7F8E702C005900D92AE3CB107BD
:10086000D9F726E0AEECB2E001C01D92A538B20780
:10087000E1F70E94BF190C943C3C0C940000809856
:10088000889A8198899A84988C9A85988D9A869866
:100890008E9A87988F9A0895209828982198299859
:1008A00022982A9823982B9852985A9853985B9894
:1008B0003E9846980895CF93E82F873080F5809131
:1008C000EE019091EF01892B09F047C0CE2F64E62D
:1008D00070E080E40E94322F9093EF018093EE014C
:1008E000892BD1F464E670E082E10E94A52F9093F9
:1008F000EF018093EE01892B79F481E090E001C053
:10090000880FCA95EAF764E670E080950E94A52FEB
:100910009093EF018093EE010E9419301EC090E089
:10092000FC013797E730F105C0F4EA5AFF4F0C9409
:10093000D339209A289811C0219A29980EC0229A5A
:100940002A980BC0239A2B9808C0529A5A9805C02F
:10095000539A5B9802C03E9A4698CF910895CF93E0
:10096000873040F58091EE019091EF01892B59F588
:1009700064E670E081E40E94322F9093EF0180934F
:10098000EE01892B11F0C0E011C084E690E00E94D6
:10099000D42F97FF05C09093EF018093EE01F3CF22
:1009A000C82FC0951092EF011092EE010E941930ED
:1009B0008C2F0AC09FB18FB1807F869586959370EA
:1009C000892B809501C080E0CF9108950E94F105A8
:1009D00090E09093EF018093EE010E944C040E94FE
:1009E0003F040895EF92FF920F931F93CF93DF93ED
:1009F0008091EE019091EF01892BA1F08091D002BE
:100A00008F5F8093D00281110DC00E94F10590E0AC
:100A10009093EF018093EE01892B21F40E945905F8
:100A20000E94B52806E115E0C0E0F12C87E0E82E31
:100A3000EC0E8C2F0E945B048E2D0E945B048C2F89
:100A40000E94AF048F73F8019081891719F0808399
:100A5000D1E001C0D0E08E2D0E94AF048F73F80169
:100A60009781891719F0878381E001C080E0D82B36
:100A7000FD2A0E944C04CF5F0F5F1F4FC730B1F6B5
:100A80008F2DCDB7DEB7E6E00C94013A0E94F10558
:100A900090E09093EF018093EE010E944C040E943D
:100AA0003F04E4E2F5E0119285E0E233F807D9F77C
:100AB000089556985E9825982D9826982E982798F0
:100AC0002F988FEF90E09093890080938800909307
:100AD0008B0080938A0090938D0080938C00259AE0
:100AE0002D9A2FEF80E792E0215080409040E1F76F
:100AF00000C00000269A2E9A2FEF80E792E0215046
:100B000080409040E1F700C00000279A2F9A2FEF15
:100B100080E792E0215080409040E1F700C0000063
:100B200025982D982FEF80E792E02150804090404B
:100B3000E1F700C0000026982E982FEF80E792E0A2
:100B4000215080409040E1F700C0000027982F9886
:100B500056985E9825982D9826982E9827982F9825
:100B6000089589EA8093800089E080938100249829
:100B70002C983F988AB18F7C8AB96E98479A8BB12E
:100B800080638BB9769A0E9450156093100570931C
:100B90001105809312059093130567708FEF689F7E
:100BA000B0011124759567957595679577277093B2
:100BB00089006093880070938B0060938A00709323
:100BC0008D0060938C008091100584FF02C08FEF30
:100BD00001C080E00E94EF290E9459050E94E3189D
:100BE000089580E290E09093EF018093EE01809170
:100BF000D10281110EC00E942C2F81E08093D1027E
:100C00002FEF83ED90E3215080409040E1F700C04A
:100C1000000064E670E080E40E94322F9093EF01C0
:100C20008093EE01892B09F04EC064E670E080E00D
:100C30000E94A52F9093EF018093EE01892B09F07C
:100C400042C064E670E080E00E94A52F9093EF011F
:100C50008093EE01892BB9F564E670E08FE30E9482
:100C6000A52F9093EF018093EE01892B61F50E94EF
:100C7000193064E670E080E40E94322F9093EF0117
:100C80008093EE01892BF9F464E670E08CE00E9419
:100C9000A52F9093EF018093EE01892BA1F464E6D8
:100CA00070E080E00E94A52F9093EF018093EE0109
:100CB000892B49F464E670E08FE30E94A52F90939E
:100CC000EF018093EE010E9419308091EE010895AA
:100CD0001092100510921105109212051092130532
:100CE00084E080618093100560911005709111057A
:100CF00080911205909113050E9455150E9463156D
:100D000008950E94E01808950E9409290895A0E01E
:100D1000B0E0EDE8F6E00C94D9398091100583FD40
:100D20003FC3E0910303F09104033196F093040371
:100D3000E09303032091F001622F70E0CF010E9445
:100D40009D39892B29F4809102038F5F80930203E0
:100D50002695622F70E0CF010E949D393324339491
:100D6000892B09F0312C512C30E8232EC1E18C2E37
:100D7000C2E09C2ED9E2AD2ED2E0BD2E81E4C82E79
:100D800082E0D82E9DE1E92E92E0F92E25E3622E35
:100D900022E0722E442443948AEF840D8230E8F1DD
:100DA00082E0581681F0851520F0E1E05E1649F0EA
:100DB00006C0F3E05F1649F084E0581641F0F601F2
:100DC00007C0F30105C0F50103C0F70101C0F4013C
:100DD000C081D0E0CF3FD10501F18E010E521D4FF1
:100DE000F8018081882311F083198083652D842D7B
:100DF0000E94C318882311F0F80120826091020339
:100E0000F8018081681B7FEF8FEF0E94E51C462F61
:100E1000282F672FCE010E94F21F4394FFEF8F1AF5
:100E20009F0A8FEFA81AB80AEFEFCE1ADE0AFFEF7B
:100E3000EF1AFF0A8FEF681A780AEDE04E12ACCF76
:100E40005394F5E05F1292CF80910903882309F44F
:100E5000A7C24091050341704195242F6FEF83E0B5
:100E600090E00E94F21F40910503509106036091AB
:100E700007037091080376956795579547954170DC
:100E80004195242F6FEF82E090E00E94F21F409185
:100E9000050350910603609107037091080392E0E7
:100EA00076956795579547959A95D1F741704195F5
:100EB000242F6FEF81E090E00E94F21F4091050324
:100EC00050910603609107037091080323E0769523
:100ED0006795579547952A95D1F741704195242FED
:100EE0006FEF80E090E00E94F21F40910503509167
:100EF0000603609107037091080334E076956795C7
:100F0000579547953A95D1F741704195242F6FEF4A
:100F100089E190E00E94F21F409105035091060381
:100F20006091070370910803E5E076956795579502
:100F30004795EA95D1F741704195242F6FEF8AE1EB
:100F400090E00E94F21F40910503509106036091CA
:100F5000070370910803F6E07695679557954795D6
:100F6000FA95D1F741704195242F6FEF8BE190E016
:100F70000E94F21F40910503509106036091070300
:100F800070910803A7E07695679557954795AA95C0
:100F9000D1F741704195242F6FEF8CE190E00E94D2
:100FA000F21F4091060341704195242F6FEF88E0B6
:100FB00090E00E94F21F409105035091060360915A
:100FC000070370910803B9E07695679557954795A3
:100FD000BA95D1F741704195242F6FEF87E090E0EB
:100FE0000E94F21F40910503509106036091070390
:100FF00070910803CAE07695679557954795CA950D
:10100000D1F741704195242F6FEF86E090E00E9468
:10101000F21F409105035091060360910703709100
:101020000803DBE07695679557954795DA95D1F7F4
:1010300041704195242F6FEF85E090E00E94F21FF0
:1010400040910503509106036091070370910803D6
:101050008CE076956795579547958A95D1F74170BD
:101060004195242F6FEF8EE190E00E94F21F409196
:1010700005035091060360910703709108039DE0FA
:1010800076956795579547959A95D1F74170419513
:10109000242F6FEF8FE190E00E94F21F4091050333
:1010A0005091060360910703709108032EE0769536
:1010B0006795579547952A95D1F741704195242F0B
:1010C0006FEF80E290E00E94F21F40910503509183
:1010D000060360910703709108033FE076956795DA
:1010E000579547953A95D1F741704195242F6FEF69
:1010F00081E290E00E94F21F409107034170419508
:10110000242F6FEF8DE090E00E94F21F40910503C5
:10111000509106036091070370910803E1E1769511
:10112000679557954795EA95D1F741704195242FDA
:101130006FEF8CE090E00E94F21F40910503509108
:1011400006036091070370910803F2E176956795B5
:1011500057954795FA95D1F741704195242F6FEF38
:101160008BE090E00E94F21F40910503509106032E
:101170006091070370910803A3E1769567955795F1
:101180004795AA95D1F741704195242F6FEF8AE0DA
:1011900090E00E94F21F4091050350910603609178
:1011A000070370910803B4E17695679557954795C5
:1011B000BA95D1F741704195242F6FEF83E290E00B
:1011C0000E94F21F409105035091060360910703AE
:1011D00070910803C5E17695679557954795CA952F
:1011E000D1F741704195242F6FEF84E290E00E9487
:1011F000F21F40910503509106036091070370911F
:101200000803D6E17695679557954795DA95D1F716
:1012100041704195242F6FEF85E290E00E94F21F0C
:1012200040910503509106036091070370910803F4
:1012300087E176956795579547958A95D1F74170DF
:101240004195242F6FEF86E290E00E94F21F4091BB
:10125000080341704195242F6FEF82E190E00E94D6
:10126000F21F4091050350910603609107037091AE
:10127000080399E176956795579547959A95D1F723
:1012800041704195242F6FEF81E190E00E94F21FA1
:101290004091050350910603609107037091080384
:1012A0002AE176956795579547952A95D1F741702C
:1012B0004195242F6FEF80E190E00E94F21F409152
:1012C00005035091060360910703709108033BE109
:1012D00076956795579547953A95D1F74170419521
:1012E000242F6FEF8FE090E00E94F21F40910503E2
:1012F000509106036091070370910803ECE1769525
:10130000679557954795EA95D1F741704195242FF8
:101310006FEF88E290E00E94F21F40910503509128
:1013200006036091070370910803FDE176956795C8
:1013300057954795FA95D1F741704195242F6FEF56
:1013400089E290E00E94F21F40910503509106034C
:101350006091070370910803AEE176956795579504
:101360004795AA95D1F741704195242F6FEF8AE2F6
:1013700090E00E94F21F4091050350910603609196
:10138000070370910803442777FD43955527662787
:1013900077274195242F6FEF8BE290E00E94F21F98
:1013A000CDB7DEB7E2E10C94F539FB01863B2DE5C4
:1013B000920759F148F4843B2DE5920771F0F0F45F
:1013C000843C9C4589F03EC0883B2DE5920749F15D
:1013D00018F1893B9D4569F135C08281882399F1D7
:1013E00081E00E9426292CC08281882361F190919E
:1013F000090381E0891B8093090322C0828188232D
:1014000011F18091F0018F5F19C082818823D9F09A
:101410008091F001815012C082818823A1F084E084
:101420000DC08281882379F08091F0018093F101D1
:1014300007C08281882339F08091F1018093F00107
:1014400080E0089581E00895AC01516060E070E0B3
:101450006260736040930503509306036093070333
:101460007093080356985E9825982D9826982E9884
:1014700027982F9881FF02C0259A2D9A82FF02C0DB
:10148000269A2E9A83FF02C0279A2F9A089581E008
:1014900008950E94D509089508950E944C0A089560
:1014A000A5E0B0E0E6E5FAE00C94E83949835A8318
:1014B00030910F0389819A81311114C0662359F04C
:1014C000222349F00E94D210182F682F89819A8117
:1014D0000E94AE1003C00E94C010182F69817A814B
:1014E000812F04C00E94D21069817A810E94A517C1
:1014F0002596E3E00C94043AFC01262F40815181AB
:101500006281738184810E94500A089581E0089568
:10151000CF93DF93EC0160E00E947C0ABE010E9441
:101520004D0ADF91CF9108950E94B10508950E9460
:101530008106089508950E94160D0E949A0A2FEFC1
:1015400084E39CE0215080409040E1F700C000001F
:1015500008950E949B0A0E946A3208950E949B0A85
:101560000E949C3208950F931F93CF93DF938C01B9
:1015700061E00E947C0AEC01B8010E94490A8823BC
:1015800009F447C0B801CE010E94DA2E882309F47D
:1015900040C0B801CE010E94C22C8823D1F1B8010D
:1015A000CE010E94402E8823A1F1B801CE010E94F5
:1015B000252C882371F1F8018281882331F1CB3504
:1015C0008DE5D807E9F050F4C115FCE5DF0779F0A7
:1015D000CF3DDC45D1F40E9415150CC0CD35EDE5AD
:1015E000DE0759F080F0C83ADD4521F00EC00E94B8
:1015F000A90A0FC00E94AE0A0CC00E94031505C0C4
:101600000E940D1502C00E941115C8010E94470AD0
:1016100001C080E0DF91CF911F910F9108950E944A
:101620007B310E944D280E94340B81E00E94D32818
:1016300008950E94380B80E00E94D3280E948131D7
:10164000089508950E94210B089581E008950E9455
:10165000250B08950895CF93C82F0E94220B8C2F3D
:101660000E94270BCF91089580E00E942B0B0895D4
:101670000E9427300E942B0B0895CF930E942730A1
:10168000C82F80910A03C81779F0C0930A030E94FB
:101690000D3260930B0370930C0380930D039093B2
:1016A0000E038C2F0E942B0BCF910895ABE0B0E07E
:1016B000ECE5FBE00C94E939942F4F83252F5887F4
:1016C00069877A878B874A855B85452B31F02F3F69
:1016D00031F481E09F3F19F403C081E001C080E054
:1016E00080FD09C0809110039091110301969093A1
:1016F000110380931003898581110E944B149E0170
:101700002F5F3F4F86E0F90111928A95E9F785E056
:10171000FE013796D90101900D928A95E1F78981F2
:101720009A814C815D81452B31F09F3F31F491E0EE
:101730008F3F19F403C091E001C090E090FF09C011
:1017400049815A816B817C818D819E810E947713B2
:1017500005C0C9010E94860A8111F2CF2B96E2E0F2
:101760000C94053AFC01808191810E940411089536
:10177000CF93882309F4A3C0C82F8238C1F40E94F4
:10178000273081FD9CC069E38091F2019091F301C3
:101790000E941F310E946F142FEF87EE93E02150BB
:1017A00080409040E1F700C0000069E319C0833831
:1017B00001F50E94273080FD82C063E58091F2012F
:1017C0009091F3010E941F310E946F142FEF81EE60
:1017D00094E0215080409040E1F700C0000063E5B4
:1017E0008091F2019091F3010E942D310E946F14BB
:1017F00066C08438C1F40E94273082FD60C067E46F
:101800008091F2019091F3010E941F310E946F14A8
:101810002FEF81EE94E0215080409040E1F700C02E
:10182000000067E4DDCF8CEF8C0F813AD0F46C2F91
:101830008091F2019091F3010E949F30882349F03A
:101840006C2F8091F2019091F3010E942D310E9442
:101850006F146C2F8091F2019091F3010E941F315F
:10186000C5CF80E28C0F883048F4C77081E001C09A
:10187000880FCA95EAF70E942E14B8CFEBE5EC0F5B
:10188000E33040F4F0E0E558FD4F808190E00E94A5
:10189000593015C0E8E5EC0FE73150F4F0E0EE0FF9
:1018A000FF1FE35BFD4F808191810E94713007C073
:1018B000CD3E28F08C2F0E94441A0E94161BCF9117
:1018C0000895882309F467C0823879F40E9427308C
:1018D00081FF61C069E38091F2019091F3010E9460
:1018E0001F310E946F1469E310C08338B9F40E945D
:1018F000273080FF50C063E58091F2019091F301A1
:101900000E941F310E946F1463E58091F201909153
:10191000F3010E942D310E946F140895843879F4E8
:101920000E94273082FF37C067E48091F2019091D6
:10193000F3010E941F310E946F1467E4E6CF9CEF11
:10194000980F913A10F4682FE0CF90E2980F9830FA
:1019500050F4877091E001C0990F8A95EAF7892FBA
:101960000E943414D8CF9BE5980F933028F480E080
:1019700090E00E945930089598E5980F973128F427
:1019800080E090E00E94713008958D3E20F00E942A
:101990009F1A0E94161B08951F93CF93DF93182F51
:1019A000EB010E94B80B209741F08FE99FE001976F
:1019B000F1F700C000002197F6CF812F0E94610C43
:1019C000DF91CF911F910895893319F060E070E0A5
:1019D00002C060E570E00E94CC0C0895882321F0DD
:1019E0000E942E140E946F140895882321F00E94F3
:1019F00034140E946F14089580E090E00E945930E2
:101A000080E090E00E9471300E944B140E946F149D
:101A10000E94351B0E94161B08958091F20190913F
:101A2000F3010E943B310E94FC0C08950E943B147C
:101A30000E940D0D089592959F70963079F010F4E4
:101A4000925001C09A50923068F4803F69F018F4C7
:101A5000883E40F409C0843F29F406C0883E20F047
:101A6000813F11F080E0089581E00895FC019081AC
:101A7000818123813481232B31F08F3F31F481E048
:101A80009F3F19F403C081E001C080E080FD07C0E2
:101A9000808191810E9404110E941B0D089580E0B5
:101AA0000895A0E0B0E0E7E5FDE00C94E2396C01B8
:101AB000C62F172FFC01D281058102950F700E945D
:101AC00024148823B9F0DD23A9F0812F807F80348E
:101AD00021F080E28C0F883068F08091150582FF3C
:101AE00009C082E00E94D1140E94241491E0E82EE3
:101AF000E92601C0E12CB12EB2942FE0B2228B2D49
:101B000090E08C30910508F0A4C1FC01E35AFF4F2E
:101B10000C94D339912F9F70812F807FF92E19F06B
:101B2000F29490EFF922DD2399F0FF2009F47DC1B2
:101B300080E28C0F883010F0C11104C08F2D0E94FC
:101B40002E1403C08F2D0E943E140E946F146DC18D
:101B50008C2F0E94610CFF2009F47BC180E28C0F66
:101B6000883050F1CC2341F18F2D0E94441427C0BE
:101B7000912F9F70812F807FF92E803219F0F2947F
:101B800080EFF822CC2319F0C130A1F13FC0809141
:101B9000150582FD17C0DD2349F0FF2029F08F2DA8
:101BA0000E942E140E946F1480E040C180E00E94C9
:101BB000610CFF2009F44DC18F2D0E9434140E9446
:101BC0006F1447C1DD2371F0002341F0013031F47F
:101BD0000E944E148F290E9458143BC10E944E143B
:101BE0008F290EC0002319F0013009F432C10E9480
:101BF000651413C0DD2339F0023008F02AC18F2D9F
:101C00000E94EE0C26C1011124C107C0DD2319F08A
:101C10000023A9F30AC101110EC18F2D0E94F50CFA
:101C200018C1812F86958695837019F0813061F0F7
:101C300010C1DD2321F08C2F912F937002C080E022
:101C400090E00E9459300DC1DD2321F08C2F912F9F
:101C5000937002C080E090E00E94713002C18C2F2E
:101C6000DD2319F00E94441A02C00E949F1A0E94AC
:101C7000161BF7C0812F8370B9F5D111EEC04C2F20
:101C8000429546954770440F440F8C2F8F7090E01B
:101C90009C01042E02C0220F331F0A94E2F7C4FFF6
:101CA0000AC08FE090E002C0880F991F4A95E2F7C2
:101CB0008095909502C080E090E0412F4695469532
:101CC0004370822B932B423049F058F4413019F085
:101CD0000E94DF0FC2C00E94D60FBFC00E94E80F53
:101CE000BCC00E94D30FB9C0DD2319F0812F8170D1
:101CF00001C08695882309F4B0C04C2F42954695C3
:101D00004770440F440F8C2F8F7090E09C01042E7D
:101D100002C0220F331F0A94E2F7C4FF0AC08FE00B
:101D200090E002C0880F991F4A95E2F78095909540
:101D300002C080E090E0412F469546954370822B8B
:101D4000932B423049F058F4413019F00E94491069
:101D500084C00E94401081C00E9452107EC00E9428
:101D6000F40F7BC0912F9F70F92EDD2339F0892F5E
:101D70000E940E108C2F0E94EE0C6FC08C2F0E94C0
:101D8000F50C8F2D0E941E1068C0C23F19F128F477
:101D9000C03F41F0C13FB9F044C0C33F11F1C43F5F
:101DA00071F03FC0DD2339F0011153C0812F8F71D5
:101DB0000E9430104EC0023008F04BC0F7CF809127
:101DC000150582FD18C0DD2339F0812F8F710E9427
:101DD0000E103FC0DD23C9F3812F8F710E941E10AA
:101DE00038C0DD2329F0812F8F710E94021031C08D
:101DF0000E94FD0F2EC0DD2359F0E12FEF71FE2E62
:101E00008E2F0E940E1063E08F2D0E94B31421C00C
:101E100081E00E94D1140230E0F082E00E94D114EF
:101E200018C0DD2331F0002381F28C2F0E94B80B03
:101E300010C0002389F2C93349F4FFEF27EE83E095
:101E4000F15020408040E1F700C000008C2F0E943C
:101E5000610C88EF8B0D843020F40E9427300E94A3
:101E60002B0B8C2F912F0E941B0D811105C01092FE
:101E700011031092100311C0DD2319F00111F7CFE7
:101E80000CC00111F4CF80911003909111030297BF
:101E900071F78C2F0E94E40CEACFEE2089F00E94AB
:101EA000201480FD0DC0F60112820E941A140E94B7
:101EB0000E10C6010E947D0F0E941A140E941E106F
:101EC000CDB7DEB7E9E00C94FE390F931F93CF93A3
:101ED000DF93EC01688179818A810E940F118C0166
:101EE0000E945B100E94C20FB801CE010E94510DEA
:101EF000DF91CF911F910F910895CF93DF93EC0164
:101F0000988189812B813C81232B31F08F3F31F4E3
:101F100081E09F3F19F403C081E001C080E080FDB3
:101F20001AC0CE010E94B30A81110FC00E9424146E
:101F3000882389F08A81882371F08091150582FFBA
:101F40000AC082E00E94D11406C0CE010E94650F33
:101F5000CE010E94880ADF91CF910895A5E0B0E0FC
:101F6000E4EBFFE00C94E9392596E2E00C94053AA5
:101F7000A6E0B0E0EEEBFFE00C94E9392696E2E053
:101F80000C94053A089508950E94C30F08950E9485
:101F9000C40F08950E94C70F90934103809340039C
:101FA0000E94FC0C08950E94CA0F089520914003DE
:101FB00030914103822B932B0E94CA0F08952091E8
:101FC000400330914103822393230E94CA0F089556
:101FD0002091400330914103822793270E94CA0F2A
:101FE00008950E94240A08950E94F10F90933F03E0
:101FF00080933E030E94FC0C089580E090E00E94D4
:10200000F40F089521E030E0A90102C0440F551FEC
:102010008A95E2F7CA010E94F40F089521E030E0AA
:1020200002C0220F331F8A95E2F780913E03909100
:102030003F03822B932B0E94F40F089521E030E0A0
:1020400002C0220F331F8A95E2F7209530958091C8
:102050003E0390913F03822393230E94F40F08953F
:1020600021E030E002C0220F331F8A95E2F7809111
:102070003E0390913F03822793270E94F40F089517
:1020800020913E0330913F03822B932B0E94F40F4B
:10209000089520913E0330913F03822393230E94B1
:1020A000F40F089520913E0330913F038227932738
:1020B0000E94F40F08950895962F9770A1E001C033
:1020C000AA0F9A95EAF793E0769567959A95E1F7C6
:1020D000660F771F660F771FFA01E60FF71F40E0C4
:1020E00050E0682F70E090819B01042E02C036956D
:1020F00027950A94E2F72170219529272A23292779
:1021000021934F5F5F4F4430510569F70895FB01FC
:10211000782F777023E0969587952A95E1F7880FB9
:10212000991F880F991FE80FF91F40E050E080E0E9
:10213000219130E0072E02C0369527950A94E2F7E8
:1021400021703327042E01C0220F0A94EAF7822B54
:102150004F5F5F4F4430510559F70895282F9E3047
:1021600070F4863060F4862F622F70E026E0929F34
:10217000600D711D112442E153E00E945C1008952E
:102180009E3070F4863060F4292F90E062E173E0B5
:1021900036E0239F800D911D11240E948710089521
:1021A00080E00895A0E0B0E0E8EDF0E10C94E239C1
:1021B0007C0100913E0310913F0380914003909178
:1021C0004103082B192BCFE0D0E0CC24C394D12CB1
:1021D000C6010C2E02C0880F991F0A94E2F78023D3
:1021E0009123892B21F4219798F7B12C07C0BC2E9D
:1021F000B7018C2F0E94BE170197A9F38B2DCDB785
:10220000DEB7E9E00C94FE39CF93DF93EC010E9436
:10221000D210BE010E94BE17DF91CF9108951F9387
:10222000CF93DF93EB0190910F03992321F0CB0122
:102230000E94041113C0882349F0CB010E94D210E0
:10224000182F682FCE010E94AE1004C0CB010E944F
:10225000C010182FBE01812F0E94BE17DF91CF91B1
:102260001F9108951F93CF93DF93C091420316E00F
:1022700080914303C81799F0D0E01C9FF0011D9F87
:10228000F00D1124EC5BFC4F408151816281738120
:10229000848195810E94B80F2196C770E9CFDF91A4
:1022A000CF911F91089540917403509175036091EF
:1022B00076037091770380917803909179030E945F
:1022C000B80F08950F931F93CF93DF9380917903F5
:1022D00082958F7009F05AC080917603882309F4A3
:1022E00055C0809142031091430360917403709133
:1022F0007503C0917703D091780391E06F3F09F0A7
:1023000090E0292F06E0811709F440C0209721F0C2
:102310007F3F21F030E003C031E001C0322F90E078
:1023200030FD31C0089FF001099FF00D1124DF013D
:10233000AC5BBC4F11963C911197371324C03C9174
:10234000361321C012963C91129731111CC013967E
:102350004D915C9114974C1B5D0B4436510598F4DC
:10236000809179038F70806180937903E75BFC4FE4
:1023700080818F708061808384E793E00E947D0F6D
:102380000E94321103C001968770BDCFDF91CF91BB
:102390001F910F910895A1E1B0E0E1EDF1E10C94FE
:1023A000E0398C0185E0F801DE011D9601900D9267
:1023B0008A95E1F7F801E2809091740360917503CA
:1023C00020917703309178032115310531F06F3F6B
:1023D00031F481E09F3F19F403C081E001C080E047
:1023E000F82FF1709F2E80FD40C1F801408151818E
:1023F000A380B48084E7C82E83E0D82EF0907603C3
:10240000F501E21BF30BFF2009F4DAC08091790398
:10241000E436F10508F096C0282F207F09F053C05C
:10242000561313C0491311C0FE2CE1100EC08F705B
:102430008061809379030E945311C6010E947D0F31
:1024400080917903F80185834DC1A114B10431F065
:102450005F3F31F481E04F3F19F403C081E001C0D8
:1024600080E080FD03C081E08E2502C080E090E026
:10247000F82FF170FF2E80FF1CC080914203209145
:10248000430336E0821709F40BC190E0389FF00156
:10249000399FF00D1124EC5BFC4F6181561306C08F
:1024A0006081461303C06281E61203C00196877003
:1024B000E9CFFE2CEE2009F415C1809179038160EB
:1024C0008093790354C0561306C0491304C0E11029
:1024D00002C0F80199C0C8010E94360D882361F13D
:1024E000EE2051F120917903822F82958F7090E038
:1024F000029774F0809174039091750398878F838D
:102500001986BB86AA862C87CE0107960E947D0F6E
:1025100086E0F801A4E7B3E001900D928A95E1F717
:102520000E9462110E9453110AC0561711F1C8018E
:102530000E94360D81112CC0C8010E947D0FFF241E
:10254000F394D0C0282F207F81F77A2DB98AA88AEA
:102550006E2D89890E94AE0F84E793E00E947D0F63
:1025600086E0F60111928A95E9F70E945311F12C49
:10257000B9C04913DCCFE110DACFF8018583C80177
:102580000E947D0F86E0F60111928A95E9F7AAC0B4
:10259000EE2091F220917903822F82958F7090E046
:1025A00002970CF4B5CF80917403909175039A83D0
:1025B00089831B82BD82AC822E83CE010196A6CF79
:1025C000E436F10508F044C0FE2CEE2009F4B4CF47
:1025D000561330C049132EC02091790320FD21C02D
:1025E000822F82958F70482F50E041155105C9F018
:1025F000F80125834F30510541F08F5F982F929558
:10260000907F822F8F70892B8583C8010E947D0F58
:1026100086E0F801A4E7B3E001900D928A95E1F716
:102620003CC086E0F801A4E7B3E001900D928A95E2
:10263000E1F758C0C8010E94360D811169CF809121
:102640007903816080937903C8010E947D0F4AC09D
:102650007A2DB98AA88A6E2D89890E94AE0F86E0EC
:10266000F60111928A95E9F718C0EE2009F464CFBB
:10267000C8010E94360DF82E882309F45DCF86E04C
:10268000F801A4E7B3E001900D928A95E1F784E7A1
:1026900093E00E94B20B0E9462110E94531122C06B
:1026A0004D875E878D859E850E940411292F229576
:1026B0002F70223028F49F7039F0811105C00BC0B3
:1026C000243028F49F7049F4805E883020F0C801DF
:1026D0000E947D0F9F2CF92C05C0F8019581907FF9
:1026E00099F7F9CF8F2D6196EBE00C94FC39ACE0B3
:1026F000B0E0EDE7F3E10C94E8394F835887698740
:102700007A878B879C87CE0107960E94CB118823FE
:10271000D1F09F8188852A853B85232B31F08F3F1F
:1027200031F481E09F3F19F403C081E001C080E0F3
:1027300080FD47C04F81588569857A858B859C854A
:102740000E94B80F3EC086E0FE013796DE0111966A
:1027500001900D928A95E1F7FF81E8856A857B8576
:102760006115710531F0EF3F31F481E0FF3F19F45D
:1027700003C081E001C080E080FD23C020914303BD
:1027800030E0C9010196877099274091420350E0DB
:1027900084179507F1F1F983EA837D836C8396E0D2
:1027A000929FD001939FB00D1124AC5BBC4FFE01F2
:1027B000319601900D929A95E1F7809343030E9420
:1027C000321116E08091420390914303891771F111
:1027D000189FC00111248C5B9C4F0E94CB11882351
:1027E00029F1E09142031E9FF0011124EC5BFC4FA4
:1027F0004081518162817381848195810E94B80FEB
:102800008091420390E0019687709927809342035C
:10281000D9CF0E94160D1092430310924203E4E7B1
:10282000F3E086E0DF011D928A95E9F72C96E3E05C
:102830000C94043A80919A03859585958595089521
:1028400080919A038770089590919A03977081E020
:1028500009F480E008958091BD0308959091BD032F
:10286000892B8093BD03089580959091BD038923A2
:102870008093BD0308951092BD0308959091BC0309
:10288000892B8093BC03089580959091BC03892384
:102890008093BC0308951092BC03089580919B031C
:1028A000089508950E94511408950E9452140895A5
:1028B0009091150592FF08C090919B03981721F005
:1028C00080939B030E945514089580919B03882355
:1028D00029F010929B0380E00E9455140895CF9335
:1028E000DF93E091F201F091F3018091BD038083C9
:1028F000E091F201F091F30190818091BC03892B6A
:10290000808380919B03882381F0E091F201F09114
:10291000F3019081892B80838091F2019091F301E2
:102920000E94893081110E946514C091F201D091FA
:10293000F30140E250E06AE773E0CE010E94963B6B
:10294000892B59F080E2FE01AAE7B3E001900D92D5
:102950008A95E1F7CE010E943430DF91CF9108953E
:102960000E94511408959091150592FF11C098E0AE
:10297000899F90011124262B20939A030E940E1008
:1029800080919A038595859585950E94B014089548
:102990000E940E10089510929A0380E00E94B014D5
:1029A000089520919A038095822380939A03982F0B
:1029B000977099F430E0482F082E000C550B24171F
:1029C000350759F09091150592FF07C085958595BB
:1029D00085950E941E100E94CB14089590911505B4
:1029E00092FB222720F9281769F080FB92F9909337
:1029F000150580911405909115050E94421582E0FD
:102A00000E94D11408958091150582FB882780F9D2
:102A100091E089270E94EE14089581E00E94EE144F
:102A2000089580E00E94EE1408956FEF7FEF80E03C
:102A300090E00E94F53B089580E090E00E94C13B49
:102A400021E0883E9E4F09F020E0822F089582E029
:102A500090E00E94B33B089583E090E00E94B33B76
:102A60000895CF9384E090E00E94B33BC82F82E2A8
:102A700090E00E94B33B2C2F30E0A901582BCA01F3
:102A8000CF910895CF93C92F682F84E090E00E94E2
:102A9000D73B6C2F82E290E00E94D73BCF91089504
:102AA0008FE090E00E94BB3B0895AB01BC018FE03A
:102AB00090E00E94E93B0895AB01BC0183E190E006
:102AC0000E94E93B089560E070E0CB010E945C1534
:102AD000089568EE7EEF80E090E00E94F53B60E0B4
:102AE00082E090E00E94D73B60E083E090E00E94AB
:102AF000D73B109241031092400360E084E090E0E5
:102B00000E94D73B64E082E290E00E94D73B60E005
:102B100085E090E00E94D73B60E086E090E00E9474
:102B2000D73B6FEF87E090E00E94D73B40E050E05A
:102B3000BA0188E090E00E94E93B60E08DE090E01F
:102B40000E94D73B40E050E0BA0188E190E00E944B
:102B5000E93B60E087E190E00E94D73B40E050E035
:102B6000BA018CE190E00E94E93B60E070E080E215
:102B700090E00E94F53B40E050E0BA0188E190E02F
:102B80000E94E93B0E94680608950E946915089515
:102B9000682F8EE090E00E94D73B08950E940D328E
:102BA0006093D2037093D3038093D4039093D5039F
:102BB0006093CE037093CF038093D0039093D1039F
:102BC000089581E008950E94E115089508950E94F6
:102BD000E61508950E94840608950E94E61508955A
:102BE0000E94ED1508950E94E615089582EA98E185
:102BF0000E941D300E94F3150E94F01508950E9456
:102C0000E7150E94E61508950E94A5180E942A0B58
:102C10000E94B52808950E94F8310E94E6180E948B
:102C200004160E94EA150895AAE0B0E0EAE1F6E190
:102C30000C94E0390E94F81880ECE82E83E0F82E1E
:102C4000670100E0F60111916F01802F0E94D818F2
:102C500081270F5F0E3019F08823A1F322C0811164
:102C600020C00E9401328C018091BE039091BF036D
:102C70000817190709F456C08FEF89838A831B82CE
:102C80000E9401328160782F9D838C8349815A8113
:102C90006B818D810E94560B1093BF030093BE037E
:102CA00041C08091D60381FD0E94DE180E94E31589
:102CB000982E10E0812F0E94D818B82EF701C080FE
:102CC000C82641F100E0DD24D3948C2D8D21E1F064
:102CD000AA24A3948B2D8D2109F4A12C992079F09D
:102CE0000E831F83A8860E9401328160782F9A8705
:102CF00089874E815F8168858A850E94560B4A2D9F
:102D0000602F812F0E94A1240F5FDD0C0630E9F6B1
:102D1000F701B0821F5FFFEFEF1AFF0A1E3051F676
:102D20000E94CE150E944D280E94571B0E943D0B09
:102D30002A96EBE00C94FC39CF93DF930E94C317E3
:102D4000EC01811521E5920708F046C0811530E5B8
:102D5000930708F094C0883E910528F5803E9105C0
:102D600008F0EFC0883A910570F4853A910508F0B3
:102D70007CC08130910509F475C008F4DFC0049768
:102D800008F0DFC0DBC08F3B910508F0D7C0C85A00
:102D9000D0E0CC0FDD1FC258DD4F0990D881C02D87
:102DA000CE019464CFC0C11580E2D80760F4C1158C
:102DB00021E0D20708F0C5C0CD3ED10508F4BEC061
:102DC000CE019065BFC0C11530E4D30708F4B6C08A
:102DD000DF70CE01906AB6C0C11585E5D807A8F4AA
:102DE000C11524E5D20708F08BC0C11533E5D30720
:102DF00008F070C0C11582E5D80708F055C0DC2F77
:102E0000CC27CE01816F906A9DC0C11529E5D207FC
:102E1000A0F4C11538E5D30708F078C0C11586E5E0
:102E2000D80708F08BC08C2F0E945F188F7190E03C
:102E3000D82FCC27CE01906285C0C1152AE5D207D4
:102E400008F46AC0CE0190568115904208F076C011
:102E50008D2F8F710E945F18DD27D0628F719E01C8
:102E6000382B6AC081E090E06DC0C55AD0E0C455EF
:102E7000DD4F8881C82FD0E0CE01906463C083709D
:102E8000992721E030E002C0220F331F8A95E2F734
:102E90009C2F9695969580E2989FE0011124C22B75
:102EA000D32BCE019D684EC0CE018370992721E0BF
:102EB00030E002C0220F331F8A95E2F79C2F9695CF
:102EC000969580E2989FE0011124C22BD32BCE016E
:102ED0009C6838C0CE018370992721E030E002C0A1
:102EE000220F331F8A95E2F79C2F9695969580E2E4
:102EF000989FE0011124C22BD32BCE019A6822C0E7
:102F0000DC2FCC27CE01846F906A1CC0DC2FCC272D
:102F1000CE01806F906A16C08C2F8F700E945F1850
:102F200094E0D695C7959A95E1F7CF70D0E0DC2F65
:102F3000CC27D0699E01282BC90104C080E090E015
:102F400001C0CE01DF91CF9108957E30A0F46630AC
:102F500090F494E5899FF001112486E0789FE00DBC
:102F6000F11D1124E60FF11DEE0FFF1FEA55FE4F74
:102F700085919491089580E090E008950E94A517AE
:102F80000E949C1608958238910569F1B0F481334E
:102F9000910509F475C048F48932910509F467C0B8
:102FA0008A32910509F471C008958533910509F4B9
:102FB00059C089339105B9F00895833E910589F18F
:102FC00038F4803E9105D1F0823E910529F10895B3
:102FD000863E9105C9F1873E9105D9F1843E910560
:102FE00009F06CC027C02091140520FD57C021FDB9
:102FF00055C02091150523FD5BC0089580911405EF
:1030000080FD48C08091150580FF48C0809114055F
:1030100084FD46C083EE51C08091140582FF3CC000
:10302000F5CF8091140582FD37C08091150580FD94
:1030300035C0ECCF8091150581FF36C08091140515
:1030400084FD2EC087EE39C08091140583FF2AC00D
:10305000F5CF8091140583FD25C08091150581FD74
:1030600023C0ECCF8091140585FD22C01FC0809144
:10307000140585FD1BC08091150583FF19C00AC08A
:103080008091140586FD16C017C08091140586FD39
:1030900013C010C089E311C082EE0FC080EE0DC0D6
:1030A00080E00BC086EE09C084EE07C085E305C052
:1030B00089E203C08AE201C081E390E00895909123
:1030C000140592FF0DC0282F2871283019F4877F2E
:1030D000846006C0282F2471243011F48B7F88600F
:1030E00093FF0DC0282F2871283119F4877E846141
:1030F00006C0282F2471243111F48B7E8861209121
:10310000150520FF0DC0382F3871383019F4877F2E
:10311000816006C0382F3171313011F48E7F8860A4
:1031200021FF0DC0282F2871283119F4877E816175
:1031300006C0282F2171213111F48E7E886194FD03
:10314000877E089580E0089508950E941C158111DE
:1031500002C00E94C5150E9427158093D6030E94C5
:10316000311590931505809314050E94A4180E94B0
:103170002C1590E00E94D30F80913E0390913F0365
:103180000E94F10F0895E82FF0E0EC5DFA4F2081E6
:10319000822F90E021E030E002C0220F331F6A95B9
:1031A000E2F72823392381E0232B09F480E00895F6
:1031B000E82FF0E0EC5DFA4F8081089508950895BE
:1031C0000E94DF1808950E94DF1808950E94E60407
:1031D000E6E1F5E0A4E2B5E011921D9285E0E4326B
:1031E000F807D1F78EE00E940B190E94940A089507
:1031F000CF9386E195E00E94F204282F4EE064E22E
:1032000075E086E195E00E941E19C82F0E94970A7A
:103210008C2FCF910895CF93C82F90E00E94103A41
:103220008093DB039093DC03282FFC018E2F821BFD
:103230008C1710F41192FACFCF910895A0E0B0E06E
:10324000E4E2F9E10C94E439082FF92EE62ED72EAA
:10325000142FD22F1092D703C091D803CC23C9F1D9
:103260000E9401322091D9033091DA03AC01421B54
:10327000530B9A019093DA038093D9034F3F510582
:1032800009F020F4452B09F468C002C02FEF30E0AC
:103290001092D8031092DD034091DB03E42FF091EC
:1032A000DC0390E030E08E2F841B811768F480816E
:1032B000882341F0281718F010829C2F03C0821B2E
:1032C00080833C2F3196EFCF3093D8039093DD036A
:1032D00044C02223D1F10E9401329093DA038093FB
:1032E000D9034091DB038091D7039091D803AE2D91
:1032F000BD2DC02FDF2DE42FF091DC035EE12E2FDA
:10330000241B2117B8F428813C91321779F03081C1
:1033100031110CC050832C9398819227282F30E0D4
:10332000292B81E0232B09F480E091E0319611965E
:103330002196E5CF8093D7039093D8038091D7034C
:10334000CDB7DEB7E7E00C94003A80E09091DD0362
:103350009923A1F38111C5CFBECFD111C2CF81E096
:10336000F5CF0E9453340E940B160E9460340895DA
:103370000E9465340E9414160E947F3408950E94B2
:1033800098310E9439340E94F6150E94B1190E94AA
:10339000B8190E94FF15FBCF8091E50380FF06C09E
:1033A0006091F90170E0660F771F26C081FF04C0AD
:1033B0006091F90184E005C082FF07C06091F901C6
:1033C00088E0689FB001112417C09091E40399230D
:1033D000D1F06091F801961788F72091F90188E003
:1033E000289F90011124929FA001939F500D1124BA
:1033F00070E0CA010E949D396038710540F4611582
:10340000710519F406C068E070E0862F08958FE713
:10341000089581E008958091E50380FF08C06091E0
:10342000F50170E0759567957595679521C081FFE9
:1034300006C06091F50170E07595679519C082FF2F
:1034400004C06091F50170E010C09091E3039923EE
:1034500099F06091F4019617A0F78091F501899F8A
:10346000C001112470E00E949D396038710540F45C
:103470006115710519F406C061E070E0862F0895AA
:103480008FE7089581E008958D3E21F40E94CC19C4
:10349000819504C08E3E29F40E94CC198093E803E4
:1034A00008958F3E21F40E94CC19819504C0803F7D
:1034B00029F40E94CC198093E7030895893F19F4F9
:1034C0000E940B1A05C08A3F31F40E940B1A8195A5
:1034D0008093E90308958B3F21F40E940B1A819594
:1034E00004C08C3F29F40E940B1A8093EA030895CC
:1034F0009FE0980F983078F421E030E0A90102C0F5
:10350000440F551F9A95E2F7CA019091E603892B63
:103510008093E60308958D3F21F48091E503816057
:103520000BC08E3F21F48091E503826005C08F3F80
:1035300029F48091E50384608093E50308958D3E2E
:1035400039F49091E80397FF35C01092E80359C011
:103550008E3E29F49091E8031916BCF32BC090918C
:10356000E7038F3E29F497FF25C01092E70349C077
:10357000803F19F41916CCF31DC09091E903893FDF
:1035800029F41916BCF41092E9033BC08A3F19F4E0
:1035900097FF10C0F8CF8B3F39F49091EA0397FF63
:1035A00009C01092EA032DC08C3F21F49091EA03E8
:1035B0001916BCF39FE0980F983080F421E030E0BA
:1035C000A90102C0440F551F9A95E2F7CA018095E0
:1035D0009091E60389238093E60313C08D3F21F485
:1035E0008091E5038E7F0BC08E3F21F48091E5032F
:1035F0008D7F05C08F3F29F48091E5038B7F8093F9
:10360000E5038091E703811106C08091E8038111F1
:1036100002C01092E4038091E903811106C08091F9
:10362000EA03811102C01092E30308950E9401325F
:103630002091E703211104C02091E803222321F007
:103640009093E2038093E1032091E903211104C0E8
:103650002091EA03222321F09093E0038093DF037B
:1036600086EE93E00E944E300895E6EEF3E085E0AA
:10367000DF011D928A95E9F71092E4031092E303AB
:103680001092E5030895FC01818181110DC08281B2
:1036900081110AC08381811107C091E08481811169
:1036A00001C090E0892F01C081E081700895A5E0FC
:1036B000B0E0EDE5FBE10C94E83985E0E6EEF3E0FF
:1036C000DE01119601900D928A95E1F71092E703C1
:1036D0001092E8031092E9031092EA038A818111A3
:1036E00004C08B81882309F45FC08091E10390912D
:1036F000E2030E941932AC019091E403992339F05E
:103700002091FA0130E02417350758F04DC0209180
:10371000DE038AE0289F900111242417350718F052
:1037200043C09F3F19F09F5F9093E4031A811123D8
:1037300061F00E94CC19111614F09FEF01C091E0C6
:10374000989F902D11249093E7031B81112361F022
:103750000E94CC19111614F09FEF01C091E0989FC0
:10376000902D11249093E8033091E7033323E1F087
:103770002091E8032223C1F045EB3403C00111245A
:10378000992319F09093E70303C081E08093E70346
:1037900035EB2303C0011124992319F09093E8031A
:1037A00003C081E08093E8038C81811104C08D8186
:1037B000882309F45FC08091DF039091E0030E94A9
:1037C0001932AC019091E303992339F02091F6016D
:1037D00030E02417350758F04DC02091F7018AE0FA
:1037E000289F900111242417350718F043C09F3FEC
:1037F00019F09F5F9093E3031C81112361F00E94F5
:103800000B1A111614F09FEF01C091E0989F902DB4
:1038100011249093E9031D81112361F00E940B1A7A
:10382000111614F09FEF01C091E0989F902D112484
:103830009093EA033091E9033323E1F02091EA0306
:103840002223C1F045EB3403C0011124992319F060
:103850009093E90303C081E08093E90335EB2303F0
:10386000C0011124992319F09093EA0303C081E069
:103870008093EA03BE016F5F7F4F86EE93E00E9464
:103880004D31811105C086EE93E00E94431B8111EA
:103890000E94161B85E0FE013196A6EEB3E0019072
:1038A0000D928A95E1F72596E3E00C94043AEF92A5
:1038B000FF920F931F93CF93DF938B01682F11110A
:1038C0000AC0442329F0E82FF0E0EA56FA4F649149
:1038D000762F862F75C0212F30E0E82FF0E04423AB
:1038E00021F0EA56FA4FE491F0E046E0049FC0016F
:1038F0001124CFEFD0E0BE010E9489394BEA460384
:10390000C001479F900D1124800F911D800F911DC4
:10391000982F990F890FAE01421B530B4E9FD00178
:103920004F9FB00D5E9FB00D11249B2F189FA001DB
:103930001124452F55278E01041B150B0E9FA00146
:103940000F9F500D1E9F500D11247E01E81AF108A3
:10395000E29E8001E39E100DF29E100D1124212F96
:103960003327C21BD30BCE9F9001CF9F300DDE9F1C
:10397000300D112462307105A9F048F4611571050C
:1039800069F061307105C9F48B2F752F0DC064305B
:10399000710581F058F06630710579F47E2F8B2F18
:1039A000932F0DC0832F7B2F9E2F09C08E2F7B2F2F
:1039B000952F05C08E2F732F02C07E2F852F692F64
:1039C000CDB7DEB7E6E00C94013A41E00E94571C07
:1039D000089520E030E0869F212D969F200D311D17
:1039E0001124C9010895BC018230910508F408959D
:1039F000613E8EE1780748F49B0195E03695279566
:103A00009A95E1F748E0420F01C04FEF91E0242F73
:103A100030E0290F311D35952795229FF001239F16
:103A2000F00DF00D11246E177F0718F44FEF420FC1
:103A300004C02F3F39F091E0920F491740F78FEF04
:103A4000890F08958FEF089540910102509102026D
:103A500025E038E0429FC001439F900D529F900D9A
:103A60001124875E994C9093020280930102890F82
:103A70000895482F982F46FD9095E92FEF739F707A
:103A800046FD9F5FE295EF70EE0FF0E0E155FD4FD0
:103A90002181299F802D212D112482958F702295BF
:103AA000207F822B3081982F930F892F47FD81959E
:103AB00080580895E42FF0E0EE0FFF1FE25AFE4F0A
:103AC000408134EE439F412D1124E72FF0E050E078
:103AD000445E5F4FDA01A21BB1099D01B7FF03C02D
:103AE00031952195310993E0220F331F9A95E1F723
:103AF000AF01421B530B9A0157FF02C020E030E098
:103B0000279F212D1124722F0895E42FF0E0EE0F4E
:103B1000FF1FE25AFE4F408134EE439F412D112496
:103B2000E82FF0E050E0445E5F4FDA01A21BB109DC
:103B30009D01B7FF03C031952195310993E0220F14
:103B4000331F9A95E1F7AF01421B530B9A0157FFC0
:103B500002C020E030E0582F259F212D1124822F14
:103B60000895622F0895E42FF0E0EE0FFF1FE25A50
:103B7000FE4F6081621B0895E42FF0E0EE0FFF1FFF
:103B8000E15AFE4F6081621B0895A22F50E0FA01B6
:103B9000EE0FFF1FE15AFE4F9081905297FD9195D5
:103BA000440F551FFA01E25AFE4F3081232F30E0B7
:103BB0002A1B3109290F311D97FD3A95620F08958F
:103BC000EF920F931F9393E0099F800111241595A5
:103BD00007956E2D600F1F910F91EF9008950F9331
:103BE000CF93DF93D72FC82F47FD4195E8E3F0E04F
:103BF000CF01841B910947FD9395889FB001899F50
:103C0000700D700D1124229FC001239F900D900D07
:103C10001124860F971F0E94F31C682F660F860FD2
:103C2000682F600F7D2F8C2FDF91CF910F9108951A
:103C30000F931F93522F10E0F801EE0FFF1FE15A70
:103C4000FE4FE081F0E0B0979F015203D001539FF7
:103C5000B00D1124000F111FF801E25AFE4F008130
:103C600010E00057110940039001419F300D1124CD
:103C70002A0F3B1F37FF02C021583F4F220F232F2F
:103C8000221F330B620F1F910F9108950F931F9303
:103C9000522F10E0F801EE0FFF1FE15AFE4FE081B6
:103CA000F0E0B097EE0FFF1F9F015203D001539F2A
:103CB000B00D1124000F111FF801E25AFE4F0081D0
:103CC00010E000571109000F111F40039001419FA0
:103CD000300D11242A0F3B1F37FF02C021583F4FE0
:103CE000220F232F221F330B620F1F910F91089574
:103CF0000F931F9310E0F801EE0FFF1FE25AFE4FE3
:103D00009081905797FD9195000F111FF801E15A8E
:103D1000FE4FE081F0E0B097DF01AA0FBB1F8D01DD
:103D20000E0F1F1F2003D001219FB00D1124E8E3C7
:103D3000F0E0E91BF10997FDF3959F01220F331F76
:103D400089010E0F1F1F40039001419F300D112468
:103D50002A0F3B1F37FF02C021583F4F220F232F4E
:103D6000221F330B620F1F910F9108950F931F9322
:103D7000CF93DF93D62F072F182FC42F822F0E94A7
:103D8000391DEC2FF0E0EE0FFF1FE25AFE4F90813D
:103D90009058890F87FD8195880F682F2CE0629FCE
:103DA000612D11246D0F702F812FDF91CF911F9105
:103DB0000F910895E42FF0E0EE0FFF1FE25AFE4F3F
:103DC0009081921B97FD9195292F38E1239F212DFA
:103DD0001124620F08952091360530E1230F08F475
:103DE0002FEF60E1822F90E00E94E91CBC0188EB7C
:103DF0009BE00E94893980E090E008959091B104A1
:103E0000892B8093B1040895FC019B01009721F454
:103E100077FF2BC080E80895AC0197FF04C04427CA
:103E20005527481B590BB901640F751F37FD0CC08E
:103E3000241B350BC901A5E0880F991FAA95E1F74E
:103E40000E949D3980E20CC0CB0165E0880F991F6C
:103E50006A95E1F7BA01621B730B0E949D3980E6F7
:103E6000861BF7FF03C08195089580E00895FF92B7
:103E70000F931F93CF93DF93F62E172FD82FC901DF
:103E8000C72FC01BBA010E94041F982F990F890FDA
:103E90007C2F781B719F712D11246F2D8D2FCDB725
:103EA000DEB7E5E00C94023AFF920F931F93CF9395
:103EB000DF93F62ED72F182FC901C12FC01BBA01CF
:103EC0000E94041F982F990F890FC81B2C2F219F28
:103ED000212D1124822F6F2D7D2FCDB7DEB7E5E088
:103EE0000C94023AEF920F931F93CF93DF93D62F48
:103EF000172FC82FC9010E19070FBA010E94041FFE
:103F0000702F781B719F712D11246D2F8C2FDF91D5
:103F1000CF911F910F91EF900895EF920F931F9300
:103F2000CF93DF93D62FC72F182FC9010E19010F7A
:103F3000BA010E94041F081B202F219F212D11244C
:103F4000822F6D2F7C2FDF91CF911F910F91EF90DA
:103F500008950F93CF93DF93D72FC82FC901BA01CC
:103F60000E94041F682F600F7D2F8C2FDF91CF914F
:103F70000F910895EF920F93CF93DF93D72FC82F10
:103F8000C9010E19BA010E94041F602F681B7D2F02
:103F90008C2FDF91CF910F91EF9008950E94E51C37
:103FA0000895E2E3F5E085E3808380910E0290912D
:103FB0000F02A091100281839283A3838FE78483F1
:103FC0008FEF858346E050E06CE170E0CF010E9406
:103FD000C73B1092B1040895E091BD02F091BE027A
:103FE00009950895E091B902F091BA0209950895F2
:103FF0004F925F926F927F928F929F92AF92BF92F9
:10400000CF92DF92EF920F931F93CF93DF932C0108
:104010003B01FC018081C82FCC0FCC0FC80FD5E02D
:10402000DC0FD13308F0D0E36091360566958091BE
:104030003805909139050E94E91C182FCD1708F01A
:1040400044C08C2E912CF401E254FE4F9081F20179
:1040500081818923C1F1F401EE0FFF1FE25AFE4F67
:10406000C080D12CF0E7CF1AD108F401EE0FFF1F6A
:10407000E15AFE4FA080B12C80E2A81AB108CC9C76
:104080009001CD9C300D300D1124AA9CC001AB9C39
:10409000900D900D1124820F931F0E94F31C082F86
:1040A000609133057091340580913505E12E9501BD
:1040B000A601F30109950E94CE1F462F282F672FD6
:1040C000C4010E94F21FCF5FB9CF81E0D03308F066
:1040D00080E0DF91CF911F910F91EF90DF90CF9013
:1040E000BF90AF909F908F907F906F905F904F9018
:1040F000089562E77FE10E94F81F08956DE87FE16F
:104100000E94F81F089560EE7DE10E94F81F089557
:104110006AEB7FE10E94F81F0895A0E0B0E0E3E9B8
:10412000F0E20C94E1396C015B01FC018081C82F45
:10413000CC0FCC0FC80FD5E0DC0FD13308F0D0E3A3
:1041400060913605669580913805909139050E94F9
:10415000E91C182FCD1778F5EC2EF12CF701E2545D
:10416000FE4F9081F6018181892319F1F701EE0F4D
:10417000FF1FE15AFE4F208130E020523109F70144
:10418000EE0FFF1FE25AFE4F408150E040575109A9
:10419000609133057091340580913505012FF5014B
:1041A00009950E94CE1F462F282F672FC7010E9416
:1041B000F21FCF5FCFCF81E0D03308F080E0CDB7E2
:1041C000DEB7EAE00C94FD3967E37FE10E948D20C1
:1041D000089564E57FE10E948D2008956FEE7DE1F2
:1041E0000E948D20089569EA7FE10E948D20089544
:1041F000A0E0B0E0EEEFF0E20C94E2398C017B013C
:10420000FC018081C82FCC0FCC0FC80FD5E0DC0F8C
:10421000D13308F0D0E3609136056695669521E0CC
:10422000620F08F46FEF80913805909139050E9474
:10423000E91CB82ECD17F0F4CC2ED12CF601E254A7
:10424000FE4F9081F8018181892391F060913305BF
:1042500070913405809135052B2D4C2FF701099570
:104260000E94CE1F462F282F672FC6010E94F21FE3
:10427000CF5FE0CF81E0D03308F080E0CDB7DEB78C
:10428000E9E00C94FE396AE57DE10E94F82008958A
:1042900065E87DE10E94F820089561EB7DE10E94D0
:1042A000F820089563EB7DE10E94F82008956CEBFF
:1042B0007DE10E94F820089565EC7DE10E94F820E0
:1042C000089566EB7EE10E94F82008956AED7EE194
:1042D0000E94F8200895A0E0B0E0E1E7F1E20C943C
:1042E000DE396C015B01FC018081C82FCC0FCC0F43
:1042F000C80F15E01C0F113308F010E3609136056C
:104300006695669580913805909139050E94E91C63
:10431000D82F80E48D0F0E94391D90E8F92EF80EF9
:104320008D2F0E94391D20E8722E780EC11700F5DE
:104330008C2E912CF401E254FE4F9081F601818184
:104340008923A1F060913305709134058091350582
:10435000ED2E0C2F272D4F2DF50109950E94CE1F14
:10436000462F282F672FC4010E94F21FCF5FDECF98
:1043700081E0103308F080E0CDB7DEB7EDE00C94BB
:10438000FA3968E17EE10E946B21089566E47EE1DE
:104390000E946B21089568E77EE10E946B210895D9
:1043A000A0E0B0E0E6EDF1E20C94E4398C01DC0130
:1043B0008C91C82FCC0FCC0FC80FD5E0DC0FD133B8
:1043C00008F0D0E360913305709134058091350594
:1043D0000E94CE1FF62EE72ED82ECD1798F4EC2F84
:1043E000F0E0DF01A254BE4F8C91D80111969C9150
:1043F000982331F02D2D4F2D6E2DCF010E94F21FED
:10440000CF5FEBCF81E0D03308F080E0CDB7DEB7EF
:10441000E7E00C94003AA0E0B0E0E1E1F2E20C94B5
:10442000E1398C01FC018081C82FCC0FCC0FC80F63
:1044300095E0D92EDC0EF0E3FD1510F480E3D82EC4
:10444000F0903405D0913505E0903305B7018D2FFC
:104450000E94CE1FC62EB72EA82E609136056E0D77
:104460007F2D8D2F0E94CE1FD62FF72EE82ECD1533
:10447000B8F48C2F90E0FC01E254FE4F3081F8013B
:104480002181232359F030FF04C02E2D4D2F6F2D95
:1044900003C02A2D4C2D6B2D0E94F21FCF5FE7CF5A
:1044A00081E0FFE2FD1508F480E0CDB7DEB7EAE079
:1044B0000C94FD39A0E0B0E0E0E6F2E20C94E239C1
:1044C0006C01FC018081C82FCC0FCC0FC80FD5E048
:1044D000DC0FD13308F0D0E300913405B0903505FE
:1044E0002091360510E4129F112D1124CD1718F5D7
:1044F000EC2EF12CF701E254FE4F9081F601818100
:104500008923B9F0F701EE0FFF1FE15AFE4F8081BA
:1045100082958F7060913305819F600D1124702FFB
:104520008B2D0E94CE1F462F282F672FC7010E9478
:10453000F21FCF5FDBCF81E0D03308F080E0CDB752
:10454000DEB7E9E00C94FE39A0E0B0E0EAEAF2E27E
:104550000C94E2397C01FC018081C82FCC0FCC0F78
:10456000C80FD5E0DC0FD13308F0D0E3C09034059C
:10457000B09035052091360530E4D32E3D2D329F85
:10458000312D1124D32ECD1738F50C2F10E0F80162
:10459000E254FE4F9081F70181818923D9F0F8011F
:1045A000EE0FFF1FE25AFE4F6081D69EB00111242C
:1045B00095E0759567959A95E1F780913305680FB9
:1045C0007C2D8B2D0E94CE1F462F282F672FC801D0
:1045D0000E94F21FCF5FD7CF81E0D03308F080E098
:1045E000CDB7DEB7E9E00C94FE39A0E0B0E0EBEF28
:1045F000F2E20C94E4398C01DC018C91C82FCC0FD1
:10460000CC0FC80FD5E0DC0FD13308F0D0E3E09039
:104610003305F0903405D0903505609136056695E8
:104620006695669580913805909139050E94E91C40
:104630000E94391D805887FD8195880F282F3D2DB8
:10464000239F212D1124822FB7010E94CE1FF62E09
:10465000E72ED82ECD1798F4EC2FF0E0DF01A2540E
:10466000BE4F8C91D80111969C91982331F02D2D3D
:104670004F2D6E2DCF010E94F21FCF5FEBCF81E057
:10468000D03308F080E0CDB7DEB7E7E00C94003A15
:10469000A0E0B0E0EEE4F3E20C94E439EC01FC01BC
:1046A000E254FE4F9081692349F1D0903405009186
:1046B000350510913305E12EF12C0E94241D282F81
:1046C000C7018C549F4F68E671E00E949D398E1996
:1046D0009F0997FD039695958795959587952370E6
:1046E000612F289F600D11247D2D802F0E94CE1FE9
:1046F000462F282F672FCE010E94F21FCDB7DEB7BD
:10470000E7E00C94003ACF92DF92EF92FF921F9372
:10471000CF93DF937C01FC018081C82FCC0FCC0F9D
:10472000C80F15E01C0F113308F010E3F701828168
:1047300081111EC06091360520E1620F08F46FEF11
:1047400080913805909139050E94E91C6AE070E07B
:104750000E948939892BC9F40E94241D60E30E94BC
:104760007D39F7016181892F90E00E9448230DC0B7
:10477000D0E0C12ED12CCC15DD053CF4F7016181D0
:10478000CE010E9448232196F6CF81E0103308F035
:1047900080E0DF91CF911F91FF90EF90DF90CF905D
:1047A00008951F93CF93DF93FC01E254FE4F2081C5
:1047B0006223B9F0EC010E947D3B182F0E947D3BE3
:1047C0008F77782F20E8720F08F47FEF612F8091A8
:1047D00035050E94CE1F462F282F672FCE010E943D
:1047E000F21FDF91CF911F910895CF92DF92FF9238
:1047F0000F931F93CF93DF938C01FC01C281C111F2
:104800001DC06091360520E1620F08F46FEF8091C2
:104810003805909139050E94E91C65E070E00E941E
:104820008939892B59F50E947D3B60E370E00E9435
:104830009D39F80161810E94D12320C0FC01808153
:10484000C82FCC0FCC0FC80F95E0F92EFC0EF0E36B
:10485000FF1510F480E3F82ED0E0CF2CD12CCC152E
:10486000DD053CF4F8016181CE010E94D12321963F
:10487000F6CFC1E0FFE2FF1508F4C0E08C2FDF9116
:10488000CF911F910F91FF90DF90CF900895A0E0FE
:10489000B0E0EDE4F4E20C94E4398C01DC018C919D
:1048A000C82FCC0FCC0FC80FD5E0DC0FD13308F0E8
:1048B000D0E3E0903405F0903505D0903305609159
:1048C000360566956695669580913805909139050F
:1048D0000E94E91C0E94391D805887FD8195880F30
:1048E000682F2CE0629F612D11246D0D7E2D8F2D80
:1048F0000E94E51CF62EE72ED82ECD1798F4EC2F4B
:10490000F0E0DF01A254BE4F8C91D80111969C912A
:10491000982331F02D2D4F2D6E2DCF010E94F21FC7
:10492000CF5FEBCF81E0D03308F080E0CDB7DEB7CA
:10493000E7E00C94003AE091BB02F091BC020995CB
:1049400008950E94E11508958091380590913905E8
:10495000A0913A05B0913B0588279C70AA27BB27F8
:104960002AE0B695A795979587952A95D1F7823035
:104970009105A105B10571F083309105A105B1053F
:1049800069F040E00197A105B10511F060E008C0B1
:1049900064E102C044E160E080E003C044E164E11E
:1049A00084E10E949B240895A3E0B0E0EAEDF4E2E4
:1049B0000C94DC398B838091FF012B8182130DC015
:1049C00020913205237030E04091000250E081E0F8
:1049D0002417350719F480E001C081E081708093CD
:1049E000FE01809137059091FD01981739F0809371
:1049F000FD0140E060E080E00E949B24FB81FF30ED
:104A000009F04AC08CEF91E00E945C218A832EC09D
:104A1000FC3108F40FC12B812D3109F46BC008F073
:104A200046C28091FC01F82EFF0CFF0C8F0DA5E013
:104A3000FA2EF80E409138055091390560913A05EB
:104A400070913B058091AD049091AE04A091AF04AC
:104A5000B091B00484179507A607B70708F4D1C131
:104A600081E08A839FE29F1508F45AC08091FC017F
:104A70008F5F8093FC019A819111E5C282E080935F
:104A8000FB018091FE018111DEC2EB81E111DBC2ED
:104A900083E08093FB01D7C2F03108F088C0F73083
:104AA00029F48CEF91E00E944821B0CFF83008F053
:104AB0004DC0F33029F48CEF91E00E945A22A6CF2A
:104AC000F43080F5F13029F48CEF91E00E94D02190
:104AD0009DCFF23050F48091FE01882309F140E02F
:104AE00060E080E00E949B241BC08CEF91E00E945C
:104AF0000B228CCF4091A9045091AA046091AB0481
:104B00007091AC048091380590913905A0913A05D7
:104B1000B0913B0584179507A607B70708F09DC01D
:104B20001A82A4CF2B81253029F48CEF91E00E94CA
:104B3000F5226CCF263028F48CEF91E00E94A4225D
:104B400065CF8CEF91E00E94432160CF3B813B30E9
:104B500029F48CEF91E00E947E2058CF3C3098F4ED
:104B6000393029F48CEF91E00E94E9204FCF3A30A0
:104B700028F48CEF91E00E94E42048CF8CEF91E084
:104B80000E94792043CF8B818D3029F48CEF91E006
:104B90000E9452213BCF8E3028F48CEF91E00E948E
:104BA0004D2134CF8CEF91E00E9457212FCF9B8174
:104BB000973129F48CEF91E00E94832327CF98311D
:104BC00080F5933129F48CEF91E00E9488201ECF6C
:104BD000943198F4913129F48CEF91E00E94EE2009
:104BE00015CF923128F48CEF91E00E9483200ECFF4
:104BF0008CEF91E00E94F32009CFEB81E53129F49D
:104C00008CEF91E00E94C62101CFE63128F48CEFB1
:104C100091E00E94C121FACE8CEF91E00E94CB215D
:104C2000F5CEFB81FB3109F0F3CE8CEF91E00E94D1
:104C30006621ECCEF93129F48CEF91E00E944724F3
:104C4000E5CEFA3128F48CEF91E00E94F523DECE18
:104C50008CEF91E00E946121D9CE8091FE018111FB
:104C60000EC08091FC01E82FEE0FEE0FE80FE983F4
:104C70000E2F0B5F013308F456C000E354C040E030
:104C800060E080E00E949B24F9E1EF2EF4E0FF2E2B
:104C900000E010E00E94241D81FF05C0F701108292
:104CA000118212821DC00E94241DB82E0E94241D54
:104CB0008695782F2FE7720F08F47FEFC801880FD1
:104CC000991F800F911FFC01E75EFB4F6F016B2D59
:104CD000809135050E94E51CF60160837183828313
:104CE0000F5F1F4FF3E0EF0EF11C0033110591F63B
:104CF000B8CF2981822F90E0FC01E254FE4F308131
:104D00002091FD01232361F0FC01EE0FFF1FE80F4E
:104D1000F91FE75EFB4F2281408161810E94F21FF3
:104D200039813F5F39838981801718F391E09A8335
:104D3000003308F01A82003308F498CE20E010E027
:104D400001501109822F90E080179107CCF4AC013B
:104D5000440F551F480F591F475E5B4F0196FC01DA
:104D6000EE0FFF1F8E0F9F1FFC01E75EFB4F808140
:104D70009181A281FA0180839183A2832F5FE2CF88
:104D80000E94241D7801EE0CFF1C81FF09C00E0D4E
:104D90001F1DF801E75EFB4F10821182128218C0BE
:104DA0000E94241DD82E0E94241D8695782F2FE75F
:104DB000720F08F47FEF0E0D1F1D075E1B4F6D2D48
:104DC000809135050E94E51CF80160837183828320
:104DD0000E94EB1E009138051091390520913A058B
:104DE00030913B05DC01CB01800F911FA21FB31F47
:104DF0008093A9049093AA04A093AB04B093AC044D
:104E000035CE0E94241D89830E94241D90E3891BB6
:104E1000F0F7890F082F10E0F801E254FE4F90914F
:104E2000FD018081892309F41BCE398131FF04C043
:104E300020E040E060E013C00E94241D89830E94AE
:104E4000241D8695782F2FE7720F08F47FEF698174
:104E5000809135050E94CE1F462F282F672FC8014D
:104E60000E94F21F2091360530E1230F08F42FEF46
:104E700060E1822F90E00E94E91CBC0184EF91E088
:104E80000E9489398091380590913905A0913A05A1
:104E9000B0913B05860F971FA11DB11D8093AD04F6
:104EA0009093AE04A093AF04B093B004D9CD2E314B
:104EB00009F0BDC08091FE01882329F040E060E048
:104EC00080E00E949B248091FC01982F990F990FFC
:104ED000890F8B5F89834091380550913905609126
:104EE0003A0570913B058091150490911604A091AC
:104EF0001704B091180484179507A607B70708F0A0
:104F00008FC06091330570913405809135050E9402
:104F1000CE1F6A83772E682E9BEEE92E93E0F92E42
:104F20000AE011E048015801670182E0582EF601BD
:104F30008081F501882369F08081262D4A81672DC3
:104F400090E00E94F21FF4018581262D4A81672D91
:104F50000CC0808120E040E060E090E00E94F21F01
:104F6000F401858120E040E060E090E00E94F21FC3
:104F7000F601818181936F015A94FFEFAF1ABF0A46
:104F800021E0821A91085110D2CFF7018281F801F5
:104F9000882369F08281262D4A81672D90E00E9446
:104FA000F21FF8018381262D4A81672D0CC0828172
:104FB00020E040E060E090E00E94F21FF801838171
:104FC00020E040E060E090E00E94F21F0E94241D7B
:104FD000837091E009F090E0F7019283F3E0EF0E27
:104FE000F11C0A5F1F4F21E00E35120709F09ACF1E
:104FF0000E94EB1E009138051091390520913A0569
:1050000030913B05DC01CB01800F911FA21FB31F24
:105010008093150490931604A0931704B09318047A
:1050200031E03A838981803308F420CD79CD2F3F58
:1050300021F40E94A42482E02CCD8091FC018F5F9A
:105040008093FC011BCD2396EFE00C94F839089572
:105050000E94272808950E9428280E948706089504
:1050600008950E9430280895CF93DF93FC01C081FA
:10507000F4E0CF9FC00D1124C550D5E0DC0FD13333
:1050800008F0D0E36D2F8C2F0E9431286D2F8C2FCC
:105090000E943028DF91CF910895CF930E940D3266
:1050A0006093B2047093B3048093B4049093B504F6
:1050B0002091B604211108C0C09132052C2F237015
:1050C00019F0C695C69501C0C0E02091FB012130C2
:1050D00091F028F02230D9F0233031F144C0109201
:1050E000FC01609338057093390580933A059093DD
:1050F0003B0581E016C08C2F0E94D424CC2399F16B
:105100000E942B288CEF91E00E9434282CC0C09381
:10511000FF01809132058370809300020E94EC1F92
:1051200083E08093FB011FC08091B104882351F07C
:1051300046E050E06CE170E082E395E00E94C73BFE
:105140001092B104609138057091390580913A054B
:1051500090913B050E9428326A31710581059105C5
:1051600010F01092FB01CF910895E091B702F091F9
:10517000B80209950E941C15811104C00E94C51532
:105180000E94D11F46E050E06CE170E082E395E0C0
:105190000E94A33B1092B104809132058C7F11F4E0
:1051A0000E94D11F0895CF93C82F882391F080913A
:1051B000B60481110EC00E94D4241092FF01809188
:1051C00032058370809300020E94EC1F83E080937D
:1051D000FB01C093B604CF910895E2E3F5E020818E
:1051E00091E0922790831092FB010E94FE1E089589
:1051F00081E00E94ED28089580913205837011F4BA
:105200001092FB01809132058C7F81608093320582
:1052100008950E94FC2881E00E94FE1E089590914E
:105220003205937091F0811102C0946007C08F31F4
:1052300010F0986703C0880F880F982B9093320561
:10524000862F1092FB010E94FE1E089561E00E94CD
:105250000F290895682F90913205969596959F5F36
:105260009F3110F4892F01C081E00E940F29089519
:1052700081E00E942A290895682F90913205969521
:105280009695915011F0892F01C08EE10E940F294F
:10529000089581E00E943C29089590913205937011
:1052A00049F0809333056093340540933505822F90
:1052B0000E94FE1E0895A2E3B5E01196EC911197AD
:1052C000F0E0282F13964C91139712966C91CF0112
:1052D00008960E944D29089581E00E945B29089557
:1052E000A2E3B5E01196EC911197F0E0282F139608
:1052F0004C91139712966C91CF0108970E944D29FB
:10530000089581E00E9470290895E2E3F5E062814A
:1053100020E1620F08F46FEF9181282F4381892FDC
:1053200090E00E944D29089581E00E94852908950A
:10533000E2E3F5E0628120E1621B08F460E0918124
:10534000282F4381892F90E00E944D29089581E004
:105350000E9498290895E2E3F5E0438120E1420F9D
:1053600008F44FEF9181282F6281892F90E00E94ED
:105370004D29089581E00E94AB290895E2E3F5E00C
:10538000438120E1421B08F440E09181282F628193
:10539000892F90E00E944D29089581E00E94BE2946
:1053A0000895E2E3F5E0248130E1230F08F42FEFC4
:1053B00024830E94FE1E089581E00E94D129089551
:1053C000E2E3F5E0248130E1231B08F420E02483AC
:1053D0000E94FE1E089581E00E94E02908958093B6
:1053E000370581E00E94FE1E089560E084E70E9478
:1053F000D82B61E087E70E94D82B0895CF930E94B5
:105400002C2F84E70E944D2A87E70E944D2AC0E096
:1054100021E041E061E08C2F0E94F52ACF5FC0338C
:10542000B9F760E084E70E94F02B61E087E70E9413
:10543000F02BCF910895ECE5F6E06083418324E6FC
:1054400030E042E050E0BF01880F0E94F82F08953D
:105450000F931F93CF93DF93082F000FEB0114E2FC
:1054600010935C06EDE5F6E0DE018D91819386E018
:10547000ED36F807D1F724E630E041E150E06CE585
:1054800076E0802F0E94F82F105F6096143B41F762
:10549000DF91CF911F910F910895CF93DF93C82F84
:1054A0004BE06DEF0E941B2A40E06AE08C2F0E94C7
:1054B0001B2A8FE39CE90197F1F700C0000040E050
:1054C00060E08C2F0E941B2A40E061E08C2F0E943C
:1054D0001B2A40E066E08C2F0E941B2A40E06DEF03
:1054E0008C2F0E941B2AD0E040E06D2F8C2F0E9451
:1054F0001B2ADF5FD231C1F740E06D2F8C2F0E9455
:105500001B2ADF5FD432C1F740E06D2F8C2F0E9441
:105510001B2ADF5FD43BC1F74BE06DEF8C2F0E945D
:105520001B2A41E06AE08C2F0E941B2A40E06DEFAD
:105530008C2F0E941B2ADF91CF910895A4E0B0E048
:10554000E4EAFAE20C94E6398033910588F5122FEB
:10555000042FF62EBC01660F771F660F771F6A5166
:105560007F4F44E050E0CE0101960E948D3B89813F
:1055700083704A81282F30E050E9859FC0011124B3
:10558000845C9A4FFC01E40FF11DB497F0824B81CB
:10559000FC01E40FF11DB49700834C81840F911D31
:1055A000FC01B4971083F901E352FB4F81E0808343
:1055B0002496E5E00C94023AFF920F931F93CF9349
:1055C000DF93182F062FF42EC0E0D0E02F2D402FB0
:1055D000612FCE010E949E2A2196C033D105B1F7DA
:1055E000CDB7DEB7E5E00C94023AA4E0B0E0EBEF13
:1055F000FAE20C94DC39862E942E522E24E0829FFF
:10560000C0011124BC016A517F4F44E050E0CE013B
:1056100001960E948D3B2A8130E0C9018497FC01EC
:1056200097FD379673E0F595E7957A95E1F74B810D
:1056300050E08A0104521109980117FF02C0295F46
:105640003F4F63E0359527956A95E1F74C8150E02F
:105650005A0164E2A61AB1083501B7FE04C03A0146
:105660007DE1671A710843E0759467944A95E1F704
:1056700058E0C52ED12CB6010E949D397C01C8018D
:10568000B6010E949D398C01C501B6010E949D3969
:10569000FF274981FF24542F5370882089F062E14D
:1056A000569FE00DF11D1124E754FB4F61E070E0BF
:1056B0000E2C01C0660F0A94EAF75081652B11C0C9
:1056C00072E1579FE00DF11D1124E754FB4F61E09B
:1056D00070E00E2C01C0660F0A94EAF760955081C5
:1056E0006523608333271127542F5370992091F03D
:1056F00062E1569F200D311D1124F901E754FB4F43
:1057000021E030E0002E01C0220F0A94EAF7308138
:10571000232B12C072E1579F200D311D1124F90176
:10572000E754FB4F21E030E0002E01C0220F0A9425
:10573000EAF7209530812323208377249927942F1B
:10574000937093015520A1F052E1959F200D311DDA
:105750001124F901E754FB4F21E030E0B90102C008
:10576000660F771F8A95E2F7CB019081892B14C0D1
:1057700072E1979F200D311D1124F901E754FB4F71
:1057800021E030E0B90102C0660F771F8A95E2F789
:10579000CB0180959081892380834370E42FF0E0D2
:1057A000E954FB4F81E080832496EFE00C94F839B4
:1057B000CF93DF93262F30E0E901C352DB4F98816E
:1057C000992351F090E9929FB001939F700D11249D
:1057D000645C7A4F0E94282A1882DF91CF91089545
:1057E000A0E0B0E0E6EFFBE20C94E439262F30E0D5
:1057F000A90149545B4F7A01FA019081911107C0C8
:10580000F7011082CDB7DEB7E7E00C94003AD82E4E
:10581000F2E16F9FE001112400E010E0F801EC0FCD
:10582000FD1FE754FB4F4081602F8D2D0E941B2AE6
:105830000F5F1F4F0231110589F7E2CF882311F066
:10584000FA0101C0FB01099508951F93CF93DF93DF
:10585000FB011281111191C0EC010E942B14827284
:10586000CB3CFCE5DF0709F472C010F5C63CECE563
:10587000DE0709F453C058F4C43C9CE5D90709F489
:1058800041C008F044C0C33CDC45C9F136C0C83C47
:105890009CE5D90709F44CC008F445C0C93CFCE5B7
:1058A000DF0709F44AC0CA3CDC4509F44BC025C0F7
:1058B000C03DECE5DE0709F45DC088F4CD3C9CE515
:1058C000D90709F44EC008F447C0CE3CFCE5DF0719
:1058D00009F44CC0CF3CDC4509F44AC00EC0C73DBA
:1058E0009CE5D90730F4C23DDC4508F046C082E1B2
:1058F00042C0CE35DD4509F440C011E03EC00E94F3
:10590000F8283BC049E459E268E379E204C048E37F
:1059100059E269E479E20E941E2C2FC041E859E265
:105920006CE679E2F8CF4CE659E261E879E2F3CF30
:1059300047EA59E264E979E2EECF44E959E267EADD
:1059400079E2E9CF4DEC59E26AEB79E2E4CF4AEB38
:1059500059E26DEC79E2DFCF4BEE59E26CED79E282
:10596000DACF4CED59E26BEE79E2D5CF81E003C09E
:1059700085E001C08DE00E942629812FDF91CF9123
:105980001F910895CF93DF93EC01FB01828188235F
:1059900009F472C1C430FDE5DF0760F4CB3F9CE53C
:1059A000D907D0F49E0122503C452431310508F03E
:1059B00064C112C0C63AEDE5DE0771F030F4C236BC
:1059C0009DE5D90709F059C107C09E012E5A3D45F2
:1059D0002330310508F051C10E943115909315050F
:1059E00080931405C231ECE5DE0709F405C108F027
:1059F0004BC0C9308CE5D80709F4D2C000F5C530DA
:105A0000ECE5DE0709F4B9C078F4C3308CE5D807BB
:105A100009F4AAC008F0AEC0C230DC4509F022C1CA
:105A2000809114058160A3C0C730FCE5DF0709F44D
:105A3000AFC008F0B1C080911405806198C0CD302E
:105A40009CE5D90709F4C2C058F4CB30FCE5DF0768
:105A500009F4B0C008F0B6C0809114058860A6C0F3
:105A6000CF309CE5D90709F4BFC008F4B2C0C031FB
:105A7000FCE5DF0709F4BCC0C131DC4509F0F2C028
:105A8000809114058F7B73C0C1159DE5D90709F47A
:105A9000BEC088F5CB3FFCE5DF0709F472C0B8F45F
:105AA000C4319CE5D90709F4C1C008F4ABC0C531C5
:105AB000DC4509F0D7C08091140582FB222720F92C
:105AC00091E0922790FB82F990FB83F950C0CD3F83
:105AD0008CE5D80709F481C008F456C0CE3FECE548
