:100000000C9427040C9444040C9444040C9444046D
:100010000C9444040C9444040C9444040C94440440
:100020000C9444040C9444040C946D350C943F36A9
:100030000C941E300C9444040C9444040C9444041A
:100040000C9444040C9444040C9444040C94440410
:100050000C9444040C94C2300C9444040C94440456
:100060000C9444040C9444040C9444040C944404F0
:100070000C9444040C9444040C9444040C944404E0
:100080000C9444040C9444040C9444040C944404D0
:100090000C9444040C9444040C9444040C944404C0
:1000A0000C9444040C9444040C944404A004A3044D
:1000B000A604A904AC04AF04B20496079B07A507E5
:1000C00099079E07A307A107170B170B450B450BB5
:1000D000A90BC70BE30CE30CD20B6D0C800C800C4E
:1000E000AC36D336CB37D336CB371F374237CB3747
:1000F0009937A8370044345400746484005545652A
:10010000008575950036264600665676009686A6CA
:100110000037274700776787003828480088789895
:100120000039294900695979009989A9003A2A4A70
:10013000006A5A7A003B2B4B006B5B7B004C3C5CAB
:10014000007C6C8C005D4D6D008D7D9D003E2E4EC3
:10015000006E5E7E0144345401746484015545652B
:10016000018575950136264601665676019686A666
:100170000137274701776787013828480188789831
:100180000139294901695979019989A9013A2A4A0C
:10019000016A5A7A013B2B4B016B5B7B014C3C5C47
:1001A000017C6C8C015D4D6D018D7D9D013E2E4E5F
:1001B000016E5E7E2E002B002A61E10001510000DD
:1001C0001E00140004001D00350029641F001A00E1
:1001D00016001B0034002C00200008000700060059
:1001E0005000E00021001500090019004F004A00EE
:1001F000220017000A0005000000650029004C00DD
:1002000000002F0000004D0029002A0000003000EF
:1002100000004B0023001C000B0011000000E00058
:10022000240018000D00100052004E0025000C00A4
:100230000E0036005100E500260012000F003700C6
:100240002F002800270013003342380030004C00F4
:100250002D0031003468E500015100002900010043
:1002600001000100010000003A001E0220022202EB
:10027000000001003B001F02210223020553CA5C5B
:100280003C002F0226022F000100CB5C3D00300213
:1002900027023000045301003E00310235003502D0
:1002A0000000C45C0100010000000100000001002A
:1002B00001000100000001000000C35C3F0052008B
:1002C000510024020000A95D4000240021001E000E
:1002D0000453A85D4100250022001F003700C65CC2
:1002E00042002600230020002700C75C43002502AF
:1002F0002E0231002E0001004400450001000100E3
:1003000001000000A6000100010001000100000042
:1003100001000100010001000100AC5D0100FB00D3
:10032000EF0001000100AE5D0100ED00EE000100F4
:10033000F20001000100FC00F0000100F100AB5DE3
:1003400001000100035301000000AD5D0100010048
:10035000000001000000AA5D010001000000010092
:10036000000001000100F900FA00F30000000100A4
:100370000100A900FD00AE00F10001000100AA008B
:10038000FE00AC00F200B7000100A800FF00AB00C7
:10039000A800B600010046000100010001000100B4
:1003A000005C4602AE0001000100000001000100F7
:1003B000E000010001000000010001000100010057
:1003C0000100290001000100010001000100E2001C
:1003D000010001000100010001002C0001000100EA
:1003E0000100010001000100010001000100010005
:1003F00000000100010001000000010000000100F8
:1004000001000100000001000000010001000100E6
:1004100001000100000001000100010001000100D5
:10042000010001000100010001000100010028009D
:1004300001000100010001000100010001000100B4
:1004400001000100010001000100010001000100A4
:10045000010000002D0031003468E5000453000065
:1004600023001C000B4211002F004C002400180038
:100470000D0010003000E40025000C000E003600D6
:1004800051002800260012000F00370052004E00D5
:1004900027001300330038000000E00029002A0084
:1004A0000000300000004B0029004C0000002F002D
:1004B00000004D001E00140004001D000000650037
:1004C0001F001A0016001B0050004A002000080000
:1004D000070006004F002C0021001500090019003C
:1004E00035002964220017000A0005003400E300EB
:1004F0002E002B002A61E1000453000001000100DE
:1005000001000100010000000100010001000100E4
:1005100001000100010001000100010001000100D3
:1005200001000100010001000100010001000100C3
:1005300001000100010001000100010001000100B3
:1005400000000100010001000000010000000100A6
:100550000100010000000100000001000100010095
:100560000100010000000100010001000100010084
:100570000100010001000100010001000100010073
:100580000100010001000100010001000100010063
:100590000100010001000100010001000100010053
:1005A000010000000001010101010101010102023D
:1005B0000202020202020203030303030303030411
:1005C00004040404040405050505050606060606DC
:1005D000070707070708080808090909090A0A0A96
:1005E0000B0B0B0C0C0C0D0D0D0E0E0E0F0F0F1038
:1005F00010111111121213131414151516161717C2
:10060000181819191A1A1B1B1C1D1D1E1E1F20202D
:10061000212222232424252626272829292A2B2C77
:100620002D2D2E2F30313232333435363738393A9A
:100630003B3C3D3E3F404142434445464748494A92
:100640004C4D4E4F50515354555658595A5B5D5E60
:100650005F616264656668696B6C6D6F70727375FB
:1006600077787A7B7D7E8082838587888A8C8E8F5F
:1006700091939596989A9C9EA0A2A3A5A7A9ABAD8D
:10068000AFB1B3B5B7BABCBEC0C2C4C6C9CBCDCF7B
:10069000D1D4D6D8DBDDDFE2E4E7E9EBEEF0F3F529
:1006A000F8FAFDFF20034500720067006F00440068
:1006B0006F007800200045005A00200047006C00C1
:1006C0006F007700000028035A005300410020000B
:1006D00054006500630068006E006F006C006F00DE
:1006E0006700790020004C00610062007300000088
:1006F0000403090409025400030100A0FA090400DC
:10070000000103010100092111010001224000073D
:100710000581030800010904010001030102000929
:100720002111010001224700070582030800010989
:100730000402000103000000092111010001226DE3
:1007400000070583032000011201000200000008D9
:100750009732764901000102000105010980A101DB
:10076000850319012AB700150126B70095017510F8
:100770008100C0050C0901A101850419012AA0020C
:10078000150126A002950175108100C0050109061A
:10079000A1018506050719E029E71500250195083F
:1007A000750181020507190029EF1500250195F053
:1007B0007501810205081901290595057501910248
:1007C000950175039101C005010902A1010901A16B
:1007D00000050919012908150025019508750181F1
:1007E000020501093009311581257F9502750881BF
:1007F0000609381581257F950175088106050C0AC3
:1008000038021581257F950175088106C0C0050154
:100810000906A101050719E029E71500250195083A
:10082000750181029501750881010507190029FFED
:10083000150026FF00950675088100050819012995
:1008400005950575019102950175039101C011246B
:100850001FBECFEFDAE0DEBFCDBF12E0A0E0B1E017
:10086000EAEFF4E702C005900D92A23DB107D9F777
:1008700026E0A2EDB2E001C01D92A63BB207E1F76F
:100880000E942A180C947B3A0C9400008098889A55
:100890008198899A84988C9A85988D9A86988E9A50
:1008A00087988F9A089520982898219829982298B7
:1008B0002A9823982B9852985A9853985B983E9868
:1008C00046980895CF93E82F873080F58091EE0108
:1008D0009091EF01892B09F047C0CE2F64E670E0BC
:1008E00080E40E94C02D9093EF018093EE01892B4C
:1008F000D1F464E670E082E10E94412E9093EF0112
:100900008093EE01892B79F481E090E001C0880F9B
:10091000CA95EAF764E670E080950E94412E9093B4
:10092000EF018093EE01CF910C94BD2E90E0FC017D
:100930003797E730F105C0F4EA5AFF4F0C94493875
:10094000209A289811C0219A29980EC0229A2A9894
:100950000BC0239A2B9808C0529A5A9805C0539AF4
:100960005B9802C03E9A4698CF910895CF93873006
:1009700040F58091EE019091EF01892B59F564E6E5
:1009800070E081E40E94C02D9093EF018093EE010E
:10099000892B11F0C0E011C084E690E00E94712E16
:1009A00097FF05C09093EF018093EE01F3CFC82F1E
:1009B000C0951092EF011092EE010E94BD2E8C2F77
:1009C0000AC09FB18FB1807F869586959370892BE1
:1009D000809501C080E0CF9108950E94F80590E0D5
:1009E0009093EF018093EE010E9453040C9446040F
:1009F000EF92FF920F931F93CF93DF938091EE01BD
:100A00009091EF01892BA1F08091D4028F5F8093A8
:100A1000D40281110DC00E94F80590E09093EF017F
:100A20008093EE01892B21F40E9461050E945527D5
:100A300007E415E0C0E0F12C87E0E82EEC0E8C2FE7
:100A40000E9462048E2D0E9462048C2F0E94B604C4
:100A50008F73F8019081891719F08083D1E001C06C
:100A6000D0E08E2D0E94B6048F73F801978189170C
:100A700019F0878381E001C080E0D82BFD2A0E9415
:100A80005304CF5F0F5F1F4FC730B1F68F2DDF913B
:100A9000CF911F910F91FF90EF9008950E94F8055C
:100AA00090E09093EF018093EE010E9453040E9426
:100AB0004604E5E5F5E0119285E0E336F807D9F75D
:100AC000089556985E9825982D9826982E982798E0
:100AD0002F988FEF90E090938900809388009093F7
:100AE0008B0080938A0090938D0080938C00259AD0
:100AF0002D9A2FEF80E792E0215080409040E1F75F
:100B000000C00000269A2E9A2FEF80E792E0215035
:100B100080409040E1F700C00000279A2F9A2FEF05
:100B200080E792E0215080409040E1F700C0000053
:100B300025982D982FEF80E792E02150804090403B
:100B4000E1F700C0000026982E982FEF80E792E092
:100B5000215080409040E1F700C0000027982F9876
:100B600056985E9825982D9826982E9827982F9815
:100B7000089589EA8093800089E080938100249819
:100B80002C983F988AB18F7C8AB96E98479A8BB11E
:100B900080638BB9769A0E94C1136093410570936C
:100BA0004205809343059093440567708FEF689FDB
:100BB000B0011124759567957595679577277093A2
:100BC00089006093880070938B0060938A00709313
:100BD0008D0060938C008091410584FF02C08FEFEF
:100BE00001C080E00E948A280E9461050C945F1772
:100BF00080E290E09093EF018093EE018091D50226
:100C000081110EC00E94BA2D81E08093D5022FEF92
:100C100083ED90E3215080409040E1F700C0000058
:100C200064E670E080E40E94C02D9093EF01809311
:100C3000EE01892B09F04EC064E670E080E00E946E
:100C4000412E9093EF018093EE01892B09F042C071
:100C500064E670E080E00E94412E9093EF01809363
:100C6000EE01892BB9F564E670E08FE30E94412E16
:100C70009093EF018093EE01892B61F50E94BD2EC8
:100C800064E670E080E40E94C02D9093EF018093B1
:100C9000EE01892BF9F464E670E08CE00E94412EAD
:100CA0009093EF018093EE01892BA1F464E670E04C
:100CB00080E00E94412E9093EF018093EE01892BFA
:100CC00049F464E670E08FE30E94412E9093EF01B7
:100CD0008093EE010E94BD2E8091EE010895109246
:100CE000410510924205109243051092440584E09C
:100CF000806180934105609141057091420580912A
:100D00004305909144050E94C5130C94D1130C9493
:100D10005D170C94AB273F924F925F926F927F9238
:100D20008F929F92AF92BF92CF92DF92EF92FF92FB
:100D30000F931F93CF93DF938091410583FD86C06E
:100D40008091070390910803019690930803809384
:100D500007036091F00170E00E941338892B29F499
:100D6000809106038F5F80930603512C50E8352E47
:100D700085E1882E82E0982E9DE2A92E92E0B92E80
:100D800025E4C22E22E0D22E31E2E32E32E0F32E11
:100D900049E3642E42E0742E442443948AEF840D88
:100DA0008230E8F182E0581681F0851520F0E1E00C
:100DB0005E1649F006C0F3E05F1649F084E058166D
:100DC00041F0F60107C0F30105C0F50103C0F701CA
:100DD00001C0F401C081D0E0CF3FD10501F18E0107
:100DE0000A521D4FF8018081882311F081508083C1
:100DF000652D842D0E944017882311F0F801308260
:100E000060910603F8018081681B7FEF8FEF0E94DD
:100E10004F1B462F282F672FCE010E94571E439449
:100E2000FFEF8F1A9F0A8FEFA81AB80AEFEFCE1ABA
:100E3000DE0AFFEFEF1AFF0A8FEF681A780AEDE07B
:100E40004E12ACCF5394F5E05F1292CFDF91CF9169
:100E50001F910F91FF90EF90DF90CF90BF90AF90D8
:100E60009F908F907F906F905F904F903F900895EC
:100E7000FB018B3A2DE5920701F140F4893A2DE50B
:100E8000920769F08A3A9D4589F034C08D3A2DE584
:100E90009207F9F0C8F08E3A9D4519F12BC0828176
:100EA000882349F181E00E94CC2722C082818823D7
:100EB00011F18091F0018F5F19C082818823D9F0F0
:100EC0008091F001815012C082818823A1F084E0DA
:100ED0000DC08281882379F08091F0018093F10127
:100EE00007C08281882339F08091F1018093F0015D
:100EF00080E0089581E00895CF92DF92EF92FF9213
:100F00006B017C010E947B0856985E9825982D986D
:100F100026982E9827982F9890E0FC013197E7307B
:100F2000F105A8F4E35AFF4F0C944938259A2D9AFD
:100F30000EC0259A2D9A269A2E9A09C0259A2D9A86
:100F400004C0259A2D9A269A2E9A279A2F9AC7017D
:100F5000B601FF90EF90DF90CF90089581E0089563
:100F60000C94380708950C94B2071F93CF93DF9326
:100F700000D000D01F92CDB7DEB749835A836B8370
:100F800030910A0389819A81311114C0662359F086
:100F9000222349F00E94070F182F682F89819A8118
:100FA0000E94AE0E03C00E94DA0E182F69817A816A
:100FB000812F04C00E94070F69817A810F900F90E2
:100FC0000F900F900F90DF91CF911F910C942A16E4
:100FD000FC01262F408151816281738184810C94B0
:100FE000B50781E00895CF93DF93EC0160E00E94A4
:100FF000E807BE01DF91CF910C94B3070C94B905BB
:101000000C94870608950E94B10A0E9402082FEFEF
:1010100084E39CE0215080409040E1F700C0000054
:101020000C94E8300F931F93CF93DF938C0161E012
:101030000E94E807EC01B8010E94B007882309F478
:1010400044C0B801CE010E94682D8823F1F1B80197
:10105000CE010E947C2B8823C1F1B801CE010E94F1
:10106000C42C882391F1B801CE010E94DF2A882385
:1010700061F1F8018281882309F1CB358DE5D8072C
:10108000C1F050F4C115FCE5DF0781F0CF3DDC4530
:10109000A9F40E94351419C0CC35EDE5DE0761F0E6
:1010A000CD35DD4559F40E94811308C00E94030824
:1010B0000CC00E948A1302C00E948D13C801DF91E8
:1010C000CF911F910F910C94AE0780E0DF91CF91EB
:1010D0001F910F9108950E9403300E94ED260E94F7
:1010E000DC0881E00C9473270E94DF0880E00E94F6
:1010F00073270C940730CF92DF92EF92FF926C012E
:10110000EE24FF24C114D104E104F10421F0C7014D
:10111000B60120E101C020E0C72ED82EE92EFF2421
:10112000C114D104E104F10419F0285FC701B6012C
:101130006B017C0154E0F694E794D794C7945A95D8
:10114000D1F7C114D104E104F10419F02C5FC701F7
:10115000B6016B017C0142E0F694E794D794C79402
:101160004A95D1F7C114D104E104F10419F02E5FBE
:10117000C701B601DC01CB01B695A7959795879578
:10118000892B8A2B8B2B09F02F5F822FFF90EF90FA
:10119000DF90CF90089508950C94CB0881E00895D6
:1011A0000C94CE080895CF93C82F0E94CC088C2FA2
:1011B0000E94D008CF91089580E00C94D3080E943B
:1011C000CB2E0C94D3080E94CB2E90910903891743
:1011D00021F0809309030C94D3080895CF93DF93F3
:1011E000CDB7DEB72B970FB6F894DEBF0FBECDBFDD
:1011F000942F4F83252F588769877A878B874A8555
:101200005B85452B31F02F3F31F481E09F3F19F48E
:1012100003C081E001C080E080FD09C080910B0324
:1012200090910C03019690930C0380930B03898596
:1012300081110E94CD129E012F5F3F4F86E0F90180
:1012400011928A95E9F785E0FE013796D901019060
:101250000D928A95E1F789819A814C815D81452BB8
:1012600031F09F3F31F491E08F3F19F403C091E0DA
:1012700001C090E090FF09C049815A816B817C8157
:101280008D819E810E94EE1105C0C9010E94F10767
:101290008111F2CF2B960FB6F894DEBF0FBECDBFF3
:1012A000DF91CF910895FC01808191810E94490FC7
:1012B0000895CF93882309F4A4C0C82F8238C1F4BD
:1012C0000E94CB2E81FD9DC069E38091F401909135
:1012D000F5010E94BE2F0E94EF122FEF81EE94E0E5
:1012E000215080409040E1F700C0000069E319C040
:1012F000833801F50E94CB2E80FD83C063E5809189
:10130000F4019091F5010E94BE2F0E94EF122FEF81
:1013100081EE94E0215080409040E1F700C0000051
:1013200063E58091F4019091F5010E94C92FCF915E
:101330000C94EF128438C1F40E94CB2E82FD61C060
:1013400067E48091F4019091F5010E94BE2F0E9404
:10135000EF122FEF81EE94E0215080409040E1F7B2
:1013600000C0000067E4DDCF8CEF8C0F813AD0F431
:101370006C2F8091F4019091F5010E943E2F8823FB
:1013800049F06C2F8091F4019091F5010E94C92FD2
:101390000E94EF126C2F8091F4019091F5010E9450
:1013A000BE2FC5CF80E28C0F883048F4C77081E033
:1013B00001C0880FCA95EAF70E94B012B8CFEBE5DA
:1013C000EC0FE33040F4F0E0E158FD4F808190E015
:1013D000CF910C94FC2EE8E5EC0FE73150F4F0E0EF
:1013E000EE0FFF1FEF5AFD4F80819181CF910C943A
:1013F000122FCD3E30F08C2F0E94AF18CF910C945D
:101400008119CF910895882309F464C0823879F452
:101410000E94CB2E81FF5EC069E38091F401909120
:10142000F5010E94BE2F0E94EF1269E310C08338BD
:10143000B1F40E94CB2E80FF4DC063E58091F40192
:101440009091F5010E94BE2F0E94EF1263E58091FA
:10145000F4019091F5010E94C92F0C94EF12843889
:1014600079F40E94CB2E82FF35C067E48091F401AD
:101470009091F5010E94BE2F0E94EF1267E4E7CF22
:101480009CEF980F913A10F4682FE1CF90E2980FFB
:10149000983050F4877091E001C0990F8A95EAF76F
:1014A000892F0E94B612D9CF9BE5980F933020F474
:1014B00080E090E00C94FC2E98E5980F973120F492
:1014C00080E090E00C94122F8D3E20F00E940A19CB
:1014D0000C94811908951F93CF93DF93182FEB017C
:1014E0000E945909209741F08FE99FE00197F1F799
:1014F00000C000002197F6CF812FDF91CF911F917F
:101500000C94030A893319F060E070E002C060E5D2
:1015100070E00C946B0A882321F00E94B0120C94A6
:10152000EF120895882321F00E94B6120C94EF1256
:10153000089580E090E00E94FC2E80E090E00E9400
:10154000122F0E94CD120E94EF120E94B11A0C9429
:1015500081198091F4019091F5010E94D42F0C948F
:10156000990A0E94BD120C94A90A92959F70963018
:1015700079F010F4925001C09A50923068F4803F94
:1015800069F018F4883E40F409C0843F29F406C08D
:10159000883E20F0813F11F080E0089581E00895B9
:1015A000FC01808191810E94490F0E94B50A089533
:1015B0008F929F92AF92BF92CF92DF92EF92FF9263
:1015C0000F931F93CF93DF936C01C62F172FFC014E
:1015D000D281058102950F700E94A6128823B9F06E
:1015E000DD23A9F0812F807F803421F080E28C0FF1
:1015F000883068F08091460582FD09C082E00E9433
:101600004F130E94A61291E0E82EE92601C0E12CBA
:10161000B12EB2942FE0B2228B2D90E08C30910548
:1016200008F0D1C1FC01EC59FF4F0C944938912FBF
:101630009F70812F807FF92E19F0F29490EFF9229C
:10164000DD2399F0FF2009F4AAC180E28C0F8830D5
:1016500010F0C11104C08F2D0E94B01203C08F2D55
:101660000E94C0120E94EF129AC18C2F0E94030A9E
:10167000FF2009F4A8C180E28C0F883050F1CC2300
:1016800041F18F2D0E94C61227C0912F9F70812F8C
:10169000807FF92E803219F0F29480EFF822CC236B
:1016A00019F0C130A1F13FC08091460582FF17C0FB
:1016B000DD2349F0FF2029F08F2D0E94B0120E94F7
:1016C000EF1280E06DC180E00E94030AFF2009F460
:1016D0007AC18F2D0E94B6120E94EF1274C1DD23D1
:1016E00071F0002341F0013031F40E94D0128F29B3
:1016F0000E94D81268C10E94D0128F290EC0002308
:1017000019F0013009F45FC10E94E5121EC0DD230B
:1017100039F0023008F057C18F2D0E948B0A53C157
:10172000011151C112C0DD2319F00023A9F337C103
:10173000002359F0C93309F043C1FFEF27EE83E0DE
:10174000F15020408040E1F739C18F2D0E94920A6C
:101750003AC1812F86958695837019F0813061F0AA
:1017600032C1DD2321F08C2F912F937002C080E0D5
:1017700090E00E94FC2E2FC1DD2321F08C2F912FB1
:10178000937002C080E090E00E94122F24C18C2F41
:10179000DD2319F00E94AF1802C00E940A190E94AE
:1017A000811919C1812F837009F048C0D1110FC16F
:1017B0002C2F229526952770220F220F6C2F6F70E9
:1017C000862F90E0A0E0B0E0022E04C0880F991FA1
:1017D000AA1FBB1F0A94D2F7C4FF10C04FE050E00D
:1017E00060E070E004C0440F551F661F771F2A9504
:1017F000D2F7409550956095709503C040E050E059
:10180000BA01212F2695269523704A015B01882A6B
:10181000992AAA2ABB2AC501B401223049F058F4FA
:10182000213019F00E94C40DD2C00E94B20DCFC069
:101830000E94D60DCCC00E94B00DC9C0DD2319F0A6
:10184000812F817001C08695882309F4C0C02C2F98
:10185000229526952770220F220F6C2F6F70862FEE
:1018600090E0A0E0B0E0022E04C0880F991FAA1FEC
:10187000BB1F0A94D2F7C4FF10C04FE050E060E0F5
:1018800070E004C0440F551F661F771F2A95D2F7DA
:10189000409550956095709503C040E050E0BA01C6
:1018A000212F2695269523704A015B01882A992AC3
:1018B000AA2ABB2AC501B401223049F058F42130CC
:1018C00019F00E94890E83C00E94770E80C00E948A
:1018D0009B0E7DC00E94EA0D7AC0212F2F70F22E40
:1018E000DD2339F0822F0E94100E8C2F0E948B0A6C
:1018F0006EC08C2F0E94920A8F2D0E94310E67C0FD
:10190000C23F19F128F4C03F41F0C13FB9F043C0D4
:10191000C33F11F1C43F71F03EC0DD2339F0011126
:1019200052C0812F8F710E94560E4DC0023008F0B8
:101930004AC0F7CF8091460582FF18C0DD2339F0F9
:10194000812F8F710E94100E3EC0DD23C9F3812FBD
:101950008F710E94310E37C0DD2329F0812F8F71E6
:101960000E94FB0D30C00E94F60D2DC0DD2351F00A
:10197000812F8F71F82E0E94100E63E08F2D0E9430
:10198000341321C081E00E944F130230E0F082E066
:101990000E944F1318C0DD2331F0002389F28C2FF1
:1019A0000E94590910C0002391F2C93349F49FEFF6
:1019B000E7EEF3E09150E040F040E1F700C00000B6
:1019C0008C2F0E94030A88EF8B0D843020F40E9434
:1019D000CB2E0E94D3088C2F912F0E94B50A811123
:1019E00005C010920C0310920B0311C0DD2319F0F7
:1019F0000111F7CF0CC00111F4CF80910B0390912E
:101A00000C03029771F78C2F0E94820AEACFEE2016
:101A1000E9F00E94A21280FD19C0F60112820E9414
:101A20009C120E94100EC6010E944B0D0E949C1237
:101A3000DF91CF911F910F91FF90EF90DF90CF90AA
:101A4000BF90AF909F908F900C94310EDF91CF910B
:101A50001F910F91FF90EF90DF90CF90BF90AF90CC
:101A60009F908F9008950F931F93CF93DF93EC0176
:101A7000688179818A810E94540F8C010E94AD0E89
:101A80000E949E0DB801CE010E94D80ADF91CF912D
:101A90001F910F910895CF93DF93EC019881898175
:101AA0002B813C81232B31F08F3F31F481E09F3F2C
:101AB00019F403C081E001C080E080FD1DC0CE01AB
:101AC0000E941208811110C00E94A6128823A1F062
:101AD0008A81882389F08091460582FD0DC082E0CD
:101AE000DF91CF910C944F13CE010E94330DCE01A4
:101AF000DF91CF910C94F307DF91CF910895CF93AD
:101B0000DF9300D000D01F92CDB7DEB70F900F90BB
:101B10000F900F900F90DF91CF910895CF93DF93A7
:101B200000D000D000D0CDB7DEB726960FB6F8941F
:101B3000DEBF0FBECDBFDF91CF9108950895089508
:101B40000C949F0D0C94A00D0E94A20D609348036D
:101B50007093490380934A0390934B030C94990A22
:101B60000C94A40D0F931F93009148031091490307
:101B700020914A0330914B03602B712B822B932BC6
:101B80001F910F910C94A40D0F931F930091480384
:101B90001091490320914A0330914B036023712334
:101BA000822393231F910F910C94A40D0F931F93E5
:101BB000009148031091490320914A0330914B034F
:101BC00060277127822793271F910F910C94A40DF2
:101BD0000C947C070E94E80D6093440370934503C6
:101BE00080934603909347030C94990A60E070E059
:101BF000CB010C94EA0D0F931F9341E050E060E09D
:101C000070E08A019B0104C0000F111F221F331FC7
:101C10008A95D2F7C901B8011F910F910C94EA0D72
:101C20000F931F9341E050E060E070E004C0440F68
:101C3000551F661F771F8A95D2F7809144039091B4
:101C40004503A0914603B09147038A019B01082BED
:101C5000192B2A2B3B2BC901B8011F910F910C9412
:101C6000EA0D0F931F9341E050E060E070E004C084
:101C7000440F551F661F771F8A95D2F740955095E0
:101C8000609570958091440390914503A09146031F
:101C9000B09147038A019B01082319232A233B2380
:101CA000C901B8011F910F910C94EA0D0F931F9376
:101CB00041E050E060E070E004C0440F551F661F33
:101CC000771F8A95D2F78091440390914503A091A4
:101CD0004603B09147038A019B01082719272A2749
:101CE0003B27C901B8011F910F910C94EA0D0F9386
:101CF0001F930091440310914503209146033091B6
:101D00004703602B712B822B932B1F910F910C9407
:101D1000EA0D0F931F930091440310914503209106
:101D200046033091470360237123822393231F913D
:101D30000F910C94EA0D0F931F930091440310919F
:101D4000450320914603309147036027712782277E
:101D500093271F910F910C94EA0D0895292F220FBC
:101D6000920F990F890FE82FE695E695E695877013
:101D700051E001C0550F8A95EAF785E0E89FF00130
:101D80001124E35FFC4F20E030E070E04081CB01A4
:101D9000022E02C0969587950A94E2F7817081958C
:101DA00084278523842781932F5F3F4F253031057A
:101DB00069F70895292F220F920F990F890F682F25
:101DC000669566956695982F977085E0689FB00137
:101DD000112440E050E080E0FB01E40FF51FE35FD9
:101DE000FC4F208130E0092E02C0369527950A94D9
:101DF000E2F721703327042E01C0220F0A94EAF77C
:101E0000822B4F5F5F4F4530510531F70895BF92E8
:101E1000CF92DF92EF92FF920F931F93CF93DF93B6
:101E20008C01C0904403D0904503E0904603F090AD
:101E300047038091480390914903A0914A03B091D0
:101E40004B03C82AD92AEA2AFB2ACFE1D0E0D701DE
:101E5000C6010C2E04C0B695A795979587950A9450
:101E6000D2F780FD04C0219790F7B12C07C0BC2E9B
:101E7000B8018C2F0E943D160197A9F38B2DDF919D
:101E8000CF911F910F91FF90EF90DF90CF90BF9077
:101E90000895CF93DF93EC010E94070FBE010E94CB
:101EA0003D16DF91CF9108951F93CF93DF93EB0100
:101EB00090910A03992321F0CB010E94490F13C08E
:101EC000882349F0CB010E94070F182F682FCE01FD
:101ED0000E94AE0E04C0CB010E94DA0E182FBE0184
:101EE000812F0E943D16DF91CF911F9108951F937E
:101EF000CF93DF93C0914C0316E080914D03C81738
:101F000099F0D0E01C9FF0011D9FF00D1124E25BC1
:101F1000FC4F4081518162817381848195810E944F
:101F20008E0D2196C770E9CFDF91CF911F91089553
:101F300040917E0350917F036091800370918103F3
:101F400080918203909183030C948E0DEF92FF9207
:101F50000F931F93CF93DF938091830382958F70AC
:101F600009F065C080918003882309F460C08091E6
:101F70004C03F0904D0310917E0300917F0360911C
:101F800081037091820391E01F3F09F090E0C091BE
:101F9000F201D091F301292F96E0E92E8F1509F473
:101FA00046C06115710521F00F3F21F030E003C0FC
:101FB00031E001C0322F90E030FD36C0E89EF001E4
:101FC000E99EF00D1124DF01A25BBC4F11963C91FC
:101FD0001197301329C03C91311326C012963C91C1
:101FE0001297311121C013964D915C911497461BA5
:101FF000570B4C175D07C0F4809183038F7080618D
:1020000080938303ED5AFC4F80818F7080618083C1
:102010008EE793E00E944B0DDF91CF911F910F91BE
:10202000FF90EF900C94770F01968770B7CFDF91F8
:10203000CF911F910F91FF90EF9008959F92AF92D3
:10204000BF92CF92DF92EF92FF920F931F93CF93A5
:10205000DF93CDB7DEB761970FB6F894DEBF0FBE42
:10206000CDBF8C0185E0F801DE011D9601900D9237
:102070008A95E1F7D8011296EC9090917E03E09159
:102080007F0320918103309182032115310531F0C6
:10209000EF3F31F481E09F3F19F403C081E001C0BC
:1020A00080E0B82FB1709B2E80FD47C1D8014C91C4
:1020B00011965C9111971396AD90BC9014978EE792
:1020C000C82E83E0D82EF0908003B501621B730BFD
:1020D0002091F2013091F301FF2009F4D9C08091E1
:1020E00083036217730708F095C0282F207F09F03B
:1020F00052C05E1313C0491311C0FE2CE1100EC074
:102100008F708061809383030E94980FC6010E94A4
:102110004B0D80918303F80185834DC1AB2831F0CD
:102120005F3F31F481E04F3F19F403C081E001C00B
:1021300080E080FD03C081E08E2502C080E090E059
:10214000F82FF170FF2E80FF1CC080914C0320916E
:102150004D0336E0821709F40BC190E0389FF0017F
:10216000399FF00D1124E25BFC4F6181561306C0CC
:102170006081461303C06281E61203C00196877036
:10218000E9CFFE2CEE2009F416C180918303816013
:102190008093830354C05E1306C0491304C0E1104A
:1021A00002C0F80199C0C8010E94D00A882361F1D9
:1021B000EE2051F120918303822F82958F7090E061
:1021C000029774F080917E0390917F0398878F83AC
:1021D0001986BB86AA862C87CE0107960E944B0DD6
:1021E00086E0F801AEE7B3E001900D928A95E1F741
:1021F0000E94A60F0E94980F0AC05E1711F1C80135
:102200000E94D00A81112CC0C8010E944B0DFF24EE
:10221000F394D1C0282F207F81F77A2DB98AA88A1C
:102220006E2D89890E947F0D8EE793E00E944B0DF1
:1022300086E0D6011D928A95E9F70E94980FF12C4D
:10224000BAC04913DCCFE110DACFF8018583C801A9
:102250000E944B0D86E0D6011D928A95E9F7ABC02E
:10226000EE2091F220918303822F82958F7090E06F
:1022700002970CF4B5CF80917E0390917F039A83EF
:1022800089831B82BD82AC822E83CE010196A6CFAC
:102290006217730708F044C0FE2CEE2009F4B4CF97
:1022A0005E1330C049132EC02091830320FD21C04E
:1022B000822F82958F70482F50E041155105C9F04B
:1022C000F80125834F30510541F08F5F982F92958B
:1022D000907F822F8F70892B8583C8010E944B0DC0
:1022E00086E0F801AEE7B3E001900D928A95E1F740
:1022F0003CC086E0F801AEE7B3E001900D928A950C
:10230000E1F759C0C8010E94D00A811169CF8091BC
:102310008303816080938303C8010E944B0D4BC0EF
:102320007A2DB98AA88A6E2D89890E947F0D86E050
:10233000D6011D928A95E9F718C0EE2009F464CF02
:10234000C8010E94D00AF82E882309F45DCF86E0E8
:10235000F801AEE7B3E001900D928A95E1F78EE7C0
:1023600093E00E9453090E94A60F0E94980F23C079
:102370004D875E878D859E850E94490F292F229566
:102380002F70223028F49F7039F0811105C00BC0E6
:10239000243028F49F7049F4805E883020F0C80112
:1023A0000E944B0D9F2CF92C06C0D80115969C91CC
:1023B000907F91F7F8CF8F2D61960FB6F894DEBF1E
:1023C0000FBECDBFDF91CF911F910F91FF90EF9086
:1023D000DF90CF90BF90AF909F9008951F93CF93C1
:1023E000DF93CDB7DEB72C970FB6F894DEBF0FBEE4
:1023F000CDBF4F83588769877A878B879C87CE01AB
:1024000007960E941E108823D1F09F8188852A8517
:102410003B85232B31F08F3F31F481E09F3F19F44E
:1024200003C081E001C080E080FD47C04F81588536
:1024300069857A858B859C850E948E0D3EC086E0DD
:10244000FE013796DE01119601900D928A95E1F713
:10245000FF81E8856A857B856115710531F0EF3F65
:1024600031F481E0FF3F19F403C081E001C080E056
:1024700080FD23C020914D0330E0C9010196877093
:10248000992740914C0350E084179507F1F1F983A7
:10249000EA837D836C8396E0929FD001939FB00D79
:1024A0001124A25BBC4FFE01319601900D929A95CA
:1024B000E1F780934D030E94770F16E080914C0363
:1024C00090914D03891771F1189FC0011124825B0F
:1024D0009C4F0E941E10882329F1E0914C031E9FFF
:1024E000F0011124E25BFC4F4081518162817381D4
:1024F000848195810E948E0D80914C0390E001961D
:102500008770992780934C03D9CF0E94B10A10920B
:102510004D0310924C03EEE7F3E086E0DF011D92DD
:102520008A95E9F72C960FB6F894DEBF0FBECDBFA3
:10253000DF91CF911F9108958091A4038595859592
:10254000859508958091A403877008959091A403C0
:10255000977081E009F480E008958091C7030895A1
:102560009091C703892B8093C7030895809590911C
:10257000C70389238093C70308951092C703089562
:102580009091C603892B8093C603089580959091FE
:10259000C60389238093C60308951092C603089545
:1025A0008091A503089508950C94D3120C94D4122D
:1025B0009091460592FD08C09091A503981721F0CF
:1025C0008093A5030C94D61208958091A5038823C7
:1025D00029F01092A50380E00C94D6120895CF93B1
:1025E000DF93E091F401F091F5018091C7038083BE
:1025F000E091F401F091F50190818091C603892B5F
:1026000080838091A503882381F0E091F401F0910B
:10261000F5019081892B80838091F4019091F501DF
:102620000E94282F81110E94E512C091F401D091DF
:10263000F50140E250E064E873E0CE010E94D53934
:10264000892B69F080E2FE01A4E8B3E001900D92CD
:102650008A95E1F7CE01DF91CF910C94D72EDF91CF
:10266000CF9108950C94D3129091460592FD10C01D
:1026700098E0899F90011124262B2093A4030E94A7
:10268000100E8091A4038595859585950C94321341
:102690000C94100E1092A40380E00C94321320913D
:1026A000A403809582238093A403982F977099F4B4
:1026B00030E0482F082E000C550B2417350759F031
:1026C0009091460592FD07C08595859585950E9458
:1026D000310E0C944A1308959091460592FB2227DF
:1026E00020F9281769F080FB92F9909346058091B4
:1026F0004505909146050E94B41382E00C944F1357
:1027000008958091460582FB882780F991E089270A
:102710000C946C1381E00C946C1380E00C946C139B
:1027200080E090E00E94003A21E0893E9E4F09F04F
:1027300020E0822F089582E090E00C94F23983E04B
:1027400090E00C94F239CF9384E090E00E94F2394B
:10275000C82F82E290E00E94F2392C2F30E0A901CC
:10276000582BCA01CF910895CF93C92F682F84E0C9
:1027700090E00E94163A6C2F82E290E0CF910C9488
:10278000163A8FE090E00C94FA39AB01BC018FE06F
:1027900090E00C94283AAB01BC0183E190E00C94EA
:1027A000283A60E070E0CB010C94CB1369EE7EEF29
:1027B00080E090E00E94343A60E082E090E00E9485
:1027C000163A60E083E090E00E94163A10924803C7
:1027D0001092490310924A0310924B0360E084E088
:1027E00090E00E94163A60E082E290E00E94163A81
:1027F00060E085E090E00E94163A60E086E090E0BC
:102800000E94163A6FEF87E090E00E94163A40E08F
:1028100050E0BA0188E090E00E94283A60E08DE044
:1028200090E00E94163A40E050E0BA0188E190E062
:102830000E94283A60E087E190E00E94163A40E06A
:1028400050E0BA018CE190E00E94283A60E070E02C
:1028500080E290E00E94343A40E050E0BA0188E122
:1028600090E00E94283A0C946F060C94D613682FBF
:102870008EE090E00C94163A0E948B306093DA035D
:102880007093DB038093DC039093DD036093D603A6
:102890007093D7038093D8039093D903089585B795
:1028A000806885BF85B7806885BF089581E00895F9
:1028B0000C94561408950C945A140C9489060C9494
:1028C0005A140C945F140C945A140E944F1489E10A
:1028D00097E10E94C12E0E9463140C9461140E941F
:1028E0005B140C945A140E941C170E94D2080C947A
:1028F00055270E9476300E9461170E9473140C9431
:102900005D148F929F92AF92BF92CF92DF92EF921F
:10291000FF920F931F93CF93DF93CDB7DEB72A9724
:102920000FB6F894DEBF0FBECDBF0E947217982E6F
:1029300081110E943C1488ECA82E83E0B82E00E0A0
:1029400010E0802E802F0E945517D82EF501C190DF
:102950005F01C826B1F40F5F1F4F0E30110589F7D4
:102960008FEF89838A831B820E947F308160782F5A
:102970009D838C8349815A816B818D810E94EE08F1
:1029800038C08091DE0381FD0E945B17F12CEE249C
:10299000E3948C2D8E2139F10E945814DE20882377
:1029A00099F0FE828F8281E0D11001C080E088879B
:1029B0000E947F308160782F9A8789874E815F815E
:1029C00068858A850E94EE08F801E853FC4F8081F3
:1029D000E826E08241E0D11001C040E06F2D882D53
:1029E0000E944B2306C0F394EE0CF6E0FF12D1CF09
:1029F000B2CF81E0911001C080E02A960FB6F89422
:102A0000DEBF0FBECDBFDF91CF911F910F91FF9021
:102A1000EF90DF90CF90BF90AF909F908F900895F0
:102A20000E9481140E94ED260E949F190C94E308D5
:102A3000CF93DF930E944216EC01811521E59207A6
:102A400008F045C0811530E5930708F094C0883E32
:102A5000910528F5803E910508F0F8C0883A910567
:102A600070F4853A910508F07CC08130910509F435
:102A700075C008F4E8C0049708F0E8C0E4C08F3BD4
:102A8000910508F0E0C0C85AD0E0CC0FDD1FCE574A
:102A9000DD4F0990D881C02DCE019464D8C0811536
:102AA00040E2940758F4811551E0950708F0CEC034
:102AB0008D3E910508F4C7C09065C9C0C11580E47A
:102AC000D80708F4C0C0DF70CE01906AC0C081157D
:102AD00025E59207A8F4811534E5930708F095C021
:102AE000811543E5940708F07BC0811552E59507F1
:102AF00008F061C0D82FCC27CE01816F906AA7C0A3
:102B0000C11589E5D807A0F4C11528E5D20708F05A
:102B100082C0C11536E5D30708F095C08C2F0E94FE
:102B2000D6168F7190E0D82FCC27CE0190628FC03F
:102B3000C1154AE5D40708F474C0CE01905681153A
:102B4000904208F080C08D2F8F710E94D616DD272D
:102B5000D0628F71AE01582BCA0179C081E090E03C
:102B600076C0C55AD0E0C055DD4F8881C82FD0E06F
:102B7000CE0190646CC074E0969587957A95E1F7E4
:102B8000282F23703C2F337081E090E002C0880F23
:102B9000991F3A95E2F79C68AC01522B9A019C2F41
:102BA0009F709695969550E2959FE0011124C9017A
:102BB0008C2B9D2B4CC08370992721E030E002C004
:102BC000220F331F8A95E2F79C2F9695969580E207
:102BD000989FE0011124C22BD32BCE019C6837C0F3
:102BE0008370992721E030E002C0220F331F8A95BD
:102BF000E2F79C2F9695969540E2949FE001112470
:102C0000C22BD32BCE019A6822C0D82FCC27CE015D
:102C1000846F906A1CC0DC2FCC27CE01806F906A35
:102C200016C08C2F8F700E94D61694E0D695C7954B
:102C30009A95E1F7CF70D0E0DC2FCC27D0699E01C8
:102C4000282BC90104C080E090E001C0CE01DF91D3
:102C5000CF91089524E5829FC0011124FC0126E054
:102C6000729FE00DF11D1124E60FF11DEE0FFF1F05
:102C7000EC54FE4F8591949108950E942A160E946B
:102C8000181508958238910569F1B0F481339105E2
:102C900009F46DC048F48932910509F463C08A32A1
:102CA000910509F469C008958533910509F455C06B
:102CB00089339105B9F00895833E910569F138F49F
:102CC000803E9105B1F0823E910509F10895863E5E
:102CD0009105A9F1873E9105B9F1843E910509F06E
:102CE00064C023C02091450520FD4FC021FD4DC08B
:102CF00008958091450580FD44C08091460580FF80
:102D000044C08091450584FD42C083EE4DC0809152
:102D1000450582FF38C0F5CF8091450582FD33C05F
:102D20008091460580FD31C0ECCF8091460581FF42
:102D300032C08091450584FD2AC087EE35C0809160
:102D4000450583FF26C0F5CF8091450583FD21C051
:102D50008091460581FD1FC0ECCF8091450585FD22
:102D60001CC01DC08091450585FD19C016C080910D
:102D7000450586FD16C017C08091450586FD13C028
:102D800010C089E311C082EE0FC080EE0DC080E05C
:102D90000BC086EE09C084EE07C089E205C085E35A
:102DA00003C08AE201C081E390E008959091450557
:102DB00092FF0DC0282F2871283019F4877F846076
:102DC00006C0282F2471243011F48B7F886093FF74
:102DD0000DC0282F2871283119F4877E846106C020
:102DE000282F2471243111F48B7E886120914605AF
:102DF00020FF0DC0382F3871383019F4877F81607B
:102E000006C0382F3171313011F48E7F886021FF78
:102E10000DC0282F2871283119F4877E816106C0E2
:102E2000282F2171213111F48E7E886194FD877ED7
:102E3000089580E0089508950E949013811102C0C2
:102E40000E9435140E949B138093DE030E94A313FB
:102E500090934605809345050E941B170E949F137F
:102E6000682F70E080E090E00E94B00D6091440314
:102E70007091450380914603909147030C94E80DAF
:102E8000E82FF0E0EB5AFA4F2081822F90E021E00A
:102E900030E002C0220F331F6A95E2F7282339235E
:102EA00081E0232B09F480E00895E82FF0E0EB5A4D
:102EB000FA4F80810895089508950C945C170C943E
:102EC0005C170E94ED04E7E4F5E0A5E5B5E011929A
:102ED0001D9285E0E535F807D1F78EE00E94851751
:102EE0000C94FE07CF9387E495E00E94F804C82F66
:102EF000282F4EE065E575E087E495E00E9498177D
:102F00000E9400088C2FCF910895CF93C82F90E096
:102F10000E944F388093E2039093E303282FFC0133
:102F20008E2F821B8C1710F41192FACFCF91089537
:102F3000DF92EF92FF920F931F93CF93DF93082FAF
:102F4000F92EE62ED72E142FD22FC091DF03CC23DB
:102F5000C9F10E947F302091E0033091E103AC0180
:102F6000421B530B9A019093E1038093E0034F3F80
:102F7000510509F020F4452B09F454C002C02FEF8D
:102F800030E01092DF031092E4034091E203E42F5B
:102F9000F091E30390E030E08E2F841B811768F4FA
:102FA0008081882341F0281718F010829C2F03C0DD
:102FB000821B80833C2F3196EFCF3093DF039093B9
:102FC000E40330C0222331F10E947F309093E1036B
:102FD0008093E0039091E2038091DF03AE2DBD2D3D
:102FE000C02FDF2DE92FF091E3033EE12E2F291BA7
:102FF000211768F429914C91421731F04081411119
:1030000003C030832C9381E031961196EFCF8093EB
:10301000DF030CC080E09091E403992339F0811123
:10302000D9CFD2CFD111D6CF81E0F5CFDF91CF91DB
:103030001F910F91FF90EF90DF9008950E94C8328A
:103040000E9479140C94D4320E94D8320E94101538
:103050000C94F2320E941D300E94AF320E9465141F
:103060000E941E180E9424180E946F14FBCF8091AA
:10307000EC0380FF06C06091FB0170E0660F771FD4
:1030800026C081FF04C06091FB0184E005C082FF7F
:1030900007C06091FB0188E0689FB001112417C050
:1030A0009091EB039923D1F06091FA01961788F77C
:1030B0002091FB0188E0289F90011124929FA0019C
:1030C000939F500D112470E0CA010E94133860389C
:1030D000710540F46115710519F406C068E070E0EF
:1030E000862F08958FE7089581E008958091EC037D
:1030F00080FF08C06091F70170E075956795759540
:10310000679521C081FF06C06091F70170E0759559
:10311000679519C082FF04C06091F70170E010C08C
:103120009091EA03992399F06091F6019617A0F720
:103130008091F701899FC001112470E00E9413382B
:103140006038710540F46115710519F406C061E03D
:1031500070E0862F08958FE7089581E008958D3EF1
:1031600021F40E943718819504C08E3E29F40E94F4
:1031700037188093EF0308958F3E21F40E9437188B
:10318000819504C0803F29F40E9437188093EE0394
:103190000895893F19F40E94761805C08A3F31F4DA
:1031A0000E94761881958093F00308958B3F21F457
:1031B0000E947618819504C08C3F29F40E947618ED
:1031C0008093F10308959FE0980F983078F421E000
:1031D00030E0A90102C0440F551F9A95E2F7CA01D9
:1031E0009091ED03892B8093ED0308958D3F21F499
:1031F0008091EC0381600BC08E3F21F48091EC0341
:10320000826005C08F3F29F48091EC038460809335
:10321000EC0308958D3E39F49091EF0397FF35C08C
:103220001092EF0359C08E3E29F49091EF031916C6
:10323000BCF32BC09091EE038F3E29F497FF25C07D
:103240001092EE0349C0803F19F41916CCF31DC04B
:103250009091F003893F29F41916BCF41092F00301
:103260003BC08A3F19F497FF10C0F8CF8B3F39F469
:103270009091F10397FF09C01092F1032DC08C3F8C
:1032800021F49091F1031916BCF39FE0980F983048
:1032900080F421E030E0A90102C0440F551F9A9547
:1032A000E2F7CA0180959091ED0389238093ED03A5
:1032B00013C08D3F21F48091EC038E7F0BC08E3FB5
:1032C00021F48091EC038D7F05C08F3F29F480911C
:1032D000EC038B7F8093EC038091EE03811106C099
:1032E0008091EF03811102C01092EB038091F003F3
:1032F000811106C08091F103811102C01092EA038E
:1033000008950E947F302091EE03211104C0209186
:10331000EF03222321F09093E9038093E8032091A7
:10332000F003211104C02091F103222321F0909396
:10333000E7038093E6038DEE93E00C94F12EEF9279
:10334000FF920F931F93CF93DF9300D000D01F9273
:10335000CDB7DEB785E0EDEEF3E0DE01119601902A
:103360000D928A95E1F7E090EE03F090EF03009163
:10337000F0031091F1031092EE031092EF031092FC
:10338000F0031092F103E11003C0FF2009F45DC0C7
:103390008091E8039091E9030E949730AC019091ED
:1033A000EB03992339F02091FC0130E02417350715
:1033B00058F04BC02091E5038AE0289F900111242A
:1033C0002417350718F041C09F3F19F09F5F909375
:1033D000EB03EE2061F00E9437181E1414F09FEFEB
:1033E00001C091E0989F902D11249093EE03FF204F
:1033F00061F00E9437181F1414F09FEF01C091E094
:10340000989F902D11249093EF033091EE03332376
:10341000E1F02091EF032223C1F045EB3403C0011A
:103420001124992319F09093EE0303C081E0809357
:10343000EE0335EB2303C0011124992319F0909377
:10344000EF0303C081E08093EF03011103C0112358
:1034500009F45DC08091E6039091E7030E949730E4
:10346000AC019091EA03992339F02091F80130E002
:103470002417350758F04BC02091F9018AE0289FA6
:10348000900111242417350718F041C09F3F19F00F
:103490009F5F9093EA03002361F00E947618101654
:1034A00014F09FEF01C091E0989F902D112490930C
:1034B000F003112361F00E947618111614F09FEFAB
:1034C00001C091E0989F902D11249093F1033091C9
:1034D000F0033323E1F02091F1032223C1F045EB07
:1034E0003403C0011124992319F09093F00303C011
:1034F00081E08093F00335EB2303C001112499236D
:1035000019F09093F10303C081E08093F10380915F
:10351000EE0381110BC08091EF03811107C08091F0
:10352000F003811103C08091F10381110E94811980
:10353000EA82FB820C831D8385E0FE013196ADEEAD
:10354000B3E001900D928A95E1F70F900F900F90E4
:103550000F900F90DF91CF911F910F91FF90EF90FF
:103560000895EDEEF3E085E0DF011D928A95E9F71D
:103570001092EB031092EA031092EC030895EF927D
:10358000FF920F931F93CF93DF938B01682F11113D
:103590000AC0442329F0E82FF0E0EC55FA4F64917B
:1035A000762F862F75C0212F30E0E82FF0E04423DE
:1035B00021F0EC55FA4FE491F0E046E0049FC001A1
:1035C0001124CFEFD0E0BE010E94FF374BEA460343
:1035D000C001479F900D1124800F911D800F911DF8
:1035E000982F990F890FAE01421B530B4E9FD001AC
:1035F0004F9FB00D5E9FB00D11249B2F189FA0010F
:103600001124452F55278E01041B150B0E9FA00179
:103610000F9F500D1E9F500D11247E01E81AF108D6
:10362000E29E8001E39E100DF29E100D1124212FC9
:103630003327C21BD30BCE9F9001CF9F300DDE9F4F
:10364000300D112462307105A9F048F4611571053F
:1036500069F061307105C9F48B2F752F0DC064308E
:10366000710581F058F06630710579F47E2F8B2F4B
:10367000932F0DC0832F7B2F9E2F09C08E2F7B2F62
:10368000952F05C08E2F732F02C07E2F852F692F97
:10369000DF91CF911F910F91FF90EF90089541E03E
:1036A0000E94BF1A089520E030E0869F212D969F4A
:1036B000200D311D1124C9010895BC0182309105EE
:1036C00008F40895613E8EE1780748F49B0195E087
:1036D000369527959A95E1F748E0420F01C04FEFE4
:1036E00091E0242F30E0290F311D35952795229F39
:1036F000F001239FF00DF00D11246E177F0718F4D1
:103700004FEF420F04C02F3F39F091E0920F49175D
:1037100040F78FEF890F08958FEF089540910302CE
:103720005091040225E038E0429FC001439F900D74
:10373000529F900D1124875E994C909304028093C0
:103740000302890F0895482F982F46FD9095E92F81
:10375000EF739F7046FD9F5FE295EF70EE0FF0E014
:10376000ED54FD4F2181299F802D212D112482951B
:103770008F702295207F822B3081982F930F892F75
:1037800047FD819580580895E42FF0E0EE0FFF1F6C
:10379000E25AFE4F408134EE439F412D1124E72F22
:1037A000F0E050E0445E5F4FDA01A21BB1099D01D9
:1037B000B7FF03C031952195310993E0220F331FE4
:1037C0009A95E1F7AF01421B530B9A0157FF02C0D4
:1037D00020E030E0279F212D1124722F0895E42F3F
:1037E000F0E0EE0FFF1FE25AFE4F408134EE439FA0
:1037F000412D1124E82FF0E050E0445E5F4FDA01E4
:10380000A21BB1099D01B7FF03C031952195310974
:1038100093E0220F331F9A95E1F7AF01421B530B40
:103820009A0157FF02C020E030E0582F259F212D3C
:103830001124822F0895622F0895E42FF0E0EE0FF7
:10384000FF1FE25AFE4F6081621B0895E42FF0E0F3
:10385000EE0FFF1FE15AFE4F6081621B0895A22FF9
:1038600050E0FA01EE0FFF1FE15AFE4F9081905297
:1038700097FD9195440F551FFA01E25AFE4F308192
:10388000232F30E02A1B3109290F311D97FD3A956E
:10389000620F0895EF920F931F9393E0099F8001A9
:1038A0001124159507956E2D600F1F910F91EF90C4
:1038B00008950F93CF93DF93D72FC82F47FD4195DE
:1038C000E8E3F0E0CF01841B910947FD9395889FC1
:1038D000B001899F700D700D1124229FC001239F9C
:1038E000900D900D1124860F971F0E945D1B682F6D
:1038F000660F860F682F600F7D2F8C2FDF91CF9181
:103900000F9108950F931F93522F10E0F801EE0FBF
:10391000FF1FE15AFE4FE081F0E0B0979F01520394
:10392000D001539FB00D1124000F111FF801E25A6E
:10393000FE4F008110E00057110940039001419FA4
:10394000300D11242A0F3B1F37FF02C021583F4F73
:10395000220F232F221F330B620F1F910F91089507
:103960000F931F93522F10E0F801EE0FFF1FE15A43
:10397000FE4FE081F0E0B097EE0FFF1F9F01520372
:10398000D001539FB00D1124000F111FF801E25A0E
:10399000FE4F008110E000571109000F111F400376
:1039A0009001419F300D11242A0F3B1F37FF02C0A9
:1039B00021583F4F220F232F221F330B620F1F91DD
:1039C0000F9108950F931F9310E0F801EE0FFF1F62
:1039D000E25AFE4F9081905797FD9195000F111F6D
:1039E000F801E15AFE4FE081F0E0B097DF01AA0F45
:1039F000BB1F8D010E0F1F1F2003D001219FB00D93
:103A00001124E8E3F0E0E91BF10997FDF3959F012C
:103A1000220F331F89010E0F1F1F40039001419F8A
:103A2000300D11242A0F3B1F37FF02C021583F4F92
:103A3000220F232F221F330B620F1F910F91089526
:103A40000F931F93CF93DF93D62F072F182FC42FD9
:103A5000822F0E94A31BEC2FF0E0EE0FFF1FE25A13
:103A6000FE4F90819058890F87FD8195880F682FB0
:103A70002CE0629F612D11246D0F702F812FDF913B
:103A8000CF911F910F910895E42FF0E0EE0FFF1FEB
:103A9000E25AFE4F9081921B97FD9195292F38E1B4
:103AA000239F212D1124620F08952091670530E195
:103AB000230F08F42FEF60E1822F90E00E94531B48
:103AC000BC0188EB9BE00E94FF3780E090E0089506
:103AD000FC019B01009721F477FF2BC080E808953B
:103AE000AC0197FF04C044275527481B590BB90167
:103AF000640F751F37FD0CC0241B350BC901A5E0F1
:103B0000880F991FAA95E1F70E94133880E20CC034
:103B1000CB0165E0880F991F6A95E1F7BA01621B36
:103B2000730B0E94133880E6861BF7FF03C0819554
:103B3000089580E00895FF920F931F93CF93DF9332
:103B4000F62E172FD82FC901C72FC01BBA010E940C
:103B5000681D982F990F890F7C2F781B719F712DED
:103B600011246F2D8D2FDF91CF911F910F91FF9019
:103B70000895FF920F931F93CF93DF93F62ED72FC5
:103B8000182FC901C12FC01BBA010E94681D982FB0
:103B9000990F890FC81B2C2F219F212D1124822FB3
:103BA0006F2D7D2FDF91CF911F910F91FF90089581
:103BB000EF920F931F93CF93DF93D62F172FC82F1A
:103BC000C9010E19070FBA010E94681D702F781BDA
:103BD000719F712D11246D2F8C2FDF91CF911F912B
:103BE0000F91EF900895EF920F931F93CF93DF9370
:103BF000D62FC72F182FC9010E19010FBA010E9425
:103C0000681D081B202F219F212D1124822F6D2F2D
:103C10007C2FDF91CF911F910F91EF9008950F931B
:103C2000CF93DF93D72FC82FC901BA010E94681D17
:103C3000682F600F7D2F8C2FDF91CF910F9108950A
:103C4000EF920F93CF93DF93D72FC82FC9010E198F
:103C5000BA010E94681D602F681B7D2F8C2FDF9199
:103C6000CF910F91EF9008950E944F1B0895E3E6C6
:103C7000F5E085E380838091120290911302A09178
:103C8000140281839283A3838FE784838FEF8583DC
:103C900046E050E06CE170E0CF010E94063A1092DD
:103CA000E2040895E091C102F091C2020994E0910A
:103CB000BD02F091BE0209944F925F926F927F9283
:103CC0008F929F92AF92BF92CF92DF92EF920F931B
:103CD0001F93CF93DF932C013B01FC018081C82F00
:103CE000CC0FCC0FC80FD5E0DC0FD13308F0D0E3F8
:103CF0006091670566958091690590916A050E94BB
:103D0000531B182FCD1708F044C08C2E912CF401B2
:103D1000E254FE4F9081F20181818923C1F1F401C7
:103D2000EE0FFF1FE25AFE4FC080D12CF0E7CF1AF2
:103D3000D108F401EE0FFF1FE15AFE4FA080B12C15
:103D400080E2A81AB108CC9C9001CD9C300D300DBA
:103D50001124AA9CC001AB9C900D900D1124820FE0
:103D6000931F0E945D1B082F60916405709165058B
:103D700080916605E12E9501A601F30109950E9447
:103D8000341E462F282F672FC4010E94571ECF5F75
:103D9000B9CF81E0D03308F080E0DF91CF911F915F
:103DA0000F91EF90DF90CF90BF90AF909F908F904A
:103DB0007F906F905F904F90089568ED7DE10C9437
:103DC0005C1E63EF7DE10C945C1E6AE47CE10C9464
:103DD0005C1E60E27EE10C945C1EAF92BF92CF92BB
:103DE000DF92EF92FF920F931F93CF93DF936C01BB
:103DF0005B01FC018081C82FCC0FCC0FC80FD5E030
:103E0000DC0FD13308F0D0E36091670566958091AF
:103E1000690590916A050E94531B182FCD1778F5FC
:103E2000EC2EF12CF701E254FE4F9081F6018181D6
:103E3000892319F1F701EE0FFF1FE15AFE4F208190
:103E400030E020523109F701EE0FFF1FE25AFE4F1A
:103E5000408150E0405751096091640570916505BB
:103E600080916605012FF50109950E94341E462FA9
:103E7000282F672FC7010E94571ECF5FCFCF81E049
:103E8000D03308F080E0DF91CF911F910F91FF9028
:103E9000EF90DF90CF90BF90AF9008956BE97DE1F8
:103EA0000C94ED1E69EB7DE10C94ED1E69E57CE15F
:103EB0000C94ED1E6FE07EE10C94ED1EBF92CF924C
:103EC000DF92EF92FF920F931F93CF93DF938C01BA
:103ED0007B01FC018081C82FCC0FCC0FC80FD5E02F
:103EE000DC0FD13308F0D0E36091670566956695E5
:103EF00021E0620F08F46FEF8091690590916A05E7
:103F00000E94531BB82ECD17F0F4CC2ED12CF60105
:103F1000E254FE4F9081F8018181892391F06091F4
:103F2000640570916505809166052B2D4C2FF70176
:103F300009950E94341E462F282F672FC6010E9424
:103F4000571ECF5FE0CF81E0D03308F080E0DF91F3
:103F5000CF911F910F91FF90EF90DF90CF90BF9086
:103F6000089564EC7BE10C945E1F6FEE7BE10C9492
:103F70005E1F6BE17CE10C945E1F6DE17CE10C94B3
:103F80005E1F66E27CE10C945E1F6FE27CE10C94A4
:103F90005E1F60E27DE10C945E1F64E47DE10C94A1
:103FA0005E1F7F928F929F92AF92BF92CF92DF92CD
:103FB000EF92FF920F931F93CF93DF936C015B01FE
:103FC000FC018081C82FCC0FCC0FC80F15E01C0F4F
:103FD000113308F010E3609167056695669580914E
:103FE000690590916A050E94531BD82F80E48D0FBC
:103FF0000E94A31B90E8F92EF80E8D2F0E94A31BA0
:1040000020E8722E780EC11700F58C2E912CF40149
:10401000E254FE4F9081F60181818923A1F06091E5
:1040200064057091650580916605ED2E0C2F272D96
:104030004F2DF50109950E94341E462F282F672F1A
:10404000C4010E94571ECF5FDECF81E0103308F01D
:1040500080E0DF91CF911F910F91FF90EF90DF9063
:10406000CF90BF90AF909F908F907F90089562E81F
:104070007CE10C94D11F60EB7CE10C94D11F62EECB
:104080007CE10C94D11FDF92EF92FF920F931F936C
:10409000CF93DF938C01DC018C91C82FCC0FCC0F18
:1040A000C80FD5E0DC0FD13308F0D0E36091640590
:1040B00070916505809166050E94341EF62EE72EEC
:1040C000D82ECD1798F4EC2FF0E0DF01A254BE4FAC
:1040D0008C91D80111969C91982331F02D2D4F2D64
:1040E0006E2DCF010E94571ECF5FEBCF81E0D03302
:1040F00008F080E0DF91CF911F910F91FF90EF903A
:10410000DF900895AF92BF92CF92DF92EF92FF922D
:104110000F931F93CF93DF938C01FC018081C82FF5
:10412000CC0FCC0FC80F95E0D92EDC0EF0E3FD15B7
:1041300010F480E3D82EF0906505D0916605E090EC
:104140006405B7018D2F0E94341EC62EB72EA82EEF
:10415000609167056E0D7F2D8D2F0E94341ED62F26
:10416000F72EE82ECD15B8F48C2F90E0FC01E25428
:10417000FE4F3081F8012181232359F030FF04C024
:104180002E2D4D2F6F2D03C02A2D4C2D6B2D0E94EF
:10419000571ECF5FE7CF81E0FFE2FD1508F480E016
:1041A000DF91CF911F910F91FF90EF90DF90CF9013
:1041B000BF90AF900895BF92CF92DF92EF92FF929F
:1041C0000F931F93CF93DF936C01FC018081C82F65
:1041D000CC0FCC0FC80FD5E0DC0FD13308F0D0E303
:1041E00000916505B09066052091670510E4129F67
:1041F000112D1124CD1718F5EC2EF12CF701E254F6
:10420000FE4F9081F60181818923B9F0F701EE0F0D
:10421000FF1FE15AFE4F808182958F706091640587
:10422000819F600D1124702F8B2D0E94341E462F0C
:10423000282F672FC7010E94571ECF5FDBCF81E079
:10424000D03308F080E0DF91CF911F910F91FF9064
:10425000EF90DF90CF90BF900895BF92CF92DF9202
:10426000EF92FF920F931F93CF93DF937C01FC019A
:104270008081C82FCC0FCC0FC80FD5E0DC0FD13315
:1042800008F0D0E3C0906505B09066052091670501
:1042900030E4D32E3D2D329F312D1124D32ECD1756
:1042A00038F50C2F10E0F801E254FE4F9081F70131
:1042B00081818923D9F0F801EE0FFF1FE25AFE4FEA
:1042C0006081D69EB001112495E0759567959A9509
:1042D000E1F780916405680F7C2D8B2D0E94341EC0
:1042E000462F282F672FC8010E94571ECF5FD7CFB8
:1042F00081E0D03308F080E0DF91CF911F910F91E2
:10430000FF90EF90DF90CF90BF900895DF92EF92F3
:10431000FF920F931F93CF93DF938C01DC018C915D
:10432000C82FCC0FCC0FC80FD5E0DC0FD13308F06D
:10433000D0E3E0906405F0906505D090660560914B
:1043400067056695669566958091690590916A0501
:104350000E94531B0E94A31B805887FD8195880FE4
:10436000282F3D2D239F212D1124822FB7010E943C
:10437000341EF62EE72ED82ECD1798F4EC2FF0E051
:10438000DF01A254BE4F8C91D80111969C919823C5
:1043900031F02D2D4F2D6E2DCF010E94571ECF5F76
:1043A000EBCF81E0D03308F080E0DF91CF911F9117
:1043B0000F91FF90EF90DF900895DF92EF92FF92C0
:1043C0000F931F93CF93DF93EC01FC01E254FE4F58
:1043D0009081692381F1D090650500916605109167
:1043E0006405E12EF12C0E94BC39282FC7018C54A2
:1043F0009F4F68E671E00E9413388E199F0997FD60
:10440000039695958795959587952370612F289F9D
:10441000600D11247D2D802F0E94341E462F282FE1
:10442000672FCE01DF91CF911F910F91FF90EF90F9
:10443000DF900C94571EDF91CF911F910F91FF9049
:10444000EF90DF900895CF92DF92FF920F931F932A
:10445000CF93DF938C01FC01C281C1111DC060911B
:10446000670520E1620F08F46FEF80916905909174
:104470006A050E94531B6AE070E00E94FF37892B97
:1044800059F50E94BC3960E370E00E941338F801CE
:1044900061810E94DD2120C0FC018081C82FCC0FEA
:1044A000CC0FC80F95E0F92EFC0EF0E3FF1510F4C9
:1044B00080E3F82ED0E0CF2CD12CCC15DD053CF4D8
:1044C000F8016181CE010E94DD212196F6CFC1E085
:1044D000FFE2FF1508F4C0E08C2FDF91CF911F9110
:1044E0000F91FF90DF90CF9008951F93CF93DF93AC
:1044F000FC01E254FE4F20816223D1F0EC010E94C6
:10450000BC39182F0E94BC398F77782F20E8720FA2
:1045100008F47FEF612F809166050E94341E462FBC
:10452000282F672FCE01DF91CF911F910C94571E3A
:10453000DF91CF911F910895CF92DF92FF920F9359
:104540001F93CF93DF938C01FC01C281C1111DC069
:104550006091670520E1620F08F46FEF80916905B3
:1045600090916A050E94531B65E070E00E94FF373E
:10457000892B59F50E94BC3960E370E00E94133822
:10458000F80161810E94752220C0FC018081C82F42
:10459000CC0FCC0FC80F95E0F92EFC0EF0E3FF1501
:1045A00010F480E3F82ED0E0CF2CD12CCC15DD0513
:1045B0003CF4F8016181CE010E9475222196F6CF6C
:1045C000C1E0FFE2FF1508F4C0E08C2FDF91CF912E
:1045D0001F910F91FF90DF90CF900895DF92EF929F
:1045E000FF920F931F93CF93DF938C01DC018C918B
:1045F000C82FCC0FCC0FC80FD5E0DC0FD13308F09B
:10460000D0E3E0906505F0906605D0906405609178
:1046100067056695669566958091690590916A052E
:104620000E94531B0E94A31B805887FD8195880F11
:10463000682F2CE0629F612D11246D0D7E2D8F2D32
:104640000E944F1BF62EE72ED82ECD1798F4EC2F94
:10465000F0E0DF01A254BE4F8C91D80111969C91DD
:10466000982331F02D2D4F2D6E2DCF010E94571E16
:10467000CF5FEBCF81E0D03308F080E0DF91CF91C6
:104680001F910F91FF90EF90DF900895E091BF028E
:10469000F091C00209940C94561480916905909190
:1046A0006A05A0916B05B0916C0588279C70AA27BC
:1046B000BB272AE0B695A795979587952A95D1F7B8
:1046C00082309105A105B10571F083309105A105F6
:1046D000B10569F040E00197A105B10511F060E076
:1046E00008C064E102C044E160E080E003C044E14E
:1046F00064E184E10C9446235F926F927F928F92E3
:104700009F92AF92BF92CF92DF92EF92FF920F9360
:104710001F93CF93DF93D82F809101028D130DC08B
:1047200020916305237030E04091020250E081E067
:104730002417350719F480E001C081E0817080936F
:104740000002809168059091FF01981739F08093DD
:10475000FF0140E060E080E00E944623DF3009F086
:1047600041C08EEF91E00E94C51FC82F27C00E9454
:104770008E1B7801EE0CFF1C81FFBCC10E0D1F1DAE
:10478000F801E65BFB4F1082118212820E94551DD8
:104790000091690510916A0520916B0530916C05B7
:1047A000DC01CB01800F911FA21FB31F8093DA049D
:1047B0009093DB04A093DC04B093DD048091FE01B0
:1047C0008F5F8093FE01C111D6C282E08093FD010C
:1047D000809100028111CFC2D111CDC283E08093BC
:1047E000FD01C9C2D03108F08DC0D73029F48EEF59
:1047F00091E00E94B51FB9CFD83008F054C0D33033
:1048000029F48EEF91E00E94DB20AFCFD430C0F5C9
:10481000D13029F48EEF91E00E944320A6CFD23010
:1048200050F480910002882349F140E060E080E08C
:104830000E94462323C08EEF91E00E94822095CFF4
:10484000DC3108F49FC0DD3109F4AFC008F0C2C10B
:104850004091DE045091DF046091E0047091E10426
:104860008091690590916A05A0916B05B0916C05E6
:1048700084179507A607B70708F055C1C0E09ECF7B
:10488000D53029F48EEF91E00E9486216ECFD6308C
:1048900028F48EEF91E00E942D2167CF8EEF91E0FA
:1048A0000E94B11F62CFDB3029F48EEF91E00E94AD
:1048B000E11E5BCFDC3098F4D93029F48EEF91E023
:1048C0000E94521F52CFDA3028F48EEF91E00E94FE
:1048D0004E1F4BCF8EEF91E00E94DD1E46CFDD30A4
:1048E00029F48EEF91E00E94BD1F3FCFDE3028F407
:1048F0008EEF91E00E94B91F38CF8EEF91E00E94B9
:10490000C11F33CFD73129F48EEF91E00E942322CB
:104910002CCFD83178F5D33129F48EEF91E00E9475
:10492000E91E23CFD43198F4D13129F48EEF91E0F0
:104930000E94561F1ACFD23128F48EEF91E00E94C8
:10494000E51E13CF8EEF91E00E945A1F0ECFD53196
:1049500029F48EEF91E00E943B2007CFD63128F456
:104960008EEF91E00E94372000CF8EEF91E00E9401
:104970003F20FBCEDB3109F063CF8EEF91E00E9448
:10498000CD1FF3CED93129F48EEF91E00E94EE22B3
:10499000ECCEDA3128F48EEF91E00E949C22E5CE35
:1049A0008EEF91E00E94C91FE0CE4091DA04509151
:1049B000DB046091DC047091DD04809169059091C5
:1049C0006A05A0916B05B0916C0584179507A60741
:1049D000B70708F453CF8091000281110DC0809178
:1049E000FE01C82FCC0FCC0FC80F05E00C0F013310
:1049F00008F454C000E352C040E060E080E00E9450
:104A00004623CAE4EC2EC4E0FC2E00E010E0CFE721
:104A10000E948E1B81FF05C0F70110821182128255
:104A20001DC00E948E1BB82E0E948E1B8695782F6B
:104A30002C2F720F08F47FEFC801880F991F800F89
:104A4000911FFC01E65BFB4F6F016B2D80916605AA
:104A50000E944F1BF6016083718382830F5F1F4F9B
:104A6000F3E0EF0EF11C0033110591F6B8CF8C2F57
:104A700090E0FC01E254FE4F30812091FF0123239E
:104A800061F0FC01EE0FFF1FE80FF91FE65BFB4F23
:104A90002281408161810E94571ECF5FC01738F389
:104AA000C1E0003308F0C0E0003308F487CE20E016
:104AB00010E001501109822F90E0801791070CF04F
:104AC00056CEAC01440F551F480F591F465B5B4F34
:104AD0000196FC01EE0FFF1F8E0F9F1FFC01E65B8E
:104AE000FB4F80819181A281FA0180839183A2830F
:104AF0002F5FE1CF0E948E1BD82E0E948E1B8695C1
:104B0000782F2FE7720F08F47FEF0E0D1F1D065B45
:104B10001B4F6D2D809166050E944F1BF80160832D
:104B20007183828333CE0E948E1BC82F0E948E1BFE
:104B300090E3891BF0F7890F082F10E0F801E25489
:104B4000FE4F9091FF018081892309F441C0C1FF8C
:104B500004C020E040E060E013C00E948E1BC82F1C
:104B60000E948E1B8695782F2FE7720F08F47FEF37
:104B70006C2F809166050E94341E462F282F672FC8
:104B8000C8010E94571E2091670530E1230F08F4E9
:104B90002FEF60E1822F90E00E94531BBC0184EF55
:104BA00091E00E94FF378091690590916A05A0917C
:104BB0006B05B0916C05860F971FA11DB11D8093E9
:104BC000DE049093DF04A093E004B093E10456CE9A
:104BD000C1E0F4CDDE3109F0C2C0409146045091ED
:104BE000470460914804709149048091690590914F
:104BF0006A05A0916B05B0916C0584179507A6070F
:104C0000B70708F43BCE80910002882329F040E0EA
:104C100060E080E00E944623609164057091650524
:104C2000809166050E94341EC62F772E682E02EFF3
:104C300013E09AE0E92E91E0F92E26E4A22E24E07A
:104C4000B22E47016801512CF6018081F4018823BE
:104C500029F08081262D4C2F672D04C0808120E013
:104C600040E060E090E00E94571EF6018181819350
:104C70006F015394FFEF8F1A9F0A22E05212E4CF84
:104C80004701680185E0582EF6018581F4018823EB
:104C900029F08581262D4C2F672D04C0858120E0C9
:104CA00040E060E090E00E94571EF6018481858319
:104CB0005A94F1E0CF1AD10821E0821A910833E02A
:104CC0005312E2CFF8018381F701882329F0838111
:104CD000262D4C2F672D04C0838120E040E060E04A
:104CE00090E00E94571EF8018281F701882329F085
:104CF0008281262D4C2F672D04C0828120E040E068
:104D000060E090E00E94571E0E948E1B837091E02D
:104D100009F090E0F801928393830A5F1F4FF6E059
:104D2000EF0EF11CA016B10609F08BCF0E94551DA5
:104D30000091690510916A0520916B0530916C0511
:104D4000DC01CB01800F911FA21FB31F809346048B
:104D500090934704A0934804B09349048FCDDF3F5C
:104D600021F40E944D2382E03ACD8091FE018F5FB5
:104D70008093FE012ACDDF91CF911F910F91FF907B
:104D8000EF90DF90CF90BF90AF909F908F907F90EB
:104D90006F905F90089508950C94CB260E94CC26C6
:104DA0000C948B0608950C94D226CF93DF93FC01CC
:104DB000C081F4E0CF9FC00D1124C550D5E0DC0FB9
:104DC000D13308F0D0E36D2F8C2F0E94D3266D2FA6
:104DD0008C2FDF91CF910C94D226CF930E948B30F1
:104DE0006093E3047093E4048093E5049093E604F5
:104DF0002091E704211108C0C09163052C2F237076
:104E000019F0C695C69501C0C0E02091FD01213082
:104E100091F028F02230D9F0233031F144C01092C3
:104E2000FE016093690570936A0580936B0590930A
:104E30006C0581E016C08C2F0E947C23CC2399F155
:104E40000E94CE268EEF91E0CF910C94D526C09390
:104E50000102809163058370809302020E94521EBA
:104E600083E08093FD011FC08091E204882351F00C
:104E700046E050E06CE170E083E695E00E94063A7F
:104E80001092E2046091690570916A0580916B054A
:104E900090916C050E94A6306A31710581059105DB
:104EA00010F01092FD01CF910895E091BB02F091B6
:104EB000BC0209950E949013811104C00E94351410
:104EC0000E94371E46E050E06CE170E083E695E01A
:104ED0000E94E2391092E204809163058C7F11F404
:104EE0000C94371E0895CF93C82F882391F080919A
:104EF000E70481110EC00E947C2310920102809170
:104F000063058370809302020E94521E83E08093A7
:104F1000FD01C093E704CF910895E3E6F5E0208119
:104F200091E0922790831092FD019091E204892BE9
:104F30008093E204089581E00C948D2780916305AD
:104F4000837011F41092FD01809163058C7F816064
:104F50008093630508950E949E278091E2048160FA
:104F60008093E2040895909163059370A1F08111FC
:104F700002C0946007C08F3110F0986703C0880F9B
:104F8000880F982B909363051092FD018091E204A5
:104F9000682B6093E204089561E00C94B327682FB6
:104FA00090916305969596959F5F9F3110F4892F98
:104FB00001C081E00C94B32781E00C94CF27682FC7
:104FC0009091630596959695915011F0892F01C0A7
:104FD0008EE10C94B32781E00C94DF279091630558
:104FE000937059F08093640560936505409366055E
:104FF0008091E204282B2093E2040895A3E6B5E013
:105000001196EC911197F0E0282F13964C9113977D
:1050100012966C91CF0108960C94EE2781E00C94C7
:10502000FE27A3E6B5E01196EC911197F0E0282F4A
:1050300013964C91139712966C91CF0108970C948C
:10504000EE2781E00C941128E3E6F5E0628120E18F
:10505000620F08F46FEF9181282F4381892F90E030
:105060000C94EE2781E00C942428E3E6F5E06281BD
:1050700020E1621B08F460E09181282F4381892F91
:1050800090E00C94EE2781E00C943528E3E6F5E0FF
:10509000438120E1420F08F44FEF9181282F628174
:1050A000892F90E00C94EE2781E00C944628E3E6EB
:1050B000F5E0438120E1421B08F440E09181282F74
:1050C0006281892F90E00C94EE2781E00C945728A0
:1050D000809367058091E204682B6093E204089551
:1050E0002091670530E1230F08F42FEF682F822FFE
:1050F0000C94682881E00C9470282091670530E1B9
:10510000231B08F420E0682F822F0C94682881E08C
:105110000C947D2880936805089560E084E70E94E0
:105120008F2A61E087E70C948F2ACF930E94BA2DD3
:1051300084E70E94E22887E70E94E228C0E021E09D
:1051400041E061E08C2F0E949329CF5FC033B9F713
:1051500060E084E70E94A72A61E087E7CF910C9482
:10516000A72AEDE8F6E06083418324E630E042E0E0
:1051700050E0BF01880F0C94962E0F931F93CF938E
:10518000DF93082F000FEB0114E210938D06EEE879
:10519000F6E0DE018D91819386E0EE39F807D1F7D4
:1051A00024E630E041E150E06DE876E0802F0E9497
:1051B000962E105F6096143B41F7DF91CF911F91BF
:1051C0000F910895CF93DF93C82F4BE06DEF0E94AE
:1051D000B12840E06AE08C2F0E94B1288FE39CE95F
:1051E0000197F1F700C0000040E060E08C2F0E94C2
:1051F000B12840E061E08C2F0E94B12840E066E0D9
:105200008C2F0E94B12840E06DEF8C2F0E94B128B6
:10521000D0E040E06D2F8C2F0E94B128DF5FD231AB
:10522000C1F740E06D2F8C2F0E94B128DF5FD43290
:10523000C1F740E06D2F8C2F0E94B128DF5FD43B77
:10524000C1F74BE06DEF8C2F0E94B12841E06AE07E
:105250008C2F0E94B12840E06DEF8C2FDF91CF9111
:105260000C94B128FF920F931F93CF93DF9300D03C
:1052700000D0CDB7DEB78033910588F5122F042F0B
:10528000F62EBC01660F771F660F771F6C507F4F9D
:1052900044E050E0CE0101960E94CC3989818370B0
:1052A0004A81282F30E050E9859FC001112483599D
:1052B0009A4FFC01E40FF11DB497F0824B81FC0181
:1052C000E40FF11DB49700834C81840F911DFC0104
:1052D000B4971083F901E25FFA4F81E080830F9069
:1052E0000F900F900F90DF91CF911F910F91FF9032
:1052F0000895FF920F931F93CF93DF93182F062FDC
:10530000F42EC0E0D0E02F2D402F612FCE010E945F
:1053100032292196C033D105B1F7DF91CF911F918A
:105320000F91FF9008955F926F927F928F929F925C
:10533000AF92BF92CF92DF92EF92FF920F931F93A3
:10534000CF93DF9300D000D0CDB7DEB7862E942E5A
:10535000522E24E0829FC0011124BC016C507F4F6B
:1053600044E050E0CE0101960E94CC392A8130E021
:10537000C9018497FC0197FD379673E0F595E79591
:105380007A95E1F74B8150E08A01045211099801A6
:1053900017FF02C0295F3F4F63E0359527956A9557
:1053A000E1F74C8150E05A0164E2A61AB1083501D8
:1053B000B7FE04C03A017DE1671A710843E07594B5
:1053C00067944A95E1F758E0C52ED12CB6010E94AA
:1053D00013387C01C801B6010E9413388C01C50145
:1053E000B6010E941338FF274981FF24542F5370C0
:1053F000882081F062E1569FE00DF11D1124E651F5
:10540000FB4F61E070E001C0660FEA94EAF750815B
:10541000652B10C072E1579FE00DF11D1124E6517C
:10542000FB4F61E070E001C0660FEA94EAF7609517
:1054300050816523608333271127542F537099209F
:1054400089F062E1569F200D311D1124F901E651CA
:10545000FB4F21E030E001C0220F0A95EAF73081CE
:10546000232B11C072E1579F200D311D1124F9012A
:10547000E651FB4F21E030E001C0220F0A95EAF728
:10548000209530812323208377249927942F9370AC
:1054900093015520A1F052E1959F200D311D11245B
:1054A000F901E651FB4F21E030E0B90102C0660F7F
:1054B000771F8A95E2F7CB019081892B14C072E1A6
:1054C000979F200D311D1124F901E651FB4F21E07A
:1054D00030E0B90102C0660F771F8A95E2F7CB0171
:1054E00080959081892380834370E42FF0E0E85118
:1054F000FB4F81E080830F900F900F900F90DF9112
:10550000CF911F910F91FF90EF90DF90CF90BF90C0
:10551000AF909F908F907F906F905F900895CF9302
:10552000DF93262F30E0E901C25FDA4F988199239B
:1055300051F090E9929FB001939F700D112463592F
:105540007A4F0E94BD281882DF91CF910895DF9293
:10555000EF92FF920F931F93CF93DF93262F30E0AC
:10556000A90148515B4F7A01FA01908191110AC05B
:10557000F7011082DF91CF911F910F91FF90EF9073
:10558000DF900895D82EF2E16F9FE001112400E032
:1055900010E0F801EC0FFD1FE651FB4F4081602F3A
:1055A0008D2D0E94B1280F5F1F4F0231110589F721
:1055B000DFCF882311F0FA0101C0FB0109941F938A
:1055C000CF93DF93FB011281111191C0EC010E9476
:1055D000AD128272CB3CFCE5DF0709F472C010F516
:1055E000C63CECE5DE0709F453C058F4C43C9CE526
:1055F000D90709F441C008F044C0C33CDC45C9F1F7
:1056000036C0C83C9CE5D90709F44CC008F445C035
:10561000C93CFCE5DF0709F44AC0CA3CDC4509F493
:105620004BC025C0C03DECE5DE0709F45DC088F441
:10563000CD3C9CE5D90709F44EC008F447C0CE3CE8
:10564000FCE5DF0709F44CC0CF3CDC4509F44AC057
:105650000EC0C73D9CE5D90730F4C23DDC4508F0DB
:1056600046C082E142C0CE35DD4509F440C011E0BC
:105670003EC00E949B273BC04BEE57E26CED77E2A9
:1056800004C04CED57E26BEE77E20E94D92A2FC09E
:1056900041E258E26EE078E2F8CF4EE058E261E293
:1056A00078E2F3CF43E458E262E378E2EECF42E3FC
:1056B00058E263E478E2E9CF45E658E264E578E24F
:1056C000E4CF44E558E265E678E2DFCF47E858E208
:1056D0006AE778E2DACF4AE758E267E878E2D5CFBE
:1056E00081E003C085E001C08DE00E94CC27812FBE
:1056F000DF91CF911F910895CF93DF93EC01FB01D0
:105700008281882309F43CC1C430FDE5DF0760F4E1
:10571000CB3F9CE5D90788F49E0122503C452431BB
:10572000310508F02EC109C0C236EDE5DE0729F0CB
:10573000C63AFDE5DF0709F024C10E94A313909348
:10574000460580934505C1318CE5D80709F4C6C0EC
:1057500008F042C0C930ECE5DE0709F49BC000F553
:10576000C5308CE5D80709F485C078F4C330ECE582
:10577000DE0709F478C008F07AC0C230DC4509F0D1
:10578000F5C0809145058160EFC0C7309CE5D90721
:1057900009F478C008F07AC0809145058061E4C0C2
:1057A000CD30FCE5DF0709F487C058F4CB309CE529
:1057B000D90709F479C008F07BC08091450588605D
:1057C0006FC0CF30FCE5DF0709F480C008F082C06D
:1057D00080914505877FC8C0CE3F9CE5D90709F475
:1057E00071C000F5C531FCE5DF0709F485C068F438
:1057F000C3319CE5D90709F475C008F095C00E9433
:10580000B10A809145058F77AFC0CC3FFCE5DF073B
:10581000A9F108F054C0CB3FDC4509F0A7C0809146
:10582000460540C0C230EDE5DE0709F489C058F4F2
:10583000C1158DE5D80709F45AC008F069C08091F8
:10584000460582602FC0C236EDE5DE0709F47CC054
:10585000C63AFDE5DF0709F481C0C330DD4509F034
:1058600085C080E06EC08091450582607DC08091DA
:10587000450516C080914505886076C08091460533
:1058800082604FC08091450580626EC08091450561
:1058900080646AC00E94B10A80914505806864C036
:1058A000846062C081603DC0809145058E7F5CC090
:1058B000809145058D7F58C08091450516C0809127
:1058C000460518C0809146058D7F2BC08091450507
:1058D0008F7E4AC0809145058F7D46C080914505E9
:1058E0008F7B42C080914505877F8B7F3DC0809133
:1058F00046058D7F8E7F15C08091450582FB22274E
:1059000020F991E0922790FB82F990FB83F92CC05B
:1059100080914605982F909591708E7F892B90FBF2
:1059200081F98093460522C00E94B10A8091450505
:1059300087FB222720F991E0922790FB87F914C07A
:1059400081E00E94371412C08091450584FB222714
:1059500020F991E0922790FB84F906C080914505DB
:10596000982F909590FB80F980934505809145058F
:10597000909146050E94B4130E94B10A80E001C0D4
:1059800081E0DF91CF910895CF93DF9386319C45DD
:1059900041F5EB010E94AD12982F8A812091F4010C
:1059A0003091F501882379F09A7A81E009F480E05A
:1059B00080931005911102C069E201C065E3C9013D
:1059C0000E94BE2F0AC080911005811102C069E2B9
:1059D00001C065E3C9010E94C92F0E94EF1280E057
:1059E00001C081E0DF91CF9108950F931F93CF9372
:1059F000DF93C42FD22FFC0182818823C9F040930A
:105A000013050E947F30909312058093110580E268
:105A10008C0F883008F057C0C77081E001C0880F34
:105A2000CA95EAF7DF91CF911F910F910C948B0AE1
:105A300080911305481330C0809111059091120593
:105A40000E9497308436910538F510E21D0FCD176E
:105A5000B9F080E28C0F883040F4C77081E001C05B
:105A6000880FCA95EAF70E94920A183028F581E05B
:105A70009D2F977001C0880F9A95EAF70E948B0AB4
:105A8000802F0E94820A1830F0F4D77081E001C0A4
:105A9000880FDA95EAF70AC080E28C0F883098F414
:105AA000C77081E001C0880FCA95EAF7DF91CF91F6
:105AB0001F910F910C94920A802FDF91CF911F912B
:105AC0000F910C94820ADF91CF911F910F9108954D
:105AD0000F939C01CB01243F4CE5340731F188F44E
