:100000000C9420040C943D040C943D040C943D0489
:100010000C943D040C943D040C943D040C943D045C
:100020000C943D040C943D040C9418370C94EA375E
:100030000C94C2310C943D040C943D040C943D048A
:100040000C943D040C943D040C943D040C943D042C
:100050000C943D040C9467320C943D040C943D04C4
:100060000C943D040C943D040C943D040C943D040C
:100070000C943D040C943D040C943D040C943D04FC
:100080000C943D040C943D040C943D040C943D04EC
:100090000C943D040C943D040C943D040C943D04DC
:1000A0000C943D040C943D040C943D0499049C0470
:1000B0009F04A204A504A804AB04BA0DBA0DE80D70
:1000C000E80D470E650E590F590F6A0EE20EF50E38
:1000D000F50E52387938713979387139C538E838C0
:1000E00071393F394E3900443454007464840055EA
:1000F000456500857595003626460066567600965D
:1001000086A6003727470077678700382848008889
:1001100078980039294900695979009989A9003AE4
:100120002A4A006A5A7A003B2B4B006B5B7B004CDF
:100130003C5C007C6C8C005D4D6D008D7D9D003EB7
:100140002E4E006E5E7E0144345401746484015569
:1001500045650185759501362646016656760196F8
:1001600086A6013727470177678701382848018825
:1001700078980139294901695979019989A9013A80
:100180002A4A016A5A7A013B2B4B016B5B7B014C7B
:100190003C5C017C6C8C015D4D6D018D7D9D013E53
:1001A0002E4E016E5E7E2E002B002A61E100015171
:1001B00000001E00140004001D00350029641F000B
:1001C0001A0016001B0034002C0020000800070055
:1001D00006005000E00021001500090019004F0042
:1001E0004A00220017000A000500000065002900EF
:1001F0004C000000015100004D0029002A000000C1
:10020000015100004B0023001C000B0011000000F6
:10021000E000240018000D00100052004E002500E0
:100220000C000E0036005100E500260012000F0001
:1002300037002F0028002700130033423800300019
:100240004C002D0031003468E500E2000000290078
:10025000010001000100010000003A001E0220021E
:100260002202000001003B001F022102230205536D
:10027000CA5C3C002F0226022F000100CB5C3D002F
:10028000300227023000045301003E0031023500E5
:1002900035020000C45C0100010000000100000004
:1002A000010001000100000001000000C35C3F00EC
:1002B0005200510024020000B75D40005F005C0066
:1002C00059000453B65D410060005D005A003700DC
:1002D000C65C420061005E005B006200C75C4300D8
:1002E00025022E0231002E00010044004500E300EB
:1002F000010001000000A600010001000100010052
:10030000000001000100010001000100BA5D0100D0
:10031000DB00CF0001000100BC5D0100CD00CE007C
:100320000100D20001000100DC00D0000100D1007A
:10033000B95D01000100035301000000BB5D010035
:100340000100000001000000B85D01000100000094
:100350000100000001000100D900DA00D300000014
:1003600001000100A900DD00AE00D1000100010084
:10037000AA00DE00AC00D200B7000100A800DF0038
:10038000AB00A800B600010046000100010001001A
:100390000100005C4602AE00010001000000010007
:1003A0000100E00001000100000001000100010067
:1003B000010001002900010001000100010001000D
:1003C000E200010001000100010001002C00010019
:1003D0000100010001000100010001000100010015
:1003E0000100000001000100010000000100000008
:1003F00001000100010000000100000001000100F7
:1004000001000100010000000100010001000100E5
:1004100001000100010001000100010001000100D4
:10042000280001000100010001000100010001009D
:1004300001000100010001000100010001000100B4
:100440000100010000002D0031003468E500045374
:10045000000023001C000B4211002F004C00240060
:1004600018000D0010003000E40025000C000E0004
:10047000360051002800260012000F0037005200FD
:100480004E0027001300330038000000E000290070
:100490002A000000015100004B0029004C00000020
:1004A000015100004D001E00140004001D0000005A
:1004B00065001F001A0016001B0050004A002000B3
:1004C0000800070006004F002C002100150009005D
:1004D000190035002964220017000A0005003400C5
:1004E000E3002E002B002A61E1000453000001000C
:1004F00001000100010001000000010001000100F5
:1005000001000100010001000100010001000100E3
:1005100001000100010001000100010001000100D3
:1005200001000100010001000100010001000100C3
:1005300001000000010001000100000001000000B6
:1005400001000100010000000100000001000100A5
:100550000100010001000000010001000100010094
:100560000100010001000100010001000100010083
:100570000100010001000100010001000100010073
:100580000100010001000100010001000100010063
:100590000100010000000001010101010101010150
:1005A0000202020202020202020303030303030324
:1005B00003040404040404040505050505060606F1
:1005C0000606070707070708080808090909090AAE
:1005D0000A0A0B0B0B0C0C0C0D0D0D0E0E0E0F0F53
:1005E0000F101011111112121313141415151616E1
:1005F0001717181819191A1A1B1B1C1D1D1E1E1F50
:100600002020212222232424252626272829292A9E
:100610002B2C2D2D2E2F30313232333435363738C6
:10062000393A3B3C3D3E3F404142434445464748C2
:10063000494A4C4D4E4F50515354555658595A5B98
:100640005D5E5F616264656668696B6C6D6F707238
:10065000737577787A7B7D7E8082838587888A8CA4
:100660008E8F91939596989A9C9EA0A2A3A5A7A9D8
:10067000ABADAFB1B3B5B7BABCBEC0C2C4C6C9CBCF
:10068000CDCFD1D4D6D8DBDDDFE2E4E7E9EBEEF085
:10069000F3F5F8FAFDFF20034500720067006F00D4
:1006A00044006F007800200045005A0020004700F9
:1006B0006C006F007700000028035A0053004100CF
:1006C000200054006500630068006E006F006C003D
:1006D0006F006700790020004C0061006200730029
:1006E00000000403090409025400030100A0FA09F0
:1006F0000400000103010100092111010001224051
:10070000000705810308000109040100010301023B
:10071000000921110100012247000705820308009A
:100720000109040200010300000009211101000178
:10073000226D000705830320000112010002000062
:100740000008973276490100010200010501098085
:10075000A101850319012AB700150126B7009501EB
:1007600075108100C0050C0901A101850419012A39
:10077000A002150126A002950175108100C0050197
:100780000906A1018506050719E029E715002501DD
:100790009508750181020507190029EF150025014B
:1007A00095F0750181020508190129059505750166
:1007B0009102950175039101C005010902A101098A
:1007C00001A10005091901290815002501950875E1
:1007D0000181020501093009311581257F950275D6
:1007E00008810609381581257F9501750881060560
:1007F0000C0A38021581257F950175088106C0C055
:1008000005010906A101050719E029E715002501E1
:100810009508750181029501750881010507190088
:1008200029FF150026FF00950675088100050819A7
:10083000012905950575019102950175039101C086
:1008400011241FBECFEFDAE0DEBFCDBF12E0A0E083
:10085000B1E0E0ECF8E702C005900D92A43DB107CD
:10086000D9F726E0A4EDB2E001C01D92AB38B20783
:10087000E1F70E94E2190C945E3C0C940000809811
:10088000889A8198899A84988C9A85988D9A869866
:100890008E9A87988F9A0895209828982198299859
:1008A00022982A9823982B9852985A9853985B9894
:1008B0003E9846980895CF93E82F873080F5809131
:1008C000EE019091EF01892B09F047C0CE2F64E62D
:1008D00070E080E40E94552F9093EF018093EE0129
:1008E000892BD1F464E670E082E10E94C82F9093D6
:1008F000EF018093EE01892B79F481E090E001C053
:10090000880FCA95EAF764E670E080950E94C82FC8
:100910009093EF018093EE010E943C301EC090E066
:10092000FC013797E730F105C0F4EA5AFF4F0C9409
:10093000F539209A289811C0219A29980EC0229A38
:100940002A980BC0239A2B9808C0529A5A9805C02F
:10095000539A5B9802C03E9A4698CF910895CF93E0
:10096000873040F58091EE019091EF01892B59F588
:1009700064E670E081E40E94552F9093EF0180932C
:10098000EE01892B11F0C0E011C084E690E00E94D6
:10099000F72F97FF05C09093EF018093EE01F3CFFF
:1009A000C82FC0951092EF011092EE010E943C30CA
:1009B0008C2F0AC09FB18FB1807F869586959370EA
:1009C000892B809501C080E0CF9108950E94F105A8
:1009D00090E09093EF018093EE010E944C040E94FE
:1009E0003F040895EF92FF920F931F93CF93DF93ED
:1009F0008091EE019091EF01892BA1F08091D602B8
:100A00008F5F8093D60281110DC00E94F10590E0A6
:100A10009093EF018093EE01892B21F40E945905F8
:100A20000E94D8280CE115E0C0E0F12C87E0E82E08
:100A3000EC0E8C2F0E945B048E2D0E945B048C2F89
:100A40000E94AF048F73F8019081891719F0808399
:100A5000D1E001C0D0E08E2D0E94AF048F73F80169
:100A60009781891719F0878381E001C080E0D82B36
:100A7000FD2A0E944C04CF5F0F5F1F4FC730B1F6B5
:100A80008F2DCDB7DEB7E6E00C94233A0E94F10536
:100A900090E09093EF018093EE010E944C040E943D
:100AA0003F04EAE2F5E0119285E0E833F807D9F770
:100AB000089556985E9825982D9826982E982798F0
:100AC0002F988FEF90E09093890080938800909307
:100AD0008B0080938A0090938D0080938C00259AE0
:100AE0002D9A2FEF80E792E0215080409040E1F76F
:100AF00000C00000269A2E9A2FEF80E792E0215046
:100B000080409040E1F700C00000279A2F9A2FEF15
:100B100080E792E0215080409040E1F700C0000063
:100B200025982D982FEF80E792E02150804090404B
:100B3000E1F700C0000026982E982FEF80E792E0A2
:100B4000215080409040E1F700C0000027982F9886
:100B500056985E9825982D9826982E9827982F9825
:100B6000089589EA8093800089E080938100249829
:100B70002C983F988AB18F7C8AB96E98479A8BB12E
:100B800080638BB9769A0E948015609316057093E6
:100B90001705809318059093190567708FEF689F6C
:100BA000B0011124759567957595679577277093B2
:100BB00089006093880070938B0060938A00709323
:100BC0008D0060938C008091160584FF02C08FEF2A
:100BD00001C080E00E94122A0E9459050E94061955
:100BE000089580E290E09093EF018093EE01809170
:100BF000D70281110EC00E944F2F81E08093D7024F
:100C00002FEF83ED90E3215080409040E1F700C04A
:100C1000000064E670E080E40E94552F9093EF019D
:100C20008093EE01892B09F04EC064E670E080E00D
:100C30000E94C82F9093EF018093EE01892B09F059
:100C400042C064E670E080E00E94C82F9093EF01FC
:100C50008093EE01892BB9F564E670E08FE30E9482
:100C6000C82F9093EF018093EE01892B61F50E94CC
:100C70003C3064E670E080E40E94552F9093EF01D1
:100C80008093EE01892BF9F464E670E08CE00E9419
:100C9000C82F9093EF018093EE01892BA1F464E6B5
:100CA00070E080E00E94C82F9093EF018093EE01E6
:100CB000892B49F464E670E08FE30E94C82F90937B
:100CC000EF018093EE010E943C308091EE01089587
:100CD000109216051092170510921805109219051A
:100CE00084E0806180931605609116057091170568
:100CF00080911805909119050E9485150E94931501
:100D000008950E94031908950E942C290895A0E0D7
:100D1000B0E0EDE8F6E00C94FB398091160583FD18
:100D20003FC3E0910903F0910A033196F0930A035F
:100D3000E09309032091F001622F70E0CF010E943F
:100D4000BF39892B29F4809108038F5F80930803B2
:100D50002695622F70E0CF010E94BF39332433946F
:100D6000892B09F0312C512C30E8232ECFE08C2E2A
:100D7000C2E09C2ED7E2AD2ED2E0BD2E8FE3C82E6E
:100D800082E0D82E9BE1E92E92E0F92E23E3622E39
:100D900022E0722E442443948AEF840D8230E8F1DD
:100DA00082E0581681F0851520F0E1E05E1649F0EA
:100DB00006C0F3E05F1649F084E0581641F0F601F2
:100DC00007C0F30105C0F50103C0F70101C0F4013C
:100DD000C081D0E0CF3FD10501F18E0108521D4FF7
:100DE000F8018081882311F083198083652D842D7B
:100DF0000E94E618882311F0F80120826091080310
:100E0000F8018081681B7FEF8FEF0E94081D462F3D
:100E1000282F672FCE010E9415204394FFEF8F1AD1
:100E20009F0A8FEFA81AB80AEFEFCE1ADE0AFFEF7B
:100E3000EF1AFF0A8FEF681A780AEDE04E12ACCF76
:100E40005394F5E05F1292CF80910F03882309F449
:100E5000A7C240910B0341704195242F6FEF83E0AF
:100E600090E00E94152040910B0350910C0360917B
:100E70000D0370910E0376956795579547954170D0
:100E80004195242F6FEF82E090E00E941520409161
:100E90000B0350910C0360910D0370910E0392E0CF
:100EA00076956795579547959A95D1F741704195F5
:100EB000242F6FEF81E090E00E94152040910B03FA
:100EC00050910C0360910D0370910E0323E0769511
:100ED0006795579547952A95D1F741704195242FED
:100EE0006FEF80E090E00E94152040910B0350913D
:100EF0000C0360910D0370910E0334E076956795B5
:100F0000579547953A95D1F741704195242F6FEF4A
:100F100089E190E00E94152040910B0350910C0351
:100F200060910D0370910E03E5E0769567955795F6
:100F30004795EA95D1F741704195242F6FEF8AE1EB
:100F400090E00E94152040910B0350910C0360919A
:100F50000D0370910E03F6E07695679557954795CA
:100F6000FA95D1F741704195242F6FEF8BE190E016
:100F70000E94152040910B0350910C0360910D03CA
:100F800070910E03A7E07695679557954795AA95BA
:100F9000D1F741704195242F6FEF8CE190E00E94D2
:100FA000152040910C0341704195242F6FEF88E08C
:100FB00090E00E94152040910B0350910C0360912A
:100FC0000D0370910E03B9E0769567955795479597
:100FD000BA95D1F741704195242F6FEF87E090E0EB
:100FE0000E94152040910B0350910C0360910D035A
:100FF00070910E03CAE07695679557954795CA9507
:10100000D1F741704195242F6FEF86E090E00E9468
:10101000152040910B0350910C0360910D037091CA
:101020000E03DBE07695679557954795DA95D1F7EE
:1010300041704195242F6FEF85E090E00E941520CC
:1010400040910B0350910C0360910D0370910E03BE
:101050008CE076956795579547958A95D1F74170BD
:101060004195242F6FEF8EE190E00E941520409172
:101070000B0350910C0360910D0370910E039DE0E2
:1010800076956795579547959A95D1F74170419513
:10109000242F6FEF8FE190E00E94152040910B0309
:1010A00050910C0360910D0370910E032EE0769524
:1010B0006795579547952A95D1F741704195242F0B
:1010C0006FEF80E290E00E94152040910B03509159
:1010D0000C0360910D0370910E033FE076956795C8
:1010E000579547953A95D1F741704195242F6FEF69
:1010F00081E290E00E94152040910D0341704195DE
:10110000242F6FEF8DE090E00E94152040910B039B
:1011100050910C0360910D0370910E03E1E17695FF
:10112000679557954795EA95D1F741704195242FDA
:101130006FEF8CE090E00E94152040910B035091DE
:101140000C0360910D0370910E03F2E176956795A3
:1011500057954795FA95D1F741704195242F6FEF38
:101160008BE090E00E94152040910B0350910C03FE
:1011700060910D0370910E03A3E1769567955795E5
:101180004795AA95D1F741704195242F6FEF8AE0DA
:1011900090E00E94152040910B0350910C03609148
:1011A0000D0370910E03B4E17695679557954795B9
:1011B000BA95D1F741704195242F6FEF83E290E00B
:1011C0000E94152040910B0350910C0360910D0378
:1011D00070910E03C5E17695679557954795CA9529
:1011E000D1F741704195242F6FEF84E290E00E9487
:1011F000152040910B0350910C0360910D037091E9
:101200000E03D6E17695679557954795DA95D1F710
:1012100041704195242F6FEF85E290E00E941520E8
:1012200040910B0350910C0360910D0370910E03DC
:1012300087E176956795579547958A95D1F74170DF
:101240004195242F6FEF86E290E00E941520409197
:101250000E0341704195242F6FEF82E190E00E94D0
:10126000152040910B0350910C0360910D03709178
:101270000E0399E176956795579547959A95D1F71D
:1012800041704195242F6FEF81E190E00E9415207D
:1012900040910B0350910C0360910D0370910E036C
:1012A0002AE176956795579547952A95D1F741702C
:1012B0004195242F6FEF80E190E00E94152040912E
:1012C0000B0350910C0360910D0370910E033BE1F1
:1012D00076956795579547953A95D1F74170419521
:1012E000242F6FEF8FE090E00E94152040910B03B8
:1012F00050910C0360910D0370910E03ECE1769513
:10130000679557954795EA95D1F741704195242FF8
:101310006FEF88E290E00E94152040910B035091FE
:101320000C0360910D0370910E03FDE176956795B6
:1013300057954795FA95D1F741704195242F6FEF56
:1013400089E290E00E94152040910B0350910C031C
:1013500060910D0370910E03AEE1769567955795F8
:101360004795AA95D1F741704195242F6FEF8AE2F6
:1013700090E00E94152040910B0350910C03609166
:101380000D0370910E03442777FD4395552766277B
:1013900077274195242F6FEF8BE290E00E94152074
:1013A000CDB7DEB7E2E10C94173AFB01893B2DE59E
:1013B000920759F148F4873B2DE5920771F0F0F45C
:1013C000843C9C4589F03EC08B3B2DE5920749F15A
:1013D00018F18C3B9D4569F135C08281882399F1D4
:1013E00081E00E9449292CC08281882361F190917B
:1013F0000F0381E0891B80930F0322C08281882321
:1014000011F18091F0018F5F19C082818823D9F09A
:101410008091F001815012C082818823A1F084E084
:101420000DC08281882379F08091F0018093F101D1
:1014300007C08281882339F08091F1018093F00107
:1014400080E0089581E00895AC01516060E070E0B3
:101450006260736040930B0350930C0360930D0321
:1014600070930E0356985E9825982D9826982E987E
:1014700027982F9881FF02C0259A2D9A82FF02C0DB
:10148000269A2E9A83FF02C0279A2F9A84FF04C0BF
:10149000259A2D9A279A2F9A08958630B0F46E30A7
:1014A000A0F4463090F494E5899FF001112486E081
:1014B000689FE00DF11D1124E40FF11DEE0FFF1FD9
:1014C000EA55FE4F85919491089580E090E008954B
:1014D0000E944D0A089581E008950E94D50908955B
:1014E00008950E94700A0895A5E0B0E0EAE7FAE0E6
:1014F0000C940A3A49835A833091150389819A8161
:10150000311114C0662359F0222349F00E940211C0
:10151000182F682F89819A810E94DE1003C00E94D3
:10152000F010182F69817A81812F04C00E94021166
:1015300069817A810E94D5172596E3E00C94263ABA
:10154000FC01262F408151816281738184810E9438
:10155000740A089581E00895CF93DF93EC0160E071
:101560000E94A00ABE010E94710ADF91CF910895E6
:101570000E94B10508950E948106089508950E9471
:10158000460D0E94BE0A2FEF84E39CE0215080406C
:101590009040E1F700C0000008950E94BF0A0E9439
:1015A0008D3208950E94BF0A0E94BF3208950F93A2
:1015B0001F93CF93DF938C0161E00E94A00AEC019E
:1015C000B8010E946D0A882309F447C0B801CE0112
:1015D0000E94FD2E882309F440C0B801CE010E946C
:1015E000E52C8823D1F1B801CE010E94632E882317
:1015F000A1F1B801CE010E94482C882371F1F801B5
:101600008281882331F1CB358DE5D807E9F050F49C
:10161000C115FCE5DF0779F0CF3DDC45D1F40E9430
:1016200045150CC0CD35EDE5DE0759F080F0C83A20
:10163000DD4521F00EC00E94CD0A0FC00E94D20AE3
:101640000CC00E94331505C00E943D1502C00E94C7
:101650004115C8010E946B0A01C080E0DF91CF9163
:101660001F910F9108950E949E310E9470280E9440
:10167000580B81E00E94F62808950E945C0B80E0E0
:101680000E94F6280E94A431089508950E94450BF7
:10169000089581E008950E94490B08950895CF931D
:1016A000C82F0E94460B8C2F0E944B0BCF910895A0
:1016B00080E00E944F0B08950E944A300E944F0B19
:1016C0000895CF930E944A30C82F80911003C81705
:1016D00079F0C09310030E9430326093110370932D
:1016E000120380931303909314038C2F0E944F0BCB
:1016F000CF910895ABE0B0E0E0E8FBE00C940B3A4A
:10170000942F4F83252F588769877A878B874A853F
:101710005B85452B31F02F3F31F481E09F3F19F479
:1017200003C081E001C080E080FD09C08091160304
:101730009091170301969093170380931603898560
:1017400081110E947B149E012F5F3F4F86E0F901BB
:1017500011928A95E9F785E0FE013796D90101904B
:101760000D928A95E1F789819A814C815D81452BA3
:1017700031F09F3F31F491E08F3F19F403C091E0C5
:1017800001C090E090FF09C049815A816B817C8142
:101790008D819E810E94A71305C0C9010E94AA0ADB
:1017A0008111F2CF2B96E2E00C94273AFC01808164
:1017B00091810E9434110895662319F00E94671ADE
:1017C00002C00E94C21A0E94391B0895CF93882339
:1017D00009F4A4C0C82F8238C1F40E944A3081FDA8
:1017E0009DC069E38091F2019091F3010E94423122
:1017F0000E949F142FEF87EE93E02150804090408D
:10180000E1F700C0000069E319C0833801F50E94C8
:101810004A3080FD83C063E58091F2019091F3012D
:101820000E9442310E949F142FEF81EE94E02150DC
:1018300080409040E1F700C0000063E58091F20134
:101840009091F3010E9450310E949F1467C0843828
:10185000C1F40E944A3082FD61C067E48091F201C8
:101860009091F3010E9442310E949F142FEF81EE6C
:1018700094E0215080409040E1F700C0000067E410
:10188000DDCF8CEF8C0F813AD0F46C2F8091F20178
:101890009091F3010E94C230882349F06C2F80910F
:1018A000F2019091F3010E9450310E949F146C2F1D
:1018B0008091F2019091F3010E944231C5CF80E204
:1018C0008C0F883048F4C77081E001C0880FCA953A
:1018D000EAF70E945E14B8CFEBE5EC0FE33040F47A
:1018E000F0E0E358FD4F808190E00E947C3016C00C
:1018F000E8E5EC0FE93150F4F0E0EE0FFF1FE55B97
:10190000FD4F808191810E94943008C083E38C0F49
:10191000833120F461E08C2F0E94DC0BCF9108957D
:10192000882309F468C0823879F40E944A3081FF24
:1019300062C069E38091F2019091F3010E9442310B
:101940000E949F1469E310C08338B9F40E944A30A2
:1019500080FF51C063E58091F2019091F3010E94F4
:1019600042310E949F1463E58091F2019091F3014E
:101970000E9450310E949F140895843879F40E9487
:101980004A3082FF38C067E48091F2019091F30100
:101990000E9442310E949F1467E4E6CF9CEF980FAB
:1019A000913A10F4682FE0CF90E2980F983050F4FD
:1019B000877091E001C0990F8A95EAF7892F0E94FC
:1019C0006414D8CF9BE5980F933028F480E090E022
:1019D0000E947C30089598E5980F993128F480E0B2
:1019E00090E00E949430089593E3980F933118F497
:1019F00060E00E94DC0B08951F93CF93DF93182FB4
:101A0000EB010E94E60B209741F08FE99FE00197E0
:101A1000F1F700C000002197F6CF812F0E94900CB3
:101A2000DF91CF911F910895893319F060E070E044
:101A300002C060E570E00E94FC0C0895882321F04C
:101A40000E945E140E949F140895882321F00E9432
:101A500064140E949F14089580E090E00E947C30FE
:101A600080E090E00E9494300E947B140E949F14BA
:101A70000E94581B0E94391B08958091F201909199
:101A8000F3010E945E310E942C0D08950E946B1498
:101A90000E943D0D089592959F70963079F010F454
:101AA000925001C09A50923068F4803F69F018F467
:101AB000883E40F409C0843F29F406C0883E20F0E7
:101AC000813F11F080E0089581E00895FC0190814C
:101AD000818123813481232B31F08F3F31F481E0E8
:101AE0009F3F19F403C081E001C080E080FD07C082
:101AF000808191810E9434110E944B0D089580E0F5
:101B00000895A0E0B0E0E7E8FDE00C94043A6C0131
:101B1000C62F172FFC01D281058102950F700E94FC
:101B200054148823B9F0DD23A9F0812F807F8034FD
:101B300021F080E28C0F883068F080911B0582FFD5
:101B400009C082E00E9401150E94541491E0E82E21
:101B5000E92601C0E12CB12EB2942FE0B2228B2DE8
:101B600090E08C30910508F0A4C1FC01E35AFF4FCE
:101B70000C94F539912F9F70812F807FF92E19F0E9
:101B8000F29490EFF922DD2399F0FF2009F47DC152
:101B900080E28C0F883010F0C11104C08F2D0E949C
:101BA0005E1403C08F2D0E946E140E949F146DC19D
:101BB0008C2F0E94900CFF2009F47BC180E28C0FD7
:101BC000883050F1CC2341F18F2D0E94741427C02E
:101BD000912F9F70812F807FF92E803219F0F2941F
:101BE00080EFF822CC2319F0C130D1F145C08091AB
:101BF0001B0582FD17C0DD2349F0FF2029F08F2D42
:101C00000E945E140E949F1480E040C180E00E9408
:101C1000900CFF2009F44DC18F2D0E9464140E9486
:101C20009F1447C1DD2371F0002341F0013031F4EE
:101C30000E947E148F290E9488143BC10E947E144A
:101C40008F2914C0011103C00E9495141CC00130DB
:101C500009F42FC18F2D0E94250D0E94951429C1D2
:101C6000DD2339F0023008F024C18F2D0E941E0DB3
:101C700020C101111EC107C0DD2319F00023A9F303
:101C800004C1011108C18F2D0E94250D12C1812FA1
:101C900086958695837019F0813061F00AC1DD2345
:101CA00021F08C2F912F937002C080E090E00E9471
:101CB0007C3007C1DD2321F08C2F912F937002C05F
:101CC00080E090E00E949430FCC06D2F8C2F0E9429
:101CD000DC0BF7C0812F8370B9F5D111EEC04C2F0A
:101CE000429546954770440F440F8C2F8F7090E0BB
:101CF0009C01042E02C0220F331F0A94E2F7C4FF96
:101D00000AC08FE090E002C0880F991F4A95E2F761
:101D10008095909502C080E090E0412F46954695D1
:101D20004370822B932B423049F058F4413019F024
:101D30000E940F10C2C00E940610BFC00E9418105F
:101D4000BCC00E940310B9C0DD2319F0812F81703F
:101D500001C08695882309F4B0C04C2F4295469562
:101D60004770440F440F8C2F8F7090E09C01042E1D
:101D700002C0220F331F0A94E2F7C4FF0AC08FE0AB
:101D800090E002C0880F991F4A95E2F780959095E0
:101D900002C080E090E0412F469546954370822B2B
:101DA000932B423049F058F4413019F00E947910D9
:101DB00084C00E94701081C00E9482107EC00E9468
:101DC00024107BC0912F9F70F92EDD2339F0892FCD
:101DD0000E943E108C2F0E941E0D6FC08C2F0E94FF
:101DE000250D8F2D0E944E1068C0C23F19F128F4B6
:101DF000C03F41F0C13FB9F044C0C33F11F1C43FFF
:101E000071F03FC0DD2339F0011153C0812F8F7174
:101E10000E9460104EC0023008F04BC0F7CF809196
:101E20001B0582FD18C0DD2339F0812F8F710E94C0
:101E30003E103FC0DD23C9F3812F8F710E944E10E9
:101E400038C0DD2329F0812F8F710E94321031C0FC
:101E50000E942D102EC0DD2359F0E12FEF71FE2ED0
:101E60008E2F0E943E1063E08F2D0E94E31421C04C
:101E700081E00E9401150230E0F082E00E9401152D
:101E800018C0DD2331F0002381F28C2F0E94E60B75
:101E900010C0002389F2C93349F4FFEF27EE83E035
:101EA000F15020408040E1F700C000008C2F0E94DC
:101EB000900C88EF8B0D843020F40E944A300E94F1
:101EC0004F0B8C2F912F0E944B0D811105C010924A
:101ED00017031092160311C0DD2319F00111F7CF7B
:101EE0000CC00111F4CF8091160390911703029753
:101EF00071F78C2F0E94140DEACFEE2089F00E941A
:101F0000501480FD0DC0F60112820E944A140E94F6
:101F10003E10C6010E94AD0F0E944A140E944E104E
:101F2000CDB7DEB7E9E00C94203A0F931F93CF931F
:101F3000DF93EC01688179818A810E943F118C01D5
:101F40000E948B100E94F20FB801CE010E94810DF9
:101F5000DF91CF911F910F910895CF93DF93EC0103
:101F6000988189812B813C81232B31F08F3F31F483
:101F700081E09F3F19F403C081E001C080E080FD53
:101F80001AC0CE010E94D70A81110FC00E945414BA
:101F9000882389F08A81882371F080911B0582FF54
:101FA0000AC082E00E94011506C0CE010E94950F72
:101FB000CE010E94AC0ADF91CF910895A5E0B0E078
:101FC000E4EEFFE00C940B3A2596E2E00C94273AFD
:101FD000A6E0B0E0EEEEFFE00C940B3A2696E2E0CD
:101FE0000C94273A089508950E94F30F08950E94D3
:101FF000F40F08950E94F70F9093470380934603D0
:102000000E942C0D08950E94FA0F08952091460316
:1020100030914703822B932B0E94FA0F0895209151
:10202000460330914703822393230E94FA0F0895B9
:102030002091460330914703822793270E94FA0F8D
:1020400008950E94240A08950E9421109093450348
:10205000809344030E942C0D089580E090E00E943C
:102060002410089521E030E0A90102C0440F551F5B
:102070008A95E2F7CA010E942410089521E030E019
:1020800002C0220F331F8A95E2F78091440390919A
:102090004503822B932B0E942410089521E030E009
:1020A00002C0220F331F8A95E2F720953095809168
:1020B000440390914503822393230E9424100895A2
:1020C00021E030E002C0220F331F8A95E2F78091B1
:1020D000440390914503822793270E94241008957A
:1020E0002091440330914503822B932B0E942410AE
:1020F00008952091440330914503822393230E9445
:10210000241008952091440330914503822793279A
:102110000E94241008950895962F9770A1E001C0A1
:10212000AA0F9A95EAF793E0769567959A95E1F765
:10213000660F771F660F771FFA01E60FF71F40E063
:1021400050E0682F70E090819B01042E02C036950C
:1021500027950A94E2F72170219529272A23292718
:1021600021934F5F5F4F4430510569F70895FB019C
:10217000782F777023E0969587952A95E1F7880F59
:10218000991F880F991FE80FF91F40E050E080E089
:10219000219130E0072E02C0369527950A94E2F788
:1021A00021703327042E01C0220F0A94EAF7822BF4
:1021B0004F5F5F4F4430510559F70895282F9E30E7
:1021C00070F4863060F4862F622F70E026E0929FD4
:1021D000600D711D112448E153E00E948C10089598
:1021E0009E3070F4863060F4292F90E068E173E04F
:1021F00036E0239F800D911D11240E94B710089591
:1022000080E00895A0E0B0E0E8E0F1E10C94043A49
:102210007C01009144031091450380914603909105
:102220004703082B192BCFE0D0E0CC24C394D12C4A
:10223000C6010C2E02C0880F991F0A94E2F7802372
:102240009123892B21F4219798F7B12C07C0BC2E3C
:10225000B7018C2F0E94E1170197A9F38B2DCDB701
:10226000DEB7E9E00C94203ACF93DF93EC010E94B3
:102270000211BE010E94E117DF91CF9108951F93D3
:10228000CF93DF93EB0190911503992321F0CB01BC
:102290000E94341113C0882349F0CB010E9402111F
:1022A000182F682FCE010E94DE1004C0CB010E94BF
:1022B000F010182FBE01812F0E94E117DF91CF91FE
:1022C0001F9108951F93CF93DF93C091480316E0A9
:1022D00080914903C81799F0D0E01C9FF0011D9F21
:1022E000F00D1124E65BFC4F4081518162817381C6
:1022F000848195810E94E80F2196C770E9CFDF9114
:10230000CF911F91089540917A0350917B03609182
:102310007C0370917D0380917E0390917F030E94E6
:10232000E80F08950F931F93CF93DF9380917F035E
:1023300082958F7009F05AC080917C03882309F43C
:1023400055C0809148031091490360917A037091C0
:102350007B03C0917D03D0917E0391E06F3F09F034
:1023600090E0292F06E0811709F440C0209721F062
:102370007F3F21F030E003C031E001C0322F90E018
:1023800030FD31C0089FF001099FF00D1124DF01DD
:10239000A65BBC4F11963C911197371324C03C911A
:1023A000361321C012963C91129731111CC013961E
:1023B0004D915C9114974C1B5D0B4436510598F47C
:1023C00080917F038F70806180937F03E15BFC4F7E
:1023D00080818F70806180838AE793E00E94AD0FD7
:1023E0000E94621103C001968770BDCFDF91CF912B
:1023F0001F910F910895A1E1B0E0E1E0F2E10C94AA
:10240000023A8C0185E0F801DE011D9601900D92E3
:102410008A95E1F7F801E28090917A0360917B035D
:1024200020917D0330917E032115310531F06F3FFE
:1024300031F481E09F3F19F403C081E001C080E0E6
:10244000F82FF1709F2E80FD40C1F801408151812D
:10245000A380B4808AE7C82E83E0D82EF0907C0356
:10246000F501E21BF30BFF2009F4DAC080917F0332
:10247000E436F10508F096C0282F207F09F053C0FC
:10248000561313C0491311C0FE2CE1100EC08F70FB
:10249000806180937F030E948311C6010E94AD0F6B
:1024A00080917F03F80185834DC1A114B10431F0FF
:1024B0005F3F31F481E04F3F19F403C081E001C078
:1024C00080E080FD03C081E08E2502C080E090E0C6
:1024D000F82FF170FF2E80FF1CC0809148032091DF
:1024E000490336E0821709F40BC190E0389FF001F0
:1024F000399FF00D1124E65BFC4F6181561306C035
:102500006081461303C06281E61203C001968770A2
:10251000E9CFFE2CEE2009F415C180917F03816084
:1025200080937F0354C0561306C0491304C0E110C2
:1025300002C0F80199C0C8010E94660D882361F1AC
:10254000EE2051F120917F03822F82958F7090E0D1
:10255000029774F080917A0390917B0398878F8320
:102560001986BB86AA862C87CE0107960E94AD0FDE
:1025700086E0F801AAE7B3E001900D928A95E1F7B1
:102580000E9492110E9483110AC0561711F1C801CE
:102590000E94660D81112CC0C8010E94AD0FFF245E
:1025A000F394D0C0282F207F81F77A2DB98AA88A8A
:1025B0006E2D89890E94DE0F8AE793E00E94AD0F9D
:1025C00086E0F60111928A95E9F70E948311F12CB9
:1025D000B9C04913DCCFE110DACFF8018583C80117
:1025E0000E94AD0F86E0F60111928A95E9F7AAC024
:1025F000EE2091F220917F03822F82958F7090E0E0
:1026000002970CF4B5CF80917A0390917B039A8363
:1026100089831B82BD82AC822E83CE010196A6CF18
:10262000E436F10508F044C0FE2CEE2009F4B4CFE6
:10263000561330C049132EC020917F0320FD21C0C6
:10264000822F82958F70482F50E041155105C9F0B7
:10265000F80125834F30510541F08F5F982F9295F7
:10266000907F822F8F70892B8583C8010E94AD0FC8
:1026700086E0F801AAE7B3E001900D928A95E1F7B0
:102680003CC086E0F801AAE7B3E001900D928A957C
:10269000E1F758C0C8010E94660D811169CF809191
:1026A0007F03816080937F03C8010E94AD0F4AC001
:1026B0007A2DB98AA88A6E2D89890E94DE0F86E05C
:1026C000F60111928A95E9F718C0EE2009F464CF5B
:1026D000C8010E94660DF82E882309F45DCF86E0BC
:1026E000F801AAE7B3E001900D928A95E1F78AE735
:1026F00093E00E94D60B0E9492110E94831122C087
:102700004D875E878D859E850E943411292F2295E5
:102710002F70223028F49F7039F0811105C00BC052
:10272000243028F49F7049F4805E883020F0C8017E
:102730000E94AD0F9F2CF92C05C0F8019581907F68
:1027400099F7F9CF8F2D6196EBE00C941E3AACE02F
:10275000B0E0EDEAF3E10C940A3A4F8358876987B9
:102760007A878B879C87CE0107960E94FB1188236E
:10277000D1F09F8188852A853B85232B31F08F3FBF
:1027800031F481E09F3F19F403C081E001C080E093
:1027900080FD47C04F81588569857A858B859C85EA
:1027A0000E94E80F3EC086E0FE013796DE011196DA
:1027B00001900D928A95E1F7FF81E8856A857B8516
:1027C0006115710531F0EF3F31F481E0FF3F19F4FD
:1027D00003C081E001C080E080FD23C02091490357
:1027E00030E0C9010196877099274091480350E075
:1027F00084179507F1F1F983EA837D836C8396E072
:10280000929FD001939FB00D1124A65BBC4FFE0197
:10281000319601900D929A95E1F7809349030E94B9
:10282000621116E08091480390914903891771F174
:10283000189FC0011124865B9C4F0E94FB118823C6
:1028400029F1E09148031E9FF0011124E65BFC4F43
:102850004081518162817381848195810E94E80F5A
:102860008091480390E001968770992780934803F0
:10287000D9CF0E94460D1092490310924803EAE70F
:10288000F3E086E0DF011D928A95E9F72C96E3E0FC
:102890000C94263A8091A003859585958595089599
:1028A0008091A003877008959091A003977081E0B4
:1028B00009F480E008958091C30308959091C303C3
:1028C000892B8093C303089580959091C303892336
:1028D0008093C30308951092C30308959091C20397
:1028E000892B8093C203089580959091C203892318
:1028F0008093C20308951092C20308958091A103AA
:10290000089508950E94811408950E9482140895E4
:1029100090911B0592FF08C09091A103981721F098
:102920008093A1030E94851408958091A1038823B8
:1029300029F01092A10380E00E9485140895CF939E
:10294000DF93E091F201F091F3018091C303808362
:10295000E091F201F091F30190818091C203892B03
:1029600080838091A103882381F0E091F201F091AE
:10297000F3019081892B80838091F2019091F30182
:102980000E94AC3081110E949514C091F201D09147
:10299000F30140E250E060E873E0CE010E94B83BF2
:1029A000892B59F080E2FE01A0E8B3E001900D927E
:1029B0008A95E1F7CE010E945730DF91CF910895BB
:1029C0000E948114089590911B0592FF11C098E018
:1029D000899F90011124262B2093A0030E943E1072
:1029E0008091A0038595859585950E94E0140895B2
:1029F0000E943E1008951092A00380E00E94E0140F
:102A000008952091A003809582238093A003982F9E
:102A1000977099F430E0482F082E000C550B2417BE
:102A2000350759F090911B0592FF07C08595859554
:102A300085950E944E100E94FB14089590911B05ED
:102A400092FB222720F9281769F080FB92F99093D6
:102A50001B0580911A0590911B050E94721582E05A
:102A60000E940115089580911B0582FB882780F93B
:102A700091E089270E941E15089581E00E941E158D
:102A8000089580E00E941E1508956FEF7FEF80E0AB
:102A900090E00E94173C089580E090E00E94E33BA4
:102AA00021E0883E9E4F09F020E0822F089582E0C9
:102AB00090E00E94D53B089583E090E00E94D53BD2
:102AC0000895CF9384E090E00E94D53BC82F82E226
:102AD00090E00E94D53B2C2F30E0A901582BCA0171
:102AE000CF910895CF93C92F682F84E090E00E9482
:102AF000F93B6C2F82E290E00E94F93BCF91089560
:102B00008FE090E00E94DD3B0895AB01BC018FE0B7
:102B100090E00E940B3C0895AB01BC0183E190E082
:102B20000E940B3C089560E070E0CB010E948C1580
:102B3000089568EE7EEF80E090E00E94173C60E030
:102B400082E090E00E94F93B60E083E090E00E9428
:102B5000F93B109247031092460360E084E090E056
:102B60000E94F93B64E182E290E00E94F93B60E060
:102B700085E090E00E94F93B60E086E090E00E94F2
:102B8000F93B6FEF87E090E00E94F93B40E050E0B6
:102B9000BA0188E090E00E940B3C60E08DE090E09C
:102BA0000E94F93B40E050E0BA0188E190E00E94C9
:102BB0000B3C60E087E190E00E94F93B40E050E090
:102BC000BA018CE190E00E940B3C60E070E080E292
:102BD00090E00E94173C40E050E0BA0188E190E0AC
:102BE0000E940B3C0E94680608950E949915089562
:102BF000682F8EE090E00E94F93B08950E943032E9
:102C00006093D8037093D9038093DA039093DB0326
:102C10006093D4037093D5038093D6039093D70326
:102C2000089581E008950E941116089508950E9464
:102C3000161608950E94840608950E941616089597
:102C40000E941D1608950E941616089585EC98E1BD
:102C50000E9440300E9423160E94201608950E9470
:102C600017160E94161608950E94C8180E944E0B4F
:102C70000E94D82808950E941B320E9409190E94C0
:102C800034160E941A160895AAE0B0E0EAE4F6E1CC
:102C90000C94023A0E941B1986ECE82E83E0F82E71
:102CA000670100E0F60111916F01802F0E94FB186F
:102CB00081270F5F0E3019F08823A1F322C0811104
:102CC00020C00E9424328C018091C4039091C503DE
:102CD0000817190709F456C08FEF89838A831B826E
:102CE0000E9424328160782F9D838C8349815A8190
:102CF0006B818D810E947A0B1093C5030093C403EE
:102D000041C08091DC0381FD0E9401190E941316CD
:102D1000982E10E0812F0E94FB18B82EF701C0807A
:102D2000C82641F100E0DD24D3948C2D8D21E1F003
:102D3000AA24A3948B2D8D2109F4A12C992079F03C
:102D40000E831F83A8860E9424328160782F9A8781
:102D500089874E815F8168858A850E947A0B4A2D1A
:102D6000602F812F0E94C4240F5FDD0C0630E9F62E
:102D7000F701B0821F5FFFEFEF1AFF0A1E3051F616
:102D80000E94FE150E9470280E947A1B0E94610B0F
:102D90002A96EBE00C941E3ACF93DF930E94E6173D
:102DA000EC01811521E5920708F044C0811530E55A
:102DB000930708F094C0803E910528F58D3C91055D
:102DC00008F08BC0883A910570F4853A910508F0B7
:102DD0007AC08130910509F473C008F4DFC004970C
:102DE00008F0DFC0DBC0813C910508F0D7C0C85AAD
:102DF000D0E0CC0FDD1FC058DD4F0990D881C02D29
:102E0000CE019464CFC0C11580E2D80750F4C1153B
:102E100021E0D20708F0C5C0C83ED10508F4C1C002
:102E2000BDC0C11530E4D30708F4B8C0DF70CE01CF
:102E3000906AB8C0C11585E5D807A8F4C11524E586
:102E4000D20708F08DC0C11533E5D30708F072C072
:102E5000C11582E5D80708F057C0DC2FCC27CE017A
:102E6000816F906A9FC0C11529E5D207A0F4C115F2
:102E700038E5D30708F07AC0C11586E5D80708F011
:102E80008DC08C2F0E9482188F7190E0D82FCC2794
:102E9000CE01906287C0C1152AE5D20708F46CC044
:102EA000CE0190568115904208F078C08D2F8F7119
:102EB0000E948218DD27D0628F719E01382B6CC072
:102EC00081E090E06FC0C55AD0E0CE54DD4F8881DC
:102ED000C82FD0E0CE01906465C0906563C0837058
:102EE000992721E030E002C0220F331F8A95E2F7D4
:102EF0009C2F9695969580E2989FE0011124C22B15
:102F0000D32BCE019D684EC0CE018370992721E05E
:102F100030E002C0220F331F8A95E2F79C2F96956E
:102F2000969580E2989FE0011124C22BD32BCE010D
:102F30009C6838C0CE018370992721E030E002C040
:102F4000220F331F8A95E2F79C2F9695969580E283
:102F5000989FE0011124C22BD32BCE019A6822C086
:102F6000DC2FCC27CE01846F906A1CC0DC2FCC27CD
:102F7000CE01806F906A16C08C2F8F700E948218CD
:102F800094E0D695C7959A95E1F7CF70D0E0DC2F05
:102F9000CC27D0699E01282BC90104C080E090E0B5
:102FA00001C0CE01DF91CF9108957E3038F46630B4
:102FB00028F4462F672F0E94680A089580E090E069
:102FC00008950E94D5170E94CC1608958238910565
:102FD00069F1B0F48133910509F475C048F4893280
:102FE000910509F467C08A32910509F471C008950A
:102FF0008533910509F459C089339105B9F00895D5
:10300000833E910589F138F4803E9105D1F0823EEE
:10301000910529F10895863E9105C9F1873E9105F4
:10302000D9F1843E910509F06CC027C020911A05A2
:1030300020FD57C021FD55C020911B0523FD5BC01D
:10304000089580911A0580FD48C080911B0580FF7E
:1030500048C080911A0584FD46C083EE51C080911E
:103060001A0582FF3CC0F5CF80911A0582FD37C05A
:1030700080911B0580FD35C0ECCF80911B0581FF41
:1030800036C080911A0584FD2EC087EE39C080912C
:103090001A0583FF2AC0F5CF80911A0583FD25C04C
:1030A00080911B0581FD23C0ECCF80911A0585FD21
:1030B00022C01FC080911A0585FD1BC080911B0591
:1030C00083FF19C00AC080911A0586FD16C017C07B
:1030D00080911A0586FD13C010C089E311C082EEED
:1030E0000FC080EE0DC080E00BC086EE09C084EEFC
:1030F00007C085E305C089E203C08AE201C081E31D
:1031000090E0089590911A0592FF0DC0282F287124
:10311000283019F4877F846006C0282F247124305A
:1031200011F48B7F886093FF0DC0282F2871283100
:1031300019F4877E846106C0282F2471243111F48C
:103140008B7E886120911B0520FF0DC0382F3871C0
:10315000383019F4877F816006C0382F31713130E3
:1031600011F48E7F886021FF0DC0282F287128312F
:1031700019F4877E816106C0282F2171213111F455
:103180008E7E886194FD877E089580E0089508957D
:103190000E944C15811102C00E94F5150E9457151E
:1031A0008093DC030E94611590931B0580931A05A0
:1031B0000E94C7180E945C1590E00E940310809145
:1031C0004403909145030E9421100895E82FF0E0F8
:1031D000E65DFA4F2081822F90E021E030E002C0CE
:1031E000220F331F6A95E2F72823392381E0232B2E
:1031F00009F480E00895E82FF0E0E65DFA4F808161
:103200000895089508950E94021908950E940219D0
:1032100008950E94E604ECE1F5E0AAE2B5E011921F
:103220001D9285E0EA32F807D1F78EE00E942E1950
:103230000E94B80A0895CF938CE195E00E94F204B1
:10324000282F4EE06AE275E08CE195E00E9441197A
:10325000C82F0E94BB0A8C2FCF910895CF93C82FFF
:1032600090E00E94323A8093E1039093E203282F8A
:10327000FC018E2F821B8C1710F41192FACFCF9184
:103280000895A0E0B0E0E7E4F9E10C94063A082FD5
:10329000F92EE62ED72E142FD22F1092DD03C091D7
:1032A000DE03CC23C9F10E9424322091DF03309148
:1032B000E003AC01421B530B9A019093E00380930F
:1032C000DF034F3F510509F020F4452B09F468C096
:1032D00002C02FEF30E01092DE031092E303409122
:1032E000E103E42FF091E20390E030E08E2F841BA5
:1032F000811768F48081882341F0281718F0108224
:103300009C2F03C0821B80833C2F3196EFCF3093DC
:10331000DE039093E30344C02223D1F10E942432C0
:103320009093E0038093DF034091E1038091DD03FC
:103330009091DE03AE2DBD2DC02FDF2DE42FF09137
:10334000E2035EE12E2F241B2117B8F428813C9163
:10335000321779F0308131110CC050832C93988151
:103360009227282F30E0292B81E0232B09F480E0DD
:1033700091E0319611962196E5CF8093DD039093ED
:10338000DE038091DD03CDB7DEB7E7E00C94223A8F
:1033900080E09091E3039923A1F38111C5CFBECFC3
:1033A000D111C2CF81E0F5CF0E9475340E943B1647
:1033B0000E94823408950E9487340E9444160E941D
:1033C000A13408950E94BB310E945B340E942616EE
:1033D0000E94D4190E94DB190E942F16FBCF809106
:1033E000EB0380FF06C06091F90170E0660F771F64
:1033F00026C081FF04C06091F90184E005C082FF0E
:1034000007C06091F90188E0689FB001112417C0DE
:103410009091EA039923D1F06091F801961788F70B
:103420002091F90188E0289F90011124929FA0012A
:10343000939F500D112470E0CA010E94BF3960387B
:10344000710540F46115710519F406C068E070E07B
:10345000862F08958FE7089581E008958091EB030A
:1034600080FF08C06091F50170E0759567957595CE
:10347000679521C081FF06C06091F50170E07595E8
:10348000679519C082FF04C06091F50170E010C01B
:103490009091E903992399F06091F4019617A0F7B0
:1034A0008091F501899FC001112470E00E94BF390D
:1034B0006038710540F46115710519F406C061E0CA
:1034C00070E0862F08958FE7089581E008958D3C80
:1034D00021F40E94EF19819504C08E3C29F40E94CA
:1034E000EF198093EE0308958F3C21F40E94EF19A9
:1034F000819504C0803D29F40E94EF198093ED036B
:103500000895893D19F40E942E1A05C08A3D31F4B0
:103510000E942E1A81958093EF0308958B3D21F42C
:103520000E942E1A819504C08C3D29F40E942E1A07
:103530008093F00308959FE2980F983078F421E08B
:1035400030E0A90102C0440F551F9A95E2F7CA0165
:103550009091EC03892B8093EC0308958D3D21F429
:103560008091EB0381600BC08E3D21F48091EB03D1
:10357000826005C08F3D29F48091EB0384608093C5
:10358000EB0308958D3C39F49091EE0397FF35C01D
:103590001092EE0359C08E3C29F49091EE03191657
:1035A000BCF32BC09091ED038F3C29F497FF25C00D
:1035B0001092ED0349C0803D19F41916CCF31DC0DB
:1035C0009091EF03893D29F41916BCF41092EF0392
:1035D0003BC08A3D19F497FF10C0F8CF8B3D39F4FA
:1035E0009091F00397FF09C01092F0032DC08C3D1D
:1035F00021F49091F0031916BCF39FE2980F9830D4
:1036000080F421E030E0A90102C0440F551F9A95D3
:10361000E2F7CA0180959091EC0389238093EC0333
:1036200013C08D3D21F48091EB038E7F0BC08E3D46
:1036300021F48091EB038D7F05C08F3D29F48091AB
:10364000EB038B7F8093EB038091ED03811106C028
:103650008091EE03811102C01092EA038091EF0382
:10366000811106C08091F003811102C01092E9031C
:1036700008950E9424322091ED03211104C020916D
:10368000EE03222321F09093E8038093E703209137
:10369000EF03211104C02091F003222321F0909325
:1036A000E6038093E5038CEE93E00E947130089569
:1036B000ECEEF3E085E0DF011D928A95E9F71092C8
:1036C000EA031092E9031092EB030895FC01818153
:1036D00081110DC0828181110AC08381811107C0CF
:1036E00091E08481811101C090E0892F01C081E0C7
:1036F00081700895A5E0B0E0E0E8FBE10C940A3A9F
:1037000085E0ECEEF3E0DE01119601900D928A95D2
:10371000E1F71092ED031092EE031092EF03109276
:10372000F0038A81811104C08B81882309F45FC072
:103730008091E7039091E8030E943C32AC019091A4
:10374000EA03992339F02091FA0130E02417350774
:1037500058F04DC02091E4038AE0289F9001112485
:103760002417350718F043C09F3F19F09F5F9093CF
:10377000EA031A81112361F00E94EF19111614F067
:103780009FEF01C091E0989F902D11249093ED033D
:103790001B81112361F00E94EF19111614F09FEFA5
:1037A00001C091E0989F902D11249093EE033091E9
:1037B000ED033323E1F02091EE032223C1F045EB2A
:1037C0003403C0011124992319F09093ED0303C031
:1037D00081E08093ED0335EB2303C001112499238D
:1037E00019F09093EE0303C081E08093EE038C8187
:1037F000811104C08D81882309F45FC08091E503A5
:103800009091E6030E943C32AC019091E903992328
:1038100039F02091F60130E02417350758F04DC0FB
:103820002091F7018AE0289F900111242417350781
:1038300018F043C09F3F19F09F5F9093E9031C81EC
:10384000112361F00E942E1A111614F09FEF01C08F
:1038500091E0989F902D11249093EF031D811123E7
:1038600061F00E942E1A111614F09FEF01C091E032
:10387000989F902D11249093F0033091EF03332300
:10388000E1F02091F0032223C1F045EB3403C001A5
:103890001124992319F09093EF0303C081E08093E2
:1038A000EF0335EB2303C0011124992319F0909302
:1038B000F00303C081E08093F003BE016F5F7F4F90
:1038C0008CEE93E00E947031811105C08CEE93E084
:1038D0000E94661B81110E94391B85E0FE01319612
:1038E000ACEEB3E001900D928A95E1F72596E3E006
:1038F0000C94263AEF92FF920F931F93CF93DF938E
:103900008B01682F11110AC0442329F0E82FF0E041
:10391000EA56FA4F6491762F862F75C0212F30E03A
:10392000E82FF0E0442321F0EA56FA4FE491F0E06A
:1039300046E0049FC0011124CFEFD0E0BE010E94F9
:10394000AB394BEA4603C001479F900D1124800F0D
:10395000911D800F911D982F990F890FAE01421B69
:10396000530B4E9FD0014F9FB00D5E9FB00D1124A1
:103970009B2F189FA0011124452F55278E01041B52
:10398000150B0E9FA0010F9F500D1E9F500D11246F
:103990007E01E81AF108E29E8001E39E100DF29E7E
:1039A000100D1124212F3327C21BD30BCE9F900162
:1039B000CF9F300DDE9F300D112462307105A9F0CC
:1039C00048F46115710569F061307105C9F48B2FF8
:1039D000752F0DC06430710581F058F066307105A7
:1039E00079F47E2F8B2F932F0DC0832F7B2F9E2F4B
:1039F00009C08E2F7B2F952F05C08E2F732F02C0ED
:103A00007E2F852F692FCDB7DEB7E6E00C94233AE1
:103A100041E00E947A1C089520E030E0869F212D2D
:103A2000969F200D311D1124C9010895BC018230DB
:103A3000910508F40895613E8EE1780748F49B01F2
:103A400095E0369527959A95E1F748E0420F01C039
:103A50004FEF91E0242F30E0290F311D3595279548
:103A6000229FF001239FF00DF00D11246E177F07A8
:103A700018F44FEF420F04C02F3F39F091E0920F3E
:103A8000491740F78FEF890F08958FEF0895409100
:103A900001025091020225E038E0429FC001439F9D
:103AA000900D529F900D1124875E994C90930202C5
:103AB00080930102890F0895482F982F46FD909515
:103AC000E92FEF739F7046FD9F5FE295EF70EE0F59
:103AD000F0E0EB54FD4F2181299F802D212D1124F1
:103AE00082958F702295207F822B3081982F930FA3
:103AF000892F47FD819580580895E42FF0E0EE0F5F
:103B0000FF1FE25AFE4F408134EE439F412D1124A6
:103B1000E72FF0E050E0445E5F4FDA01A21BB109ED
:103B20009D01B7FF03C031952195310993E0220F24
:103B3000331F9A95E1F7AF01421B530B9A0157FFD0
:103B400002C020E030E0279F212D1124722F08951C
:103B5000E42FF0E0EE0FFF1FE25AFE4F408134EEFB
:103B6000439F412D1124E82FF0E050E0445E5F4F69
:103B7000DA01A21BB1099D01B7FF03C03195219560
:103B8000310993E0220F331F9A95E1F7AF01421BF1
:103B9000530B9A0157FF02C020E030E0582F259FB9
:103BA000212D1124822F0895622F0895E42FF0E033
:103BB000EE0FFF1FE25AFE4F6081621B0895E42F53
:103BC000F0E0EE0FFF1FE15AFE4F6081621B089587
:103BD000A22F50E0FA01EE0FFF1FE15AFE4F908135
:103BE000905297FD9195440F551FFA01E25AFE4FEE
:103BF0003081232F30E02A1B3109290F311D97FD19
:103C00003A95620F0895EF920F931F9393E0099FE7
:103C100080011124159507956E2D600F1F910F914E
:103C2000EF9008950F93CF93DF93D72FC82F47FDC1
:103C30004195E8E3F0E0CF01841B910947FD93959E
:103C4000889FB001899F700D700D1124229FC001C3
:103C5000239F900D900D1124860F971F0E94161D13
:103C6000682F660F860F682F600F7D2F8C2FDF91D6
:103C7000CF910F9108950F931F93522F10E0F801E9
:103C8000EE0FFF1FE15AFE4FE081F0E0B0979F0179
:103C90005203D001539FB00D1124000F111FF801E2
:103CA000E25AFE4F008110E00057110940039001D5
:103CB000419F300D11242A0F3B1F37FF02C02158AE
:103CC0003F4F220F232F221F330B620F1F910F91A3
:103CD00008950F931F93522F10E0F801EE0FFF1F6E
:103CE000E15AFE4FE081F0E0B097EE0FFF1F9F0119
:103CF0005203D001539FB00D1124000F111FF80182
:103D0000E25AFE4F008110E000571109000F111F09
:103D100040039001419F300D11242A0F3B1F37FFB4
:103D200002C021583F4F220F232F221F330B620F57
:103D30001F910F9108950F931F9310E0F801EE0F5C
:103D4000FF1FE25AFE4F9081905797FD9195000F0B
:103D5000111FF801E15AFE4FE081F0E0B097DF015A
:103D6000AA0FBB1F8D010E0F1F1F2003D001219F23
:103D7000B00D1124E8E3F0E0E91BF10997FDF3959C
:103D80009F01220F331F89010E0F1F1F4003900157
:103D9000419F300D11242A0F3B1F37FF02C02158CD
:103DA0003F4F220F232F221F330B620F1F910F91C2
:103DB00008950F931F93CF93DF93D62F072F182FBC
:103DC000C42F822F0E945C1DEC2FF0E0EE0FFF1F2E
:103DD000E25AFE4F90819058890F87FD8195880F98
:103DE000682F2CE0629F612D11246D0F702F812FA1
:103DF000DF91CF911F910F910895E42FF0E0EE0F26
:103E0000FF1FE25AFE4F9081921B97FD9195292F3B
:103E100038E1239F212D1124620F089520913C0544
:103E200030E1230F08F42FEF60E1822F90E00E9431
:103E30000C1DBC0188EB9BE00E94AB3980E090E058
:103E400008959091B704892B8093B7040895FC01DD
:103E50009B01009721F477FF2BC080E80895AC0107
:103E600097FF04C044275527481B590BB901640F1D
:103E7000751F37FD0CC0241B350BC901A5E0880F49
:103E8000991FAA95E1F70E94BF3980E20CC0CB01CF
:103E900065E0880F991F6A95E1F7BA01621B730B01
:103EA0000E94BF3980E6861BF7FF03C08195089505
:103EB00080E00895FF920F931F93CF93DF93F62E28
:103EC000172FD82FC901C72FC01BBA010E94271F67
:103ED000982F990F890F7C2F781B719F712D1124BA
:103EE0006F2D8D2FCDB7DEB7E5E00C94243AFF920D
:103EF0000F931F93CF93DF93F62ED72F182FC9015F
:103F0000C12FC01BBA010E94271F982F990F890F3C
:103F1000C81B2C2F219F212D1124822F6F2D7D2F27
:103F2000CDB7DEB7E5E00C94243AEF920F931F93E0
:103F3000CF93DF93D62F172FC82FC9010E19070F64
:103F4000BA010E94271F702F781B719F712D1124B9
:103F50006D2F8C2FDF91CF911F910F91EF900895CE
:103F6000EF920F931F93CF93DF93D62FC72F182F66
:103F7000C9010E19010FBA010E94271F081B202F2B
:103F8000219F212D1124822F6D2F7C2FDF91CF9126
:103F90001F910F91EF9008950F93CF93DF93D72F39
:103FA000C82FC901BA010E94271F682F600F7D2FFB
:103FB0008C2FDF91CF910F910895EF920F93CF93B4
:103FC000DF93D72FC82FC9010E19BA010E94271FEE
:103FD000602F681B7D2F8C2FDF91CF910F91EF9079
:103FE00008950E94081D0895E8E3F5E085E38083C5
:103FF00080910C0290910D02A0910E028183928318
:10400000A3838FE784838FEF858346E050E06CE1E4
:1040100070E0CF010E94E93B1092B7040895E0914F
:10402000C302F091C40209950895E091BF02F09196
:10403000C002099508954F925F926F927F928F927E
:104040009F92AF92BF92CF92DF92EF920F931F9306
:10405000CF93DF932C013B01FC018081C82FCC0F53
:10406000CC0FC80FD5E0DC0FD13308F0D0E360915E
:104070003C05669580913E0590913F050E940C1D80
:10408000182FCD1708F044C08C2E912CF401E25467
:10409000FE4F9081F20181818923C1F1F401EE0F7D
:1040A000FF1FE25AFE4FC080D12CF0E7CF1AD10893
:1040B000F401EE0FFF1FE15AFE4FA080B12C80E209
:1040C000A81AB108CC9C9001CD9C300D300D112464
:1040D000AA9CC001AB9C900D900D1124820F931FE0
:1040E0000E94161D082F6091390570913A05809144
:1040F0003B05E12E9501A601F30109950E94F11FF0
:10410000462F282F672FC4010E941520CF5FB9CFFB
:1041100081E0D03308F080E0DF91CF911F910F91C3
:10412000EF90DF90CF90BF90AF909F908F907F9057
:104130006F905F904F90089565E97FE10E941B208A
:10414000089560EB7FE10E941B20089563E07EE10B
:104150000E941B2008956DED7FE10E941B200895B1
:10416000A0E0B0E0E6EBF0E20C94033A6C015B01F6
:10417000FC018081C82FCC0FCC0FC80FD5E0DC0F1D
:10418000D13308F0D0E360913C05669580913E05FF
:1041900090913F050E940C1D182FCD1778F5EC2E3D
:1041A000F12CF701E254FE4F9081F60181818923C1
:1041B00019F1F701EE0FFF1FE15AFE4F208130E0A9
:1041C00020523109F701EE0FFF1FE25AFE4F4081E6
:1041D00050E0405751096091390570913A0580913E
:1041E0003B05012FF50109950E94F11F462F282F4D
:1041F000672FC7010E941520CF5FCFCF81E0D0335A
:1042000008F080E0CDB7DEB7EAE00C941F3A6AE52B
:104210007FE10E94B020089567E77FE10E94B0200F
:10422000089562E17EE10E94B02008956CEC7FE188
:104230000E94B0200895A0E0B0E0E1E2F1E20C9429
:10424000043A8C017B01FC018081C82FCC0FCC0F7C
:10425000C80FD5E0DC0FD13308F0D0E360913C0506
:104260006695669521E0620F08F46FEF80913E0538
:1042700090913F050E940C1DB82ECD17F0F4CC2E66
:10428000D12CF601E254FE4F9081F80181818923FF
:1042900091F06091390570913A0580913B052B2D85
:1042A0004C2FF70109950E94F11F462F282F672FE9
:1042B000C6010E941520CF5FE0CF81E0D03308F027
:1042C00080E0CDB7DEB7E9E00C94203A6DE77DE100
:1042D0000E941B21089568EA7DE10E941B21089538
:1042E00064ED7DE10E941B21089566ED7DE10E9451
:1042F0001B2108956FED7DE10E941B21089568EE5A
:104300007DE10E941B21089569ED7EE10E941B2141
:1043100008956DEF7EE10E941B210895A0E0B0E0BA
:10432000E4E9F1E20C94003A6C015B01FC0180814C
:10433000C82FCC0FCC0FC80F15E01C0F113308F09D
:1043400010E360913C056695669580913E059091DD
:104350003F050E940C1DD82F80E48D0F0E945C1D2C
:1043600090E8F92EF80E8D2F0E945C1D20E8722E29
:10437000780EC11700F58C2E912CF401E254FE4FFB
:104380009081F60181818923A1F0609139057091B6
:104390003A0580913B05ED2E0C2F272D4F2DF50171
:1043A00009950E94F11F462F282F672FC4010E94F4
:1043B0001520CF5FDECF81E0103308F080E0CDB76D
:1043C000DEB7EDE00C941C3A6BE37EE10E948E2197
:1043D000089569E67EE10E948E2108956BE97EE1F1
:1043E0000E948E210895A0E0B0E0E9EFF1E20C9484
:1043F000063A8C01DC018C91C82FCC0FCC0FC80F72
:10440000D5E0DC0FD13308F0D0E36091390570912D
:104410003A0580913B050E94F11FF62EE72ED82E1B
:10442000CD1798F4EC2FF0E0DF01A254BE4F8C9131
:10443000D80111969C91982331F02D2D4F2D6E2D82
:10444000CF010E941520CF5FEBCF81E0D03308F081
:1044500080E0CDB7DEB7E7E00C94223AA0E0B0E010
:10446000E4E3F2E20C94033A8C01FC018081C82F52
:10447000CC0FCC0FC80F95E0D92EDC0EF0E3FD1564
:1044800010F480E3D82EF0903A05D0913B05E090EF
:104490003905B7018D2F0E94F11FC62EB72EA82E09
:1044A00060913C056E0D7F2D8D2F0E94F11FD62F40
:1044B000F72EE82ECD15B8F48C2F90E0FC01E254D5
:1044C000FE4F3081F8012181232359F030FF04C0D1
:1044D0002E2D4D2F6F2D03C02A2D4C2D6B2D0E949C
:1044E0001520CF5FE7CF81E0FFE2FD1508F480E003
:1044F000CDB7DEB7EAE00C941F3AA0E0B0E0E3E805
:10450000F2E20C94043A6C01FC018081C82FCC0FBC
:10451000CC0FC80FD5E0DC0FD13308F0D0E3009109
:104520003A05B0903B0520913C0510E4129F112DF7
:104530001124CD1718F5EC2EF12CF701E254FE4FA3
:104540009081F60181818923B9F0F701EE0FFF1FF9
:10455000E15AFE4F808182958F7060913905819F6D
:10456000600D1124702F8B2D0E94F11F462F282FD4
:10457000672FC7010E941520CF5FDBCF81E0D033CA
:1045800008F080E0CDB7DEB7E9E00C94203AA0E077
:10459000B0E0EDECF2E20C94043A7C01FC01808185
:1045A000C82FCC0FCC0FC80FD5E0DC0FD13308F0EB
:1045B000D0E3C0903A05B0903B0520913C0530E433
:1045C000D32E3D2D329F312D1124D32ECD1738F50A
:1045D0000C2F10E0F801E254FE4F9081F701818129
:1045E0008923D9F0F801EE0FFF1FE25AFE4F6081D8
:1045F000D69EB001112495E0759567959A95E1F7DF
:1046000080913905680F7C2D8B2D0E94F11F462F5C
:10461000282F672FC8010E941520CF5FD7CF81E0D8
:10462000D03308F080E0CDB7DEB7E9E00C94203A53
:10463000A0E0B0E0EEE1F3E20C94063A8C01DC017C
:104640008C91C82FCC0FCC0FC80FD5E0DC0FD13325
:1046500008F0D0E3E0903905F0903A05D0903B05A2
:1046600060913C0566956695669580913E059091B2
:104670003F050E940C1D0E945C1D805887FD81959E
:10468000880F282F3D2D239F212D1124822FB70124
:104690000E94F11FF62EE72ED82ECD1798F4EC2F9E
:1046A000F0E0DF01A254BE4F8C91D80111969C918D
:1046B000982331F02D2D4F2D6E2DCF010E94152006
:1046C000CF5FEBCF81E0D03308F080E0CDB7DEB72D
:1046D000E7E00C94223AA0E0B0E0E1E7F3E20C94CA
:1046E000063AEC01FC01E254FE4F9081692349F146
:1046F000D0903A0500913B0510913905E12EF12C3F
:104700000E94471D282FC7018C549F4F68E671E017
:104710000E94BF398E199F0997FD0396959587953D
:10472000959587952370612F289F600D11247D2D0D
:10473000802F0E94F11F462F282F672FCE010E9445
:104740001520CDB7DEB7E7E00C94223ACF92DF9286
:10475000EF92FF921F93CF93DF937C01FC01808146
:10476000C82FCC0FCC0FC80F15E01C0F113308F069
:1047700010E3F701828181111EC060913C0520E1A8
:10478000620F08F46FEF80913E0590913F050E9403
:104790000C1D6AE070E00E94AB39892BC9F40E94BD
:1047A000471D60E30E949F39F7016181892F90E0E6
:1047B0000E946B230DC0D0E0C12ED12CCC15DD059D
:1047C0003CF4F7016181CE010E946B232196F6CF64
:1047D00081E0103308F080E0DF91CF911F91FF90CE
:1047E000EF90DF90CF9008951F93CF93DF93FC015C
:1047F000E254FE4F20816223B9F0EC010E949F3BFE
:10480000182F0E949F3B8F77782F20E8720F08F4B3
:104810007FEF612F80913B050E94F11F462F282FCB
:10482000672FCE010E941520DF91CF911F9108952F
:10483000CF92DF92FF920F931F93CF93DF938C0160
:10484000FC01C281C1111DC060913C0520E1620FD5
:1048500008F46FEF80913E0590913F050E940C1D7A
:1048600065E070E00E94AB39892B59F50E949F3BAF
:1048700060E370E00E94BF39F80161810E94F42377
:1048800020C0FC018081C82FCC0FCC0FC80F95E051
:10489000F92EFC0EF0E3FF1510F480E3F82ED0E0C3
:1048A000CF2CD12CCC15DD053CF4F8016181CE0173
:1048B0000E94F4232196F6CFC1E0FFE2FF1508F431
:1048C000C0E08C2FDF91CF911F910F91FF90DF906F
:1048D000CF900895A0E0B0E0E0E7F4E20C94063A4F
:1048E0008C01DC018C91C82FCC0FCC0FC80FD5E008
:1048F000DC0FD13308F0D0E3E0903A05F0903B05AF
:10490000D090390560913C056695669566958091D5
:104910003E0590913F050E940C1D0E945C1D805831
:1049200087FD8195880F682F2CE0629F612D1124EF
:104930006D0D7E2D8F2D0E94081DF62EE72ED82E90
:10494000CD1798F4EC2FF0E0DF01A254BE4F8C910C
:10495000D80111969C91982331F02D2D4F2D6E2D5D
:10496000CF010E941520CF5FEBCF81E0D03308F05C
:1049700080E0CDB7DEB7E7E00C94223AE091C102C7
:10498000F091C202099508950E9411160895809130
:104990003E0590913F05A0914005B09141058827C3
:1049A0009C70AA27BB272AE0B695A795979587956F
:1049B0002A95D1F782309105A105B10571F08330B8
:1049C0009105A105B10569F040E00197A105B10588
:1049D00011F060E008C064E102C044E160E080E002
:1049E00003C044E164E184E10E94BE240895A3E091
:1049F000B0E0EDEFF4E20C94FE398B838091FF017F
:104A00002B8182130DC020913805237030E0409136
:104A1000000250E081E02417350719F480E001C05E
:104A200081E081708093FE0180913D059091FD01B0
:104A3000981739F08093FD0140E060E080E00E942B
:104A4000BE24FB81FF3009F04AC08CEF91E00E9448
:104A50007F218A832EC0FC3108F40FC12B812D31B8
:104A600009F46BC008F046C28091FC01F82EFF0CDF
:104A7000FF0C8F0DA5E0FA2EF80E40913E055091E7
:104A80003F0560914005709141058091B30490917C
:104A9000B404A091B504B091B60484179507A60795
:104AA000B70708F4D1C181E08A839FE29F1508F41B
:104AB0005AC08091FC018F5F8093FC019A81911113
:104AC000E5C282E08093FB018091FE018111DEC28C
:104AD000EB81E111DBC283E08093FB01D7C2F031AF
:104AE00008F088C0F73029F48CEF91E00E946B2128
:104AF000B0CFF83008F04DC0F33029F48CEF91E0DE
:104B00000E947D22A6CFF43080F5F13029F48CEF9D
:104B100091E00E94F3219DCFF23050F48091FE018C
:104B2000882309F140E060E080E00E94BE241BC0C1
:104B30008CEF91E00E942E228CCF4091AF045091D7
:104B4000B0046091B1047091B20480913E059091DF
:104B50003F05A0914005B091410584179507A60730
:104B6000B70708F09DC01A82A4CF2B81253029F405
:104B70008CEF91E00E9418236CCF263028F48CEF44
:104B800091E00E94C72265CF8CEF91E00E946621E0
:104B900060CF3B813B3029F48CEF91E00E94A12053
:104BA00058CF3C3098F4393029F48CEF91E00E94D2
:104BB0000C214FCF3A3028F48CEF91E00E9407216E
:104BC00048CF8CEF91E00E949C2043CF8B818D30A9
:104BD00029F48CEF91E00E9475213BCF8E3028F4B0
:104BE0008CEF91E00E94702134CF8CEF91E00E9415
:104BF0007A212FCF9B81973129F48CEF91E00E948D
:104C0000A62327CF983180F5933129F48CEF91E0DA
:104C10000E94AB201ECF943198F4913129F48CEF8F
:104C200091E00E94112115CF923128F48CEF91E090
:104C30000E94A6200ECF8CEF91E00E94162109CF92
:104C4000EB81E53129F48CEF91E00E94E92101CF5D
:104C5000E63128F48CEF91E00E94E421FACE8CEF4B
:104C600091E00E94EE21F5CEFB81FB3109F0F3CEFD
:104C70008CEF91E00E948921ECCEF93129F48CEF80
:104C800091E00E946A24E5CEFA3128F48CEF91E09D
:104C90000E941824DECE8CEF91E00E948421D9CEB0
:104CA0008091FE0181110EC08091FC01E82FEE0F72
:104CB000EE0FE80FE9830E2F0B5F013308F456C0A7
:104CC00000E354C040E060E080E00E94BE24FFE1C9
:104CD000EF2EF4E0FF2E00E010E00E94471D81FF60
:104CE00005C0F7011082118212821DC00E94471D6B
:104CF000B82E0E94471D8695782F2FE7720F08F473
:104D00007FEFC801880F991F800F911FFC01E15EA2
:104D1000FB4F6F016B2D80913B050E94081DF60132
:104D20006083718382830F5F1F4FF3E0EF0EF11CEE
:104D30000033110591F6B8CF2981822F90E0FC0154
:104D4000E254FE4F30812091FD01232361F0FC01EC
:104D5000EE0FFF1FE80FF91FE15EFB4F228140813C
:104D600061810E94152039813F5F398389818017D5
:104D700018F391E09A83003308F01A82003308F4A4
:104D800098CE20E010E001501109822F90E08017AA
:104D90009107CCF4AC01440F551F480F591F415ED9
:104DA0005B4F0196FC01EE0FFF1F8E0F9F1FFC0152
:104DB000E15EFB4F80819181A281FA018083918322
:104DC000A2832F5FE2CF0E94471D7801EE0CFF1CEB
:104DD00081FF09C00E0D1F1DF801E15EFB4F10821F
:104DE0001182128218C00E94471DD82E0E94471DB2
:104DF0008695782F2FE7720F08F47FEF0E0D1F1D99
:104E0000015E1B4F6D2D80913B050E94081DF8012E
:104E10006083718382830E940E1F00913E05109172
:104E20003F052091400530914105DC01CB01800F09
:104E3000911FA21FB31F8093AF049093B004A0935F
:104E4000B104B093B20435CE0E94471D89830E94FD
:104E5000471D90E3891BF0F7890F082F10E0F80138
:104E6000E254FE4F9091FD018081892309F41BCE0D
:104E7000398131FF04C020E040E060E013C00E94AF
:104E8000471D89830E94471D8695782F2FE7720F53
:104E900008F47FEF698180913B050E94F11F462F46
:104EA000282F672FC8010E94152020913C0530E172
:104EB000230F08F42FEF60E1822F90E00E940C1D79
:104EC000BC0184EF91E00E94AB3980913E05909146
:104ED0003F05A0914005B0914105860F971FA11D88
:104EE000B11D8093B3049093B404A093B504B09320
:104EF000B604D9CD2E3109F0BDC08091FE018823C2
:104F000029F040E060E080E00E94BE248091FC0136
:104F1000982F990F990F890F8B5F898340913E05D8
:104F200050913F05609140057091410580911B04AF
:104F300090911C04A0911D04B0911E048417950744
:104F4000A607B70708F08FC06091390570913A0540
:104F500080913B050E94F11F6A83772E682E91EFA6
:104F6000E92E93E0F92E0AE011E0480158016701AB
:104F700082E0582EF6018081F501882369F0808156
:104F8000262D4A81672D90E00E941520F40185812D
:104F9000262D4A81672D0CC0808120E040E060E032
:104FA00090E00E941520F401858120E040E060E05F
:104FB00090E00E941520F601818181936F015A943F
:104FC000FFEFAF1ABF0A21E0821A91085110D2CF29
:104FD000F7018281F801882369F08281262D4A81B8
:104FE000672D90E00E941520F8018381262D4A81CB
:104FF000672D0CC0828120E040E060E090E00E94DC
:105000001520F801838120E040E060E090E00E94FC
:1050100015200E94471D837091E009F090E0F70190
:105020009283F3E0EF0EF11C0A5F1F4F21E00E3573
:10503000120709F09ACF0E940E1F00913E051091B1
:105040003F052091400530914105DC01CB01800FE7
:10505000911FA21FB31F80931B0490931C04A09365
:105060001D04B0931E0431E03A838981803308F433
:1050700020CD79CD2F3F21F40E94C72482E02CCD92
:105080008091FC018F5F8093FC011BCD2396EFE0A4
:105090000C941A3A08950E944A2808950E944B28B9
:1050A0000E948706089508950E9453280895CF937B
:1050B000DF93FC01C081F4E0CF9FC00D1124C550E7
:1050C000D5E0DC0FD13308F0D0E36D2F8C2F0E9498
:1050D00054286D2F8C2F0E945328DF91CF91089573
:1050E000CF930E9430326093B8047093B9048093D8
:1050F000BA049093BB042091BC04211108C0C09154
:1051000038052C2F237019F0C695C69501C0C0E054
:105110002091FB01213091F028F02230D9F023308A
:1051200031F144C01092FC0160933E0570933F053D
:10513000809340059093410581E016C08C2F0E941A
:10514000F724CC2399F10E944E288CEF91E00E9425
:1051500057282CC0C093FF0180913805837080933D
:1051600000020E940F2083E08093FB011FC080910A
:10517000B704882351F046E050E06CE170E088E32A
:1051800095E00E94E93B1092B70460913E05709152
:105190003F0580914005909141050E944B326A3154
:1051A00071058105910510F01092FB01CF910895D2
:1051B000E091BD02F091BE0209950E944C1581114B
:1051C00004C00E94F5150E94F41F46E050E06CE117
:1051D00070E088E395E00E94C53B1092B70480918F
:1051E00038058C7F11F40E94F41F0895CF93C82FC7
:1051F000882391F08091BC0481110EC00E94F72495
:105200001092FF01809138058370809300020E9404
:105210000F2083E08093FB01C093BC04CF910895DD
:10522000E8E3F5E0208191E0922790831092FB0162
:105230000E94211F089581E00E9410290895809105
:105240003805837011F41092FB01809138058C7F32
:1052500081608093380508950E941F2981E00E9493
:10526000211F089590913805937091F0811102C02B
:10527000946007C08F3110F0986703C0880F880FC3
:10528000982B90933805862F1092FB010E94211FC6
:10529000089561E00E9432290895682F90913805A1
:1052A000969596959F5F9F3110F4892F01C081E0FC
:1052B0000E943229089581E00E944D290895682FA7
:1052C0009091380596959695915011F0892F01C0CF
:1052D0008EE10E943229089581E00E945F2908959D
:1052E00090913805937049F08093390560933A05A1
:1052F00040933B05822F0E94211F0895A8E3B5E04B
:105300001196EC911197F0E0282F13964C9113977A
:1053100012966C91CF0108960E947029089581E041
:105320000E947E290895A8E3B5E01196EC911197AB
:10533000F0E0282F13964C91139712966C91CF01A1
:1053400008970E947029089581E00E94932908958A
:10535000E8E3F5E0628120E1620F08F46FEF9181EC
:10536000282F4381892F90E00E947029089581E0C1
:105370000E94A8290895E8E3F5E0628120E1621B1C
:1053800008F460E09181282F4381892F90E00E94EA
:105390007029089581E00E94BB290895E8E3F5E0B3
:1053A000438120E1420F08F44FEF9181282F628161
:1053B000892F90E00E947029089581E00E94CE29F3
:1053C0000895E8E3F5E0438120E1421B08F440E062
:1053D0009181282F6281892F90E00E947029089581
:1053E00081E00E94E1290895E8E3F5E0248130E1BD
:1053F000230F08F42FEF24830E94211F089581E0DA
:105400000E94F4290895E8E3F5E0248130E1231BAC
:1054100008F420E024830E94211F089581E00E9467
:10542000032A089580933D0581E00E94211F08957D
:1054300060E084E70E94FB2B61E087E70E94FB2B82
:105440000895CF930E944F2F84E70E94702A87E728
:105450000E94702AC0E021E041E061E08C2F0E94B0
:10546000182BCF5FC033B9F760E084E70E94132C9C
:1054700061E087E70E94132CCF910895E2E6F6E001
:105480006083418324E630E042E050E0BF01880FB2
:105490000E941B3008950F931F93CF93DF93082F23
:1054A000000FEB0114E210936206E3E6F6E0DE0182
:1054B0008D91819386E0E337F807D1F724E630E059
:1054C00041E150E062E676E0802F0E941B30105FE1
:1054D0006096143B41F7DF91CF911F910F91089592
:1054E000CF93DF93C82F4BE06DEF0E943E2A40E040
:1054F0006AE08C2F0E943E2A8FE39CE90197F1F726
:1055000000C0000040E060E08C2F0E943E2A40E096
:1055100061E08C2F0E943E2A40E066E08C2F0E94C2
:105520003E2A40E06DEF8C2F0E943E2AD0E040E002
:105530006D2F8C2F0E943E2ADF5FD231C1F740E0F1
:105540006D2F8C2F0E943E2ADF5FD432C1F740E0DE
:105550006D2F8C2F0E943E2ADF5FD43BC1F74BE0BA
:105560006DEF8C2F0E943E2A41E06AE08C2F0E9452
:105570003E2A40E06DEF8C2F0E943E2ADF91CF91B2
:105580000895A4E0B0E0E7ECFAE20C94083A803326
:10559000910588F5122F042FF62EBC01660F771F98
:1055A000660F771F6A517F4F44E050E0CE010196AD
:1055B0000E94AF3B898183704A81282F30E050E9F7
:1055C000859FC00111248E5B9A4FFC01E40FF11DF1
:1055D000B497F0824B81FC01E40FF11DB497008376
:1055E0004C81840F911DFC01B4971083F901ED519A
:1055F000FB4F81E080832496E5E00C94243AFF92EF
:105600000F931F93CF93DF93182F062FF42EC0E034
:10561000D0E02F2D402F612FCE010E94C12A21966C
:10562000C033D105B1F7CDB7DEB7E5E00C94243A2D
:10563000A4E0B0E0EEE1FBE20C94FE39862E942E5D
:10564000522E24E0829FC0011124BC016A517F4F79
:1056500044E050E0CE0101960E94AF3B2A8130E049
:10566000C9018497FC0197FD379673E0F595E7959E
:105670007A95E1F74B8150E08A01045211099801B3
:1056800017FF02C0295F3F4F63E0359527956A9564
:10569000E1F74C8150E05A0164E2A61AB1083501E5
:1056A000B7FE04C03A017DE1671A710843E07594C2
:1056B00067944A95E1F758E0C52ED12CB6010E94B7
:1056C000BF397C01C801B6010E94BF398C01C501F8
:1056D000B6010E94BF39FF274981FF24542F537020
:1056E000882089F062E1569FE00DF11D1124E154FC
:1056F000FB4F61E070E00E2C01C0660F0A94EAF7E0
:105700005081652B11C072E1579FE00DF11D1124EE
:10571000E154FB4F61E070E00E2C01C0660F0A946B
:10572000EAF7609550816523608333271127542F52
:105730005370992091F062E1569F200D311D112484
:10574000F901E154FB4F21E030E0002E01C0220FAF
:105750000A94EAF73081232B12C072E1579F200D83
:10576000311D1124F901E154FB4F21E030E0002EFE
:1057700001C0220F0A94EAF7209530812323208369
:1057800077249927942F937093015520A1F052E12B
:10579000959F200D311D1124F901E154FB4F21E0AB
:1057A00030E0B90102C0660F771F8A95E2F7CB019E
:1057B0009081892B14C072E1979F200D311D112417
:1057C000F901E154FB4F21E030E0B90102C0660F5E
:1057D000771F8A95E2F7CB0180959081892380839A
:1057E0004370E42FF0E0E354FB4F81E08083249684
:1057F000EFE00C941A3ACF93DF93262F30E0E901C3
:10580000CD51DB4F9881992351F090E9929FB001DF
:10581000939F700D11246E5B7A4F0E944B2A188261
:10582000DF91CF910895A0E0B0E0E9E1FCE20C94B3
:10583000063A262F30E0A90143545B4F7A01FA0162
:105840009081911107C0F7011082CDB7DEB7E7E074
:105850000C94223AD82EF2E16F9FE001112400E06F
:1058600010E0F801EC0FFD1FE154FB4F4081602F69
:105870008D2D0E943E2A0F5F1F4F0231110589F7BF
:10588000E2CF882311F0FA0101C0FB0109950895C8
:105890001F93CF93DF93FB011281111191C0EC0193
:1058A0000E945B148272CB3CFCE5DF0709F472C0F6
:1058B00010F5C63CECE5DE0709F453C058F4C43CCF
:1058C0009CE5D90709F441C008F044C0C33CDC455D
:1058D000C9F136C0C83C9CE5D90709F44CC008F4AE
:1058E00045C0C93CFCE5DF0709F44AC0CA3CDC45B9
:1058F00009F44BC025C0C03DECE5DE0709F45DC0EE
:1059000088F4CD3C9CE5D90709F44EC008F447C0A3
:10591000CE3CFCE5DF0709F44CC0CF3CDC4509F484
:105920004AC00EC0C73D9CE5D90730F4C23DDC45F6
:1059300008F046C082E142C0CE35DD4509F440C0E2
:1059400011E03EC00E941B293BC04CE659E26BE5CA
:1059500079E204C04BE559E26CE679E20E94412C01
:105960002FC044EA59E26FE879E2F8CF4FE859E2F4
:1059700064EA79E2F3CF4AEC59E267EB79E2EECFE1
:1059800047EB59E26AEC79E2E9CF40EF59E26DED7D
:1059900079E2E4CF4DED59E260EF79E2DFCF4EE0FE
:1059A0005AE26FEF79E2DACF4FEF59E26EE07AE236
:1059B000D5CF81E003C085E001C08DE00E94492978
:1059C000812FDF91CF911F910895CF93DF93EC0149
:1059D000FB018281882309F472C1C430FDE5DF0731
:1059E00060F4CB3F9CE5D907D0F49E0122503C45A2
:1059F0002431310508F064C112C0C63AEDE5DE0776
:105A000071F030F4C2369DE5D90709F059C107C0DD
:105A10009E012E5A3D452330310508F051C10E94A8
:105A2000611590931B0580931A05C231ECE5DE07E2
:105A300009F405C108F04BC0C9308CE5D80709F45A
:105A4000D2C000F5C530ECE5DE0709F4B9C078F442
:105A5000C3308CE5D80709F4AAC008F0AEC0C23044
:105A6000DC4509F022C180911A058160A3C0C730CE
:105A7000FCE5DF0709F4AFC008F0B1C080911A055A
:105A8000806198C0CD309CE5D90709F4C2C058F4B4
:105A9000CB30FCE5DF0709F4B0C008F0B6C0809158
:105AA0001A058860A6C0CF309CE5D90709F4BFC0AD
:105AB00008F4B2C0C031FCE5DF0709F4BCC0C13155
:105AC000DC4509F0F2C080911A058F7B73C0C115C7
:105AD0009DE5D90709F4BEC088F5CB3FFCE5DF079B
